{
	"contracts/CrowdfundingAssignmentUnic.sol": {
		"CrowdfundingAssignmentUnic": {
			"abi": [
				{
					"inputs": [],
					"stateMutability": "nonpayable",
					"type": "constructor"
				},
				{
					"stateMutability": "payable",
					"type": "fallback"
				},
				{
					"inputs": [
						{
							"internalType": "string",
							"name": "_projectTitle",
							"type": "string"
						},
						{
							"internalType": "string",
							"name": "_projectDescription",
							"type": "string"
						},
						{
							"internalType": "uint256",
							"name": "_projectParticipationAmount",
							"type": "uint256"
						}
					],
					"name": "createProject",
					"outputs": [],
					"stateMutability": "nonpayable",
					"type": "function"
				},
				{
					"inputs": [],
					"name": "getBalance",
					"outputs": [
						{
							"internalType": "uint256",
							"name": "",
							"type": "uint256"
						}
					],
					"stateMutability": "view",
					"type": "function"
				},
				{
					"inputs": [
						{
							"internalType": "uint256",
							"name": "_projectID",
							"type": "uint256"
						}
					],
					"name": "getProjectDetails",
					"outputs": [
						{
							"internalType": "uint256",
							"name": "",
							"type": "uint256"
						},
						{
							"internalType": "string",
							"name": "",
							"type": "string"
						},
						{
							"internalType": "string",
							"name": "",
							"type": "string"
						},
						{
							"internalType": "address",
							"name": "",
							"type": "address"
						},
						{
							"internalType": "uint256",
							"name": "",
							"type": "uint256"
						},
						{
							"internalType": "uint256",
							"name": "",
							"type": "uint256"
						}
					],
					"stateMutability": "view",
					"type": "function"
				},
				{
					"inputs": [
						{
							"internalType": "uint256",
							"name": "_projectID",
							"type": "uint256"
						}
					],
					"name": "participateToProject",
					"outputs": [],
					"stateMutability": "payable",
					"type": "function"
				},
				{
					"inputs": [
						{
							"internalType": "uint256",
							"name": "_projectID",
							"type": "uint256"
						},
						{
							"internalType": "address",
							"name": "_user",
							"type": "address"
						}
					],
					"name": "retrieveContributions",
					"outputs": [
						{
							"internalType": "uint256",
							"name": "",
							"type": "uint256"
						}
					],
					"stateMutability": "view",
					"type": "function"
				},
				{
					"inputs": [
						{
							"internalType": "uint256",
							"name": "_projectID",
							"type": "uint256"
						}
					],
					"name": "withdrawFunds",
					"outputs": [],
					"stateMutability": "payable",
					"type": "function"
				},
				{
					"stateMutability": "payable",
					"type": "receive"
				}
			],
			"devdoc": {
				"kind": "dev",
				"methods": {},
				"version": 1
			},
			"evm": {
				"assembly": "    /* \"contracts/CrowdfundingAssignmentUnic.sol\":57:5665  contract CrowdfundingAssignmentUnic {... */\n  mstore(0x40, 0x80)\n    /* \"contracts/CrowdfundingAssignmentUnic.sol\":1106:1107  1 */\n  0x01\n    /* \"contracts/CrowdfundingAssignmentUnic.sol\":1085:1107  uint nextProjectID = 1 */\n  0x02\n  sstore\n    /* \"contracts/CrowdfundingAssignmentUnic.sol\":100:121  constructor() {... */\n  callvalue\n  dup1\n  iszero\n  tag_1\n  jumpi\n  0x00\n  dup1\n  revert\ntag_1:\n  pop\n    /* \"contracts/CrowdfundingAssignmentUnic.sol\":57:5665  contract CrowdfundingAssignmentUnic {... */\n  dataSize(sub_0)\n  dup1\n  dataOffset(sub_0)\n  0x00\n  codecopy\n  0x00\n  return\nstop\n\nsub_0: assembly {\n        /* \"contracts/CrowdfundingAssignmentUnic.sol\":57:5665  contract CrowdfundingAssignmentUnic {... */\n      mstore(0x40, 0x80)\n      jumpi(tag_1, lt(calldatasize, 0x04))\n      shr(0xe0, calldataload(0x00))\n      dup1\n      0x12065fe0\n      eq\n      tag_3\n      jumpi\n      dup1\n      0x155dd5ee\n      eq\n      tag_4\n      jumpi\n      dup1\n      0x23c55448\n      eq\n      tag_5\n      jumpi\n      dup1\n      0x2abf8709\n      eq\n      tag_6\n      jumpi\n      dup1\n      0x5f8439e3\n      eq\n      tag_7\n      jumpi\n      dup1\n      0x77ef7e3c\n      eq\n      tag_8\n      jumpi\n      jump(tag_2)\n    tag_1:\n      jumpi(tag_2, calldatasize)\n      stop\n    tag_2:\n      stop\n        /* \"contracts/CrowdfundingAssignmentUnic.sol\":5568:5662  function getBalance() public view returns (uint) {... */\n    tag_3:\n      callvalue\n      dup1\n      iszero\n      tag_13\n      jumpi\n      0x00\n      dup1\n      revert\n    tag_13:\n      pop\n      tag_14\n      tag_15\n      jump\t// in\n    tag_14:\n      mload(0x40)\n      tag_16\n      swap2\n      swap1\n      tag_17\n      jump\t// in\n    tag_16:\n      mload(0x40)\n      dup1\n      swap2\n      sub\n      swap1\n      return\n        /* \"contracts/CrowdfundingAssignmentUnic.sol\":4737:5371  function withdrawFunds(uint _projectID) public payable {... */\n    tag_4:\n      tag_18\n      0x04\n      dup1\n      calldatasize\n      sub\n      dup2\n      add\n      swap1\n      tag_19\n      swap2\n      swap1\n      tag_20\n      jump\t// in\n    tag_19:\n      tag_21\n      jump\t// in\n    tag_18:\n      stop\n        /* \"contracts/CrowdfundingAssignmentUnic.sol\":1189:1996  function createProject(string memory _projectTitle, string memory _projectDescription, uint256 _projectParticipationAmount) public {... */\n    tag_5:\n      callvalue\n      dup1\n      iszero\n      tag_22\n      jumpi\n      0x00\n      dup1\n      revert\n    tag_22:\n      pop\n      tag_23\n      0x04\n      dup1\n      calldatasize\n      sub\n      dup2\n      add\n      swap1\n      tag_24\n      swap2\n      swap1\n      tag_25\n      jump\t// in\n    tag_24:\n      tag_26\n      jump\t// in\n    tag_23:\n      stop\n        /* \"contracts/CrowdfundingAssignmentUnic.sol\":4017:4462  function retrieveContributions(uint256 _projectID, address _user) public view returns (uint) {... */\n    tag_6:\n      callvalue\n      dup1\n      iszero\n      tag_27\n      jumpi\n      0x00\n      dup1\n      revert\n    tag_27:\n      pop\n      tag_28\n      0x04\n      dup1\n      calldatasize\n      sub\n      dup2\n      add\n      swap1\n      tag_29\n      swap2\n      swap1\n      tag_30\n      jump\t// in\n    tag_29:\n      tag_31\n      jump\t// in\n    tag_28:\n      mload(0x40)\n      tag_32\n      swap2\n      swap1\n      tag_17\n      jump\t// in\n    tag_32:\n      mload(0x40)\n      dup1\n      swap2\n      sub\n      swap1\n      return\n        /* \"contracts/CrowdfundingAssignmentUnic.sol\":2002:2511  function getProjectDetails(uint256 _projectID) public view returns (uint256, string memory, string memory, address, uint256, uint256) {... */\n    tag_7:\n      callvalue\n      dup1\n      iszero\n      tag_33\n      jumpi\n      0x00\n      dup1\n      revert\n    tag_33:\n      pop\n      tag_34\n      0x04\n      dup1\n      calldatasize\n      sub\n      dup2\n      add\n      swap1\n      tag_35\n      swap2\n      swap1\n      tag_20\n      jump\t// in\n    tag_35:\n      tag_36\n      jump\t// in\n    tag_34:\n      mload(0x40)\n      tag_37\n      swap7\n      swap6\n      swap5\n      swap4\n      swap3\n      swap2\n      swap1\n      tag_38\n      jump\t// in\n    tag_37:\n      mload(0x40)\n      dup1\n      swap2\n      sub\n      swap1\n      return\n        /* \"contracts/CrowdfundingAssignmentUnic.sol\":2807:3738  function participateToProject(uint256 _projectID) public payable {... */\n    tag_8:\n      tag_39\n      0x04\n      dup1\n      calldatasize\n      sub\n      dup2\n      add\n      swap1\n      tag_40\n      swap2\n      swap1\n      tag_20\n      jump\t// in\n    tag_40:\n      tag_41\n      jump\t// in\n    tag_39:\n      stop\n        /* \"contracts/CrowdfundingAssignmentUnic.sol\":5568:5662  function getBalance() public view returns (uint) {... */\n    tag_15:\n        /* \"contracts/CrowdfundingAssignmentUnic.sol\":5611:5615  uint */\n      0x00\n        /* \"contracts/CrowdfundingAssignmentUnic.sol\":5634:5655  address(this).balance */\n      selfbalance\n        /* \"contracts/CrowdfundingAssignmentUnic.sol\":5627:5655  return address(this).balance */\n      swap1\n      pop\n        /* \"contracts/CrowdfundingAssignmentUnic.sol\":5568:5662  function getBalance() public view returns (uint) {... */\n      swap1\n      jump\t// out\n        /* \"contracts/CrowdfundingAssignmentUnic.sol\":4737:5371  function withdrawFunds(uint _projectID) public payable {... */\n    tag_21:\n        /* \"contracts/CrowdfundingAssignmentUnic.sol\":4802:4825  Project storage project */\n      0x00\n        /* \"contracts/CrowdfundingAssignmentUnic.sol\":4828:4836  projects */\n      dup1\n        /* \"contracts/CrowdfundingAssignmentUnic.sol\":4828:4848  projects[_projectID] */\n      0x00\n        /* \"contracts/CrowdfundingAssignmentUnic.sol\":4837:4847  _projectID */\n      dup4\n        /* \"contracts/CrowdfundingAssignmentUnic.sol\":4828:4848  projects[_projectID] */\n      dup2\n      mstore\n      0x20\n      add\n      swap1\n      dup2\n      mstore\n      0x20\n      add\n      0x00\n      keccak256\n        /* \"contracts/CrowdfundingAssignmentUnic.sol\":4802:4848  Project storage project = projects[_projectID] */\n      swap1\n      pop\n        /* \"contracts/CrowdfundingAssignmentUnic.sol\":4881:4888  project */\n      dup1\n        /* \"contracts/CrowdfundingAssignmentUnic.sol\":4881:4901  project.projectOwner */\n      0x03\n      add\n      0x00\n      swap1\n      sload\n      swap1\n      0x0100\n      exp\n      swap1\n      div\n      0xffffffffffffffffffffffffffffffffffffffff\n      and\n        /* \"contracts/CrowdfundingAssignmentUnic.sol\":4867:4901  msg.sender == project.projectOwner */\n      0xffffffffffffffffffffffffffffffffffffffff\n      and\n        /* \"contracts/CrowdfundingAssignmentUnic.sol\":4867:4877  msg.sender */\n      caller\n        /* \"contracts/CrowdfundingAssignmentUnic.sol\":4867:4901  msg.sender == project.projectOwner */\n      0xffffffffffffffffffffffffffffffffffffffff\n      and\n      eq\n        /* \"contracts/CrowdfundingAssignmentUnic.sol\":4859:4958  require(msg.sender == project.projectOwner, \"You must be the project Owner to withdraw the funds.\") */\n      tag_44\n      jumpi\n      mload(0x40)\n      0x08c379a000000000000000000000000000000000000000000000000000000000\n      dup2\n      mstore\n      0x04\n      add\n      tag_45\n      swap1\n      tag_46\n      jump\t// in\n    tag_45:\n      mload(0x40)\n      dup1\n      swap2\n      sub\n      swap1\n      revert\n    tag_44:\n        /* \"contracts/CrowdfundingAssignmentUnic.sol\":5012:5013  0 */\n      0x00\n        /* \"contracts/CrowdfundingAssignmentUnic.sol\":4976:4983  project */\n      dup2\n        /* \"contracts/CrowdfundingAssignmentUnic.sol\":4976:5009  project.projectTotalFundingAmount */\n      0x05\n      add\n      sload\n        /* \"contracts/CrowdfundingAssignmentUnic.sol\":4976:5013  project.projectTotalFundingAmount > 0 */\n      gt\n        /* \"contracts/CrowdfundingAssignmentUnic.sol\":4968:5066  require(project.projectTotalFundingAmount > 0, \"There are no funds to withdraw for this project.\") */\n      tag_47\n      jumpi\n      mload(0x40)\n      0x08c379a000000000000000000000000000000000000000000000000000000000\n      dup2\n      mstore\n      0x04\n      add\n      tag_48\n      swap1\n      tag_49\n      jump\t// in\n    tag_48:\n      mload(0x40)\n      dup1\n      swap2\n      sub\n      swap1\n      revert\n    tag_47:\n        /* \"contracts/CrowdfundingAssignmentUnic.sol\":5077:5096  address payable _to */\n      0x00\n        /* \"contracts/CrowdfundingAssignmentUnic.sol\":5107:5114  project */\n      dup2\n        /* \"contracts/CrowdfundingAssignmentUnic.sol\":5107:5127  project.projectOwner */\n      0x03\n      add\n      0x00\n      swap1\n      sload\n      swap1\n      0x0100\n      exp\n      swap1\n      div\n      0xffffffffffffffffffffffffffffffffffffffff\n      and\n        /* \"contracts/CrowdfundingAssignmentUnic.sol\":5077:5128  address payable _to = payable(project.projectOwner) */\n      swap1\n      pop\n        /* \"contracts/CrowdfundingAssignmentUnic.sol\":5138:5141  _to */\n      dup1\n        /* \"contracts/CrowdfundingAssignmentUnic.sol\":5138:5150  _to.transfer */\n      0xffffffffffffffffffffffffffffffffffffffff\n      and\n        /* \"contracts/CrowdfundingAssignmentUnic.sol\":5138:5185  _to.transfer(project.projectTotalFundingAmount) */\n      0x08fc\n        /* \"contracts/CrowdfundingAssignmentUnic.sol\":5151:5158  project */\n      dup4\n        /* \"contracts/CrowdfundingAssignmentUnic.sol\":5151:5184  project.projectTotalFundingAmount */\n      0x05\n      add\n      sload\n        /* \"contracts/CrowdfundingAssignmentUnic.sol\":5138:5185  _to.transfer(project.projectTotalFundingAmount) */\n      swap1\n      dup2\n      iszero\n      mul\n      swap1\n      mload(0x40)\n      0x00\n      mload(0x40)\n      dup1\n      dup4\n      sub\n      dup2\n      dup6\n      dup9\n      dup9\n      call\n      swap4\n      pop\n      pop\n      pop\n      pop\n      iszero\n      dup1\n      iszero\n      tag_51\n      jumpi\n      returndatasize\n      0x00\n      dup1\n      returndatacopy\n      revert(0x00, returndatasize)\n    tag_51:\n      pop\n        /* \"contracts/CrowdfundingAssignmentUnic.sol\":5363:5364  0 */\n      0x00\n        /* \"contracts/CrowdfundingAssignmentUnic.sol\":5327:5334  project */\n      dup3\n        /* \"contracts/CrowdfundingAssignmentUnic.sol\":5327:5360  project.projectTotalFundingAmount */\n      0x05\n      add\n        /* \"contracts/CrowdfundingAssignmentUnic.sol\":5327:5364  project.projectTotalFundingAmount = 0 */\n      dup2\n      swap1\n      sstore\n      pop\n        /* \"contracts/CrowdfundingAssignmentUnic.sol\":4792:5371  {... */\n      pop\n      pop\n        /* \"contracts/CrowdfundingAssignmentUnic.sol\":4737:5371  function withdrawFunds(uint _projectID) public payable {... */\n      pop\n      jump\t// out\n        /* \"contracts/CrowdfundingAssignmentUnic.sol\":1189:1996  function createProject(string memory _projectTitle, string memory _projectDescription, uint256 _projectParticipationAmount) public {... */\n    tag_26:\n        /* \"contracts/CrowdfundingAssignmentUnic.sol\":1469:1470  0 */\n      0x00\n        /* \"contracts/CrowdfundingAssignmentUnic.sol\":1445:1458  _projectTitle */\n      dup4\n        /* \"contracts/CrowdfundingAssignmentUnic.sol\":1439:1466  bytes(_projectTitle).length */\n      mload\n        /* \"contracts/CrowdfundingAssignmentUnic.sol\":1439:1470  bytes(_projectTitle).length > 0 */\n      gt\n        /* \"contracts/CrowdfundingAssignmentUnic.sol\":1431:1505  require(bytes(_projectTitle).length > 0, \"Project title cannot be empty.\") */\n      tag_53\n      jumpi\n      mload(0x40)\n      0x08c379a000000000000000000000000000000000000000000000000000000000\n      dup2\n      mstore\n      0x04\n      add\n      tag_54\n      swap1\n      tag_55\n      jump\t// in\n    tag_54:\n      mload(0x40)\n      dup1\n      swap2\n      sub\n      swap1\n      revert\n    tag_53:\n        /* \"contracts/CrowdfundingAssignmentUnic.sol\":1559:1560  0 */\n      0x00\n        /* \"contracts/CrowdfundingAssignmentUnic.sol\":1529:1548  _projectDescription */\n      dup3\n        /* \"contracts/CrowdfundingAssignmentUnic.sol\":1523:1556  bytes(_projectDescription).length */\n      mload\n        /* \"contracts/CrowdfundingAssignmentUnic.sol\":1523:1560  bytes(_projectDescription).length > 0 */\n      gt\n        /* \"contracts/CrowdfundingAssignmentUnic.sol\":1515:1601  require(bytes(_projectDescription).length > 0, \"Project description cannot be empty.\") */\n      tag_56\n      jumpi\n      mload(0x40)\n      0x08c379a000000000000000000000000000000000000000000000000000000000\n      dup2\n      mstore\n      0x04\n      add\n      tag_57\n      swap1\n      tag_58\n      jump\t// in\n    tag_57:\n      mload(0x40)\n      dup1\n      swap2\n      sub\n      swap1\n      revert\n    tag_56:\n        /* \"contracts/CrowdfundingAssignmentUnic.sol\":1649:1650  0 */\n      0x00\n        /* \"contracts/CrowdfundingAssignmentUnic.sol\":1619:1646  _projectParticipationAmount */\n      dup2\n        /* \"contracts/CrowdfundingAssignmentUnic.sol\":1619:1650  _projectParticipationAmount > 0 */\n      gt\n        /* \"contracts/CrowdfundingAssignmentUnic.sol\":1611:1699  require(_projectParticipationAmount > 0, \"Participation amount must be greater than 0.\") */\n      tag_59\n      jumpi\n      mload(0x40)\n      0x08c379a000000000000000000000000000000000000000000000000000000000\n      dup2\n      mstore\n      0x04\n      add\n      tag_60\n      swap1\n      tag_61\n      jump\t// in\n    tag_60:\n      mload(0x40)\n      dup1\n      swap2\n      sub\n      swap1\n      revert\n    tag_59:\n        /* \"contracts/CrowdfundingAssignmentUnic.sol\":1710:1735  Project memory newProject */\n      0x00\n        /* \"contracts/CrowdfundingAssignmentUnic.sol\":1738:1840  Project(nextProjectID, _projectTitle, _projectDescription, msg.sender, _projectParticipationAmount, 0) */\n      mload(0x40)\n      dup1\n      0xc0\n      add\n      0x40\n      mstore\n      dup1\n        /* \"contracts/CrowdfundingAssignmentUnic.sol\":1746:1759  nextProjectID */\n      sload(0x02)\n        /* \"contracts/CrowdfundingAssignmentUnic.sol\":1738:1840  Project(nextProjectID, _projectTitle, _projectDescription, msg.sender, _projectParticipationAmount, 0) */\n      dup2\n      mstore\n      0x20\n      add\n        /* \"contracts/CrowdfundingAssignmentUnic.sol\":1761:1774  _projectTitle */\n      dup6\n        /* \"contracts/CrowdfundingAssignmentUnic.sol\":1738:1840  Project(nextProjectID, _projectTitle, _projectDescription, msg.sender, _projectParticipationAmount, 0) */\n      dup2\n      mstore\n      0x20\n      add\n        /* \"contracts/CrowdfundingAssignmentUnic.sol\":1776:1795  _projectDescription */\n      dup5\n        /* \"contracts/CrowdfundingAssignmentUnic.sol\":1738:1840  Project(nextProjectID, _projectTitle, _projectDescription, msg.sender, _projectParticipationAmount, 0) */\n      dup2\n      mstore\n      0x20\n      add\n        /* \"contracts/CrowdfundingAssignmentUnic.sol\":1797:1807  msg.sender */\n      caller\n        /* \"contracts/CrowdfundingAssignmentUnic.sol\":1738:1840  Project(nextProjectID, _projectTitle, _projectDescription, msg.sender, _projectParticipationAmount, 0) */\n      0xffffffffffffffffffffffffffffffffffffffff\n      and\n      dup2\n      mstore\n      0x20\n      add\n        /* \"contracts/CrowdfundingAssignmentUnic.sol\":1809:1836  _projectParticipationAmount */\n      dup4\n        /* \"contracts/CrowdfundingAssignmentUnic.sol\":1738:1840  Project(nextProjectID, _projectTitle, _projectDescription, msg.sender, _projectParticipationAmount, 0) */\n      dup2\n      mstore\n      0x20\n      add\n        /* \"contracts/CrowdfundingAssignmentUnic.sol\":1838:1839  0 */\n      0x00\n        /* \"contracts/CrowdfundingAssignmentUnic.sol\":1738:1840  Project(nextProjectID, _projectTitle, _projectDescription, msg.sender, _projectParticipationAmount, 0) */\n      dup2\n      mstore\n      pop\n        /* \"contracts/CrowdfundingAssignmentUnic.sol\":1710:1840  Project memory newProject = Project(nextProjectID, _projectTitle, _projectDescription, msg.sender, _projectParticipationAmount, 0) */\n      swap1\n      pop\n        /* \"contracts/CrowdfundingAssignmentUnic.sol\":1954:1964  newProject */\n      dup1\n        /* \"contracts/CrowdfundingAssignmentUnic.sol\":1928:1936  projects */\n      0x00\n        /* \"contracts/CrowdfundingAssignmentUnic.sol\":1928:1951  projects[nextProjectID] */\n      dup1\n        /* \"contracts/CrowdfundingAssignmentUnic.sol\":1937:1950  nextProjectID */\n      sload(0x02)\n        /* \"contracts/CrowdfundingAssignmentUnic.sol\":1928:1951  projects[nextProjectID] */\n      dup2\n      mstore\n      0x20\n      add\n      swap1\n      dup2\n      mstore\n      0x20\n      add\n      0x00\n      keccak256\n        /* \"contracts/CrowdfundingAssignmentUnic.sol\":1928:1964  projects[nextProjectID] = newProject */\n      0x00\n      dup3\n      add\n      mload\n      dup2\n      0x00\n      add\n      sstore\n      0x20\n      dup3\n      add\n      mload\n      dup2\n      0x01\n      add\n      swap1\n      dup2\n      tag_62\n      swap2\n      swap1\n      tag_63\n      jump\t// in\n    tag_62:\n      pop\n      0x40\n      dup3\n      add\n      mload\n      dup2\n      0x02\n      add\n      swap1\n      dup2\n      tag_64\n      swap2\n      swap1\n      tag_63\n      jump\t// in\n    tag_64:\n      pop\n      0x60\n      dup3\n      add\n      mload\n      dup2\n      0x03\n      add\n      exp(0x0100, 0x00)\n      dup2\n      sload\n      dup2\n      0xffffffffffffffffffffffffffffffffffffffff\n      mul\n      not\n      and\n      swap1\n      dup4\n      0xffffffffffffffffffffffffffffffffffffffff\n      and\n      mul\n      or\n      swap1\n      sstore\n      pop\n      0x80\n      dup3\n      add\n      mload\n      dup2\n      0x04\n      add\n      sstore\n      0xa0\n      dup3\n      add\n      mload\n      dup2\n      0x05\n      add\n      sstore\n      swap1\n      pop\n      pop\n        /* \"contracts/CrowdfundingAssignmentUnic.sol\":1974:1987  nextProjectID */\n      0x02\n      0x00\n        /* \"contracts/CrowdfundingAssignmentUnic.sol\":1974:1989  nextProjectID++ */\n      dup2\n      sload\n      dup1\n      swap3\n      swap2\n      swap1\n      tag_65\n      swap1\n      tag_66\n      jump\t// in\n    tag_65:\n      swap2\n      swap1\n      pop\n      sstore\n      pop\n        /* \"contracts/CrowdfundingAssignmentUnic.sol\":1320:1996  {... */\n      pop\n        /* \"contracts/CrowdfundingAssignmentUnic.sol\":1189:1996  function createProject(string memory _projectTitle, string memory _projectDescription, uint256 _projectParticipationAmount) public {... */\n      pop\n      pop\n      pop\n      jump\t// out\n        /* \"contracts/CrowdfundingAssignmentUnic.sol\":4017:4462  function retrieveContributions(uint256 _projectID, address _user) public view returns (uint) {... */\n    tag_31:\n        /* \"contracts/CrowdfundingAssignmentUnic.sol\":4104:4108  uint */\n      0x00\n        /* \"contracts/CrowdfundingAssignmentUnic.sol\":4215:4216  0 */\n      dup1\n        /* \"contracts/CrowdfundingAssignmentUnic.sol\":4170:4217  projects[_projectID].projectOwner != address(0) */\n      0xffffffffffffffffffffffffffffffffffffffff\n      and\n        /* \"contracts/CrowdfundingAssignmentUnic.sol\":4170:4178  projects */\n      0x00\n        /* \"contracts/CrowdfundingAssignmentUnic.sol\":4170:4190  projects[_projectID] */\n      dup1\n        /* \"contracts/CrowdfundingAssignmentUnic.sol\":4179:4189  _projectID */\n      dup6\n        /* \"contracts/CrowdfundingAssignmentUnic.sol\":4170:4190  projects[_projectID] */\n      dup2\n      mstore\n      0x20\n      add\n      swap1\n      dup2\n      mstore\n      0x20\n      add\n      0x00\n      keccak256\n        /* \"contracts/CrowdfundingAssignmentUnic.sol\":4170:4203  projects[_projectID].projectOwner */\n      0x03\n      add\n      0x00\n      swap1\n      sload\n      swap1\n      0x0100\n      exp\n      swap1\n      div\n      0xffffffffffffffffffffffffffffffffffffffff\n      and\n        /* \"contracts/CrowdfundingAssignmentUnic.sol\":4170:4217  projects[_projectID].projectOwner != address(0) */\n      0xffffffffffffffffffffffffffffffffffffffff\n      and\n      sub\n        /* \"contracts/CrowdfundingAssignmentUnic.sol\":4162:4240  require(projects[_projectID].projectOwner != address(0), \"Invalid project ID\") */\n      tag_68\n      jumpi\n      mload(0x40)\n      0x08c379a000000000000000000000000000000000000000000000000000000000\n      dup2\n      mstore\n      0x04\n      add\n      tag_69\n      swap1\n      tag_70\n      jump\t// in\n    tag_69:\n      mload(0x40)\n      dup1\n      swap2\n      sub\n      swap1\n      revert\n    tag_68:\n        /* \"contracts/CrowdfundingAssignmentUnic.sol\":4358:4359  0 */\n      0x00\n        /* \"contracts/CrowdfundingAssignmentUnic.sol\":4323:4336  participation */\n      0x01\n        /* \"contracts/CrowdfundingAssignmentUnic.sol\":4323:4348  participation[_projectID] */\n      0x00\n        /* \"contracts/CrowdfundingAssignmentUnic.sol\":4337:4347  _projectID */\n      dup6\n        /* \"contracts/CrowdfundingAssignmentUnic.sol\":4323:4348  participation[_projectID] */\n      dup2\n      mstore\n      0x20\n      add\n      swap1\n      dup2\n      mstore\n      0x20\n      add\n      0x00\n      keccak256\n        /* \"contracts/CrowdfundingAssignmentUnic.sol\":4323:4355  participation[_projectID][_user] */\n      0x00\n        /* \"contracts/CrowdfundingAssignmentUnic.sol\":4349:4354  _user */\n      dup5\n        /* \"contracts/CrowdfundingAssignmentUnic.sol\":4323:4355  participation[_projectID][_user] */\n      0xffffffffffffffffffffffffffffffffffffffff\n      and\n      0xffffffffffffffffffffffffffffffffffffffff\n      and\n      dup2\n      mstore\n      0x20\n      add\n      swap1\n      dup2\n      mstore\n      0x20\n      add\n      0x00\n      keccak256\n      sload\n        /* \"contracts/CrowdfundingAssignmentUnic.sol\":4323:4359  participation[_projectID][_user] > 0 */\n      gt\n        /* \"contracts/CrowdfundingAssignmentUnic.sol\":4315:4405  require(participation[_projectID][_user] > 0, \"User has not participated in this project\") */\n      tag_71\n      jumpi\n      mload(0x40)\n      0x08c379a000000000000000000000000000000000000000000000000000000000\n      dup2\n      mstore\n      0x04\n      add\n      tag_72\n      swap1\n      tag_73\n      jump\t// in\n    tag_72:\n      mload(0x40)\n      dup1\n      swap2\n      sub\n      swap1\n      revert\n    tag_71:\n        /* \"contracts/CrowdfundingAssignmentUnic.sol\":4423:4436  participation */\n      0x01\n        /* \"contracts/CrowdfundingAssignmentUnic.sol\":4423:4448  participation[_projectID] */\n      0x00\n        /* \"contracts/CrowdfundingAssignmentUnic.sol\":4437:4447  _projectID */\n      dup5\n        /* \"contracts/CrowdfundingAssignmentUnic.sol\":4423:4448  participation[_projectID] */\n      dup2\n      mstore\n      0x20\n      add\n      swap1\n      dup2\n      mstore\n      0x20\n      add\n      0x00\n      keccak256\n        /* \"contracts/CrowdfundingAssignmentUnic.sol\":4423:4455  participation[_projectID][_user] */\n      0x00\n        /* \"contracts/CrowdfundingAssignmentUnic.sol\":4449:4454  _user */\n      dup4\n        /* \"contracts/CrowdfundingAssignmentUnic.sol\":4423:4455  participation[_projectID][_user] */\n      0xffffffffffffffffffffffffffffffffffffffff\n      and\n      0xffffffffffffffffffffffffffffffffffffffff\n      and\n      dup2\n      mstore\n      0x20\n      add\n      swap1\n      dup2\n      mstore\n      0x20\n      add\n      0x00\n      keccak256\n      sload\n        /* \"contracts/CrowdfundingAssignmentUnic.sol\":4416:4455  return participation[_projectID][_user] */\n      swap1\n      pop\n        /* \"contracts/CrowdfundingAssignmentUnic.sol\":4017:4462  function retrieveContributions(uint256 _projectID, address _user) public view returns (uint) {... */\n      swap3\n      swap2\n      pop\n      pop\n      jump\t// out\n        /* \"contracts/CrowdfundingAssignmentUnic.sol\":2002:2511  function getProjectDetails(uint256 _projectID) public view returns (uint256, string memory, string memory, address, uint256, uint256) {... */\n    tag_36:\n        /* \"contracts/CrowdfundingAssignmentUnic.sol\":2070:2077  uint256 */\n      0x00\n        /* \"contracts/CrowdfundingAssignmentUnic.sol\":2079:2092  string memory */\n      0x60\n        /* \"contracts/CrowdfundingAssignmentUnic.sol\":2094:2107  string memory */\n      dup1\n        /* \"contracts/CrowdfundingAssignmentUnic.sol\":2109:2116  address */\n      0x00\n        /* \"contracts/CrowdfundingAssignmentUnic.sol\":2118:2125  uint256 */\n      dup1\n        /* \"contracts/CrowdfundingAssignmentUnic.sol\":2127:2134  uint256 */\n      0x00\n        /* \"contracts/CrowdfundingAssignmentUnic.sol\":2238:2239  0 */\n      dup1\n        /* \"contracts/CrowdfundingAssignmentUnic.sol\":2193:2240  projects[_projectID].projectOwner != address(0) */\n      0xffffffffffffffffffffffffffffffffffffffff\n      and\n        /* \"contracts/CrowdfundingAssignmentUnic.sol\":2193:2201  projects */\n      0x00\n        /* \"contracts/CrowdfundingAssignmentUnic.sol\":2193:2213  projects[_projectID] */\n      dup1\n        /* \"contracts/CrowdfundingAssignmentUnic.sol\":2202:2212  _projectID */\n      dup10\n        /* \"contracts/CrowdfundingAssignmentUnic.sol\":2193:2213  projects[_projectID] */\n      dup2\n      mstore\n      0x20\n      add\n      swap1\n      dup2\n      mstore\n      0x20\n      add\n      0x00\n      keccak256\n        /* \"contracts/CrowdfundingAssignmentUnic.sol\":2193:2226  projects[_projectID].projectOwner */\n      0x03\n      add\n      0x00\n      swap1\n      sload\n      swap1\n      0x0100\n      exp\n      swap1\n      div\n      0xffffffffffffffffffffffffffffffffffffffff\n      and\n        /* \"contracts/CrowdfundingAssignmentUnic.sol\":2193:2240  projects[_projectID].projectOwner != address(0) */\n      0xffffffffffffffffffffffffffffffffffffffff\n      and\n      sub\n        /* \"contracts/CrowdfundingAssignmentUnic.sol\":2185:2268  require(projects[_projectID].projectOwner != address(0), \"Project does not exist.\") */\n      tag_75\n      jumpi\n      mload(0x40)\n      0x08c379a000000000000000000000000000000000000000000000000000000000\n      dup2\n      mstore\n      0x04\n      add\n      tag_76\n      swap1\n      tag_77\n      jump\t// in\n    tag_76:\n      mload(0x40)\n      dup1\n      swap2\n      sub\n      swap1\n      revert\n    tag_75:\n        /* \"contracts/CrowdfundingAssignmentUnic.sol\":2279:2302  Project storage project */\n      0x00\n        /* \"contracts/CrowdfundingAssignmentUnic.sol\":2305:2313  projects */\n      dup1\n        /* \"contracts/CrowdfundingAssignmentUnic.sol\":2305:2325  projects[_projectID] */\n      0x00\n        /* \"contracts/CrowdfundingAssignmentUnic.sol\":2314:2324  _projectID */\n      dup10\n        /* \"contracts/CrowdfundingAssignmentUnic.sol\":2305:2325  projects[_projectID] */\n      dup2\n      mstore\n      0x20\n      add\n      swap1\n      dup2\n      mstore\n      0x20\n      add\n      0x00\n      keccak256\n        /* \"contracts/CrowdfundingAssignmentUnic.sol\":2279:2325  Project storage project = projects[_projectID] */\n      swap1\n      pop\n        /* \"contracts/CrowdfundingAssignmentUnic.sol\":2343:2350  project */\n      dup1\n        /* \"contracts/CrowdfundingAssignmentUnic.sol\":2343:2360  project.projectID */\n      0x00\n      add\n      sload\n        /* \"contracts/CrowdfundingAssignmentUnic.sol\":2362:2369  project */\n      dup2\n        /* \"contracts/CrowdfundingAssignmentUnic.sol\":2362:2382  project.projectTitle */\n      0x01\n      add\n        /* \"contracts/CrowdfundingAssignmentUnic.sol\":2384:2391  project */\n      dup3\n        /* \"contracts/CrowdfundingAssignmentUnic.sol\":2384:2410  project.projectDescription */\n      0x02\n      add\n        /* \"contracts/CrowdfundingAssignmentUnic.sol\":2412:2419  project */\n      dup4\n        /* \"contracts/CrowdfundingAssignmentUnic.sol\":2412:2432  project.projectOwner */\n      0x03\n      add\n      0x00\n      swap1\n      sload\n      swap1\n      0x0100\n      exp\n      swap1\n      div\n      0xffffffffffffffffffffffffffffffffffffffff\n      and\n        /* \"contracts/CrowdfundingAssignmentUnic.sol\":2434:2441  project */\n      dup5\n        /* \"contracts/CrowdfundingAssignmentUnic.sol\":2434:2468  project.projectParticipationAmount */\n      0x04\n      add\n      sload\n        /* \"contracts/CrowdfundingAssignmentUnic.sol\":2470:2477  project */\n      dup6\n        /* \"contracts/CrowdfundingAssignmentUnic.sol\":2470:2503  project.projectTotalFundingAmount */\n      0x05\n      add\n      sload\n        /* \"contracts/CrowdfundingAssignmentUnic.sol\":2335:2504  return (project.projectID, project.projectTitle, project.projectDescription, project.projectOwner, project.projectParticipationAmount, project.projectTotalFundingAmount) */\n      dup5\n      dup1\n      sload\n      tag_78\n      swap1\n      tag_79\n      jump\t// in\n    tag_78:\n      dup1\n      0x1f\n      add\n      0x20\n      dup1\n      swap2\n      div\n      mul\n      0x20\n      add\n      mload(0x40)\n      swap1\n      dup2\n      add\n      0x40\n      mstore\n      dup1\n      swap3\n      swap2\n      swap1\n      dup2\n      dup2\n      mstore\n      0x20\n      add\n      dup3\n      dup1\n      sload\n      tag_80\n      swap1\n      tag_79\n      jump\t// in\n    tag_80:\n      dup1\n      iszero\n      tag_81\n      jumpi\n      dup1\n      0x1f\n      lt\n      tag_82\n      jumpi\n      0x0100\n      dup1\n      dup4\n      sload\n      div\n      mul\n      dup4\n      mstore\n      swap2\n      0x20\n      add\n      swap2\n      jump(tag_81)\n    tag_82:\n      dup3\n      add\n      swap2\n      swap1\n      0x00\n      mstore\n      keccak256(0x00, 0x20)\n      swap1\n    tag_83:\n      dup2\n      sload\n      dup2\n      mstore\n      swap1\n      0x01\n      add\n      swap1\n      0x20\n      add\n      dup1\n      dup4\n      gt\n      tag_83\n      jumpi\n      dup3\n      swap1\n      sub\n      0x1f\n      and\n      dup3\n      add\n      swap2\n    tag_81:\n      pop\n      pop\n      pop\n      pop\n      pop\n      swap5\n      pop\n      dup4\n      dup1\n      sload\n      tag_84\n      swap1\n      tag_79\n      jump\t// in\n    tag_84:\n      dup1\n      0x1f\n      add\n      0x20\n      dup1\n      swap2\n      div\n      mul\n      0x20\n      add\n      mload(0x40)\n      swap1\n      dup2\n      add\n      0x40\n      mstore\n      dup1\n      swap3\n      swap2\n      swap1\n      dup2\n      dup2\n      mstore\n      0x20\n      add\n      dup3\n      dup1\n      sload\n      tag_85\n      swap1\n      tag_79\n      jump\t// in\n    tag_85:\n      dup1\n      iszero\n      tag_86\n      jumpi\n      dup1\n      0x1f\n      lt\n      tag_87\n      jumpi\n      0x0100\n      dup1\n      dup4\n      sload\n      div\n      mul\n      dup4\n      mstore\n      swap2\n      0x20\n      add\n      swap2\n      jump(tag_86)\n    tag_87:\n      dup3\n      add\n      swap2\n      swap1\n      0x00\n      mstore\n      keccak256(0x00, 0x20)\n      swap1\n    tag_88:\n      dup2\n      sload\n      dup2\n      mstore\n      swap1\n      0x01\n      add\n      swap1\n      0x20\n      add\n      dup1\n      dup4\n      gt\n      tag_88\n      jumpi\n      dup3\n      swap1\n      sub\n      0x1f\n      and\n      dup3\n      add\n      swap2\n    tag_86:\n      pop\n      pop\n      pop\n      pop\n      pop\n      swap4\n      pop\n      swap7\n      pop\n      swap7\n      pop\n      swap7\n      pop\n      swap7\n      pop\n      swap7\n      pop\n      swap7\n      pop\n      pop\n        /* \"contracts/CrowdfundingAssignmentUnic.sol\":2002:2511  function getProjectDetails(uint256 _projectID) public view returns (uint256, string memory, string memory, address, uint256, uint256) {... */\n      swap2\n      swap4\n      swap6\n      pop\n      swap2\n      swap4\n      swap6\n      jump\t// out\n        /* \"contracts/CrowdfundingAssignmentUnic.sol\":2807:3738  function participateToProject(uint256 _projectID) public payable {... */\n    tag_41:\n        /* \"contracts/CrowdfundingAssignmentUnic.sol\":2975:2976  0 */\n      0x00\n        /* \"contracts/CrowdfundingAssignmentUnic.sol\":2930:2977  projects[_projectID].projectOwner != address(0) */\n      0xffffffffffffffffffffffffffffffffffffffff\n      and\n        /* \"contracts/CrowdfundingAssignmentUnic.sol\":2930:2938  projects */\n      0x00\n        /* \"contracts/CrowdfundingAssignmentUnic.sol\":2930:2950  projects[_projectID] */\n      dup1\n        /* \"contracts/CrowdfundingAssignmentUnic.sol\":2939:2949  _projectID */\n      dup4\n        /* \"contracts/CrowdfundingAssignmentUnic.sol\":2930:2950  projects[_projectID] */\n      dup2\n      mstore\n      0x20\n      add\n      swap1\n      dup2\n      mstore\n      0x20\n      add\n      0x00\n      keccak256\n        /* \"contracts/CrowdfundingAssignmentUnic.sol\":2930:2963  projects[_projectID].projectOwner */\n      0x03\n      add\n      0x00\n      swap1\n      sload\n      swap1\n      0x0100\n      exp\n      swap1\n      div\n      0xffffffffffffffffffffffffffffffffffffffff\n      and\n        /* \"contracts/CrowdfundingAssignmentUnic.sol\":2930:2977  projects[_projectID].projectOwner != address(0) */\n      0xffffffffffffffffffffffffffffffffffffffff\n      and\n      sub\n        /* \"contracts/CrowdfundingAssignmentUnic.sol\":2922:3005  require(projects[_projectID].projectOwner != address(0), \"Project does not exist.\") */\n      tag_90\n      jumpi\n      mload(0x40)\n      0x08c379a000000000000000000000000000000000000000000000000000000000\n      dup2\n      mstore\n      0x04\n      add\n      tag_91\n      swap1\n      tag_77\n      jump\t// in\n    tag_91:\n      mload(0x40)\n      dup1\n      swap2\n      sub\n      swap1\n      revert\n    tag_90:\n        /* \"contracts/CrowdfundingAssignmentUnic.sol\":3016:3041  uint _participationAmount */\n      0x00\n        /* \"contracts/CrowdfundingAssignmentUnic.sol\":3044:3053  msg.value */\n      callvalue\n        /* \"contracts/CrowdfundingAssignmentUnic.sol\":3016:3053  uint _participationAmount = msg.value */\n      swap1\n      pop\n        /* \"contracts/CrowdfundingAssignmentUnic.sol\":3212:3235  Project storage project */\n      0x00\n        /* \"contracts/CrowdfundingAssignmentUnic.sol\":3238:3246  projects */\n      dup1\n        /* \"contracts/CrowdfundingAssignmentUnic.sol\":3238:3258  projects[_projectID] */\n      0x00\n        /* \"contracts/CrowdfundingAssignmentUnic.sol\":3247:3257  _projectID */\n      dup5\n        /* \"contracts/CrowdfundingAssignmentUnic.sol\":3238:3258  projects[_projectID] */\n      dup2\n      mstore\n      0x20\n      add\n      swap1\n      dup2\n      mstore\n      0x20\n      add\n      0x00\n      keccak256\n        /* \"contracts/CrowdfundingAssignmentUnic.sol\":3212:3258  Project storage project = projects[_projectID] */\n      swap1\n      pop\n        /* \"contracts/CrowdfundingAssignmentUnic.sol\":3454:3461  project */\n      dup1\n        /* \"contracts/CrowdfundingAssignmentUnic.sol\":3454:3488  project.projectParticipationAmount */\n      0x04\n      add\n      sload\n        /* \"contracts/CrowdfundingAssignmentUnic.sol\":3430:3450  _participationAmount */\n      dup3\n        /* \"contracts/CrowdfundingAssignmentUnic.sol\":3430:3488  _participationAmount == project.projectParticipationAmount */\n      eq\n        /* \"contracts/CrowdfundingAssignmentUnic.sol\":3422:3529  require(_participationAmount == project.projectParticipationAmount, \"Participation amount is not correct.\") */\n      tag_92\n      jumpi\n      mload(0x40)\n      0x08c379a000000000000000000000000000000000000000000000000000000000\n      dup2\n      mstore\n      0x04\n      add\n      tag_93\n      swap1\n      tag_94\n      jump\t// in\n    tag_93:\n      mload(0x40)\n      dup1\n      swap2\n      sub\n      swap1\n      revert\n    tag_92:\n        /* \"contracts/CrowdfundingAssignmentUnic.sol\":3577:3597  _participationAmount */\n      dup2\n        /* \"contracts/CrowdfundingAssignmentUnic.sol\":3540:3547  project */\n      dup2\n        /* \"contracts/CrowdfundingAssignmentUnic.sol\":3540:3573  project.projectTotalFundingAmount */\n      0x05\n      add\n      0x00\n        /* \"contracts/CrowdfundingAssignmentUnic.sol\":3540:3597  project.projectTotalFundingAmount += _participationAmount */\n      dup3\n      dup3\n      sload\n      tag_95\n      swap2\n      swap1\n      tag_96\n      jump\t// in\n    tag_95:\n      swap3\n      pop\n      pop\n      dup2\n      swap1\n      sstore\n      pop\n        /* \"contracts/CrowdfundingAssignmentUnic.sol\":3648:3668  _participationAmount */\n      dup2\n        /* \"contracts/CrowdfundingAssignmentUnic.sol\":3607:3620  participation */\n      0x01\n        /* \"contracts/CrowdfundingAssignmentUnic.sol\":3607:3632  participation[_projectID] */\n      0x00\n        /* \"contracts/CrowdfundingAssignmentUnic.sol\":3621:3631  _projectID */\n      dup6\n        /* \"contracts/CrowdfundingAssignmentUnic.sol\":3607:3632  participation[_projectID] */\n      dup2\n      mstore\n      0x20\n      add\n      swap1\n      dup2\n      mstore\n      0x20\n      add\n      0x00\n      keccak256\n        /* \"contracts/CrowdfundingAssignmentUnic.sol\":3607:3644  participation[_projectID][msg.sender] */\n      0x00\n        /* \"contracts/CrowdfundingAssignmentUnic.sol\":3633:3643  msg.sender */\n      caller\n        /* \"contracts/CrowdfundingAssignmentUnic.sol\":3607:3644  participation[_projectID][msg.sender] */\n      0xffffffffffffffffffffffffffffffffffffffff\n      and\n      0xffffffffffffffffffffffffffffffffffffffff\n      and\n      dup2\n      mstore\n      0x20\n      add\n      swap1\n      dup2\n      mstore\n      0x20\n      add\n      0x00\n      keccak256\n      0x00\n        /* \"contracts/CrowdfundingAssignmentUnic.sol\":3607:3668  participation[_projectID][msg.sender] += _participationAmount */\n      dup3\n      dup3\n      sload\n      tag_97\n      swap2\n      swap1\n      tag_96\n      jump\t// in\n    tag_97:\n      swap3\n      pop\n      pop\n      dup2\n      swap1\n      sstore\n      pop\n        /* \"contracts/CrowdfundingAssignmentUnic.sol\":3694:3698  this */\n      address\n        /* \"contracts/CrowdfundingAssignmentUnic.sol\":3678:3709  payable(address(this)).transfer */\n      0xffffffffffffffffffffffffffffffffffffffff\n      and\n        /* \"contracts/CrowdfundingAssignmentUnic.sol\":3678:3731  payable(address(this)).transfer(_participationAmount) */\n      0x08fc\n        /* \"contracts/CrowdfundingAssignmentUnic.sol\":3710:3730  _participationAmount */\n      dup4\n        /* \"contracts/CrowdfundingAssignmentUnic.sol\":3678:3731  payable(address(this)).transfer(_participationAmount) */\n      swap1\n      dup2\n      iszero\n      mul\n      swap1\n      mload(0x40)\n      0x00\n      mload(0x40)\n      dup1\n      dup4\n      sub\n      dup2\n      dup6\n      dup9\n      dup9\n      call\n      swap4\n      pop\n      pop\n      pop\n      pop\n      iszero\n      dup1\n      iszero\n      tag_99\n      jumpi\n      returndatasize\n      0x00\n      dup1\n      returndatacopy\n      revert(0x00, returndatasize)\n    tag_99:\n      pop\n        /* \"contracts/CrowdfundingAssignmentUnic.sol\":2872:3738  {... */\n      pop\n      pop\n        /* \"contracts/CrowdfundingAssignmentUnic.sol\":2807:3738  function participateToProject(uint256 _projectID) public payable {... */\n      pop\n      jump\t// out\n        /* \"#utility.yul\":7:84   */\n    tag_100:\n        /* \"#utility.yul\":44:51   */\n      0x00\n        /* \"#utility.yul\":73:78   */\n      dup2\n        /* \"#utility.yul\":62:78   */\n      swap1\n      pop\n        /* \"#utility.yul\":7:84   */\n      swap2\n      swap1\n      pop\n      jump\t// out\n        /* \"#utility.yul\":90:208   */\n    tag_101:\n        /* \"#utility.yul\":177:201   */\n      tag_164\n        /* \"#utility.yul\":195:200   */\n      dup2\n        /* \"#utility.yul\":177:201   */\n      tag_100\n      jump\t// in\n    tag_164:\n        /* \"#utility.yul\":172:175   */\n      dup3\n        /* \"#utility.yul\":165:202   */\n      mstore\n        /* \"#utility.yul\":90:208   */\n      pop\n      pop\n      jump\t// out\n        /* \"#utility.yul\":214:436   */\n    tag_17:\n        /* \"#utility.yul\":307:311   */\n      0x00\n        /* \"#utility.yul\":345:347   */\n      0x20\n        /* \"#utility.yul\":334:343   */\n      dup3\n        /* \"#utility.yul\":330:348   */\n      add\n        /* \"#utility.yul\":322:348   */\n      swap1\n      pop\n        /* \"#utility.yul\":358:429   */\n      tag_166\n        /* \"#utility.yul\":426:427   */\n      0x00\n        /* \"#utility.yul\":415:424   */\n      dup4\n        /* \"#utility.yul\":411:428   */\n      add\n        /* \"#utility.yul\":402:408   */\n      dup5\n        /* \"#utility.yul\":358:429   */\n      tag_101\n      jump\t// in\n    tag_166:\n        /* \"#utility.yul\":214:436   */\n      swap3\n      swap2\n      pop\n      pop\n      jump\t// out\n        /* \"#utility.yul\":442:517   */\n    tag_102:\n        /* \"#utility.yul\":475:481   */\n      0x00\n        /* \"#utility.yul\":508:510   */\n      0x40\n        /* \"#utility.yul\":502:511   */\n      mload\n        /* \"#utility.yul\":492:511   */\n      swap1\n      pop\n        /* \"#utility.yul\":442:517   */\n      swap1\n      jump\t// out\n        /* \"#utility.yul\":523:640   */\n    tag_103:\n        /* \"#utility.yul\":632:633   */\n      0x00\n        /* \"#utility.yul\":629:630   */\n      dup1\n        /* \"#utility.yul\":622:634   */\n      revert\n        /* \"#utility.yul\":646:763   */\n    tag_104:\n        /* \"#utility.yul\":755:756   */\n      0x00\n        /* \"#utility.yul\":752:753   */\n      dup1\n        /* \"#utility.yul\":745:757   */\n      revert\n        /* \"#utility.yul\":769:891   */\n    tag_105:\n        /* \"#utility.yul\":842:866   */\n      tag_171\n        /* \"#utility.yul\":860:865   */\n      dup2\n        /* \"#utility.yul\":842:866   */\n      tag_100\n      jump\t// in\n    tag_171:\n        /* \"#utility.yul\":835:840   */\n      dup2\n        /* \"#utility.yul\":832:867   */\n      eq\n        /* \"#utility.yul\":822:885   */\n      tag_172\n      jumpi\n        /* \"#utility.yul\":881:882   */\n      0x00\n        /* \"#utility.yul\":878:879   */\n      dup1\n        /* \"#utility.yul\":871:883   */\n      revert\n        /* \"#utility.yul\":822:885   */\n    tag_172:\n        /* \"#utility.yul\":769:891   */\n      pop\n      jump\t// out\n        /* \"#utility.yul\":897:1036   */\n    tag_106:\n        /* \"#utility.yul\":943:948   */\n      0x00\n        /* \"#utility.yul\":981:987   */\n      dup2\n        /* \"#utility.yul\":968:988   */\n      calldataload\n        /* \"#utility.yul\":959:988   */\n      swap1\n      pop\n        /* \"#utility.yul\":997:1030   */\n      tag_174\n        /* \"#utility.yul\":1024:1029   */\n      dup2\n        /* \"#utility.yul\":997:1030   */\n      tag_105\n      jump\t// in\n    tag_174:\n        /* \"#utility.yul\":897:1036   */\n      swap3\n      swap2\n      pop\n      pop\n      jump\t// out\n        /* \"#utility.yul\":1042:1371   */\n    tag_20:\n        /* \"#utility.yul\":1101:1107   */\n      0x00\n        /* \"#utility.yul\":1150:1152   */\n      0x20\n        /* \"#utility.yul\":1138:1147   */\n      dup3\n        /* \"#utility.yul\":1129:1136   */\n      dup5\n        /* \"#utility.yul\":1125:1148   */\n      sub\n        /* \"#utility.yul\":1121:1153   */\n      slt\n        /* \"#utility.yul\":1118:1237   */\n      iszero\n      tag_176\n      jumpi\n        /* \"#utility.yul\":1156:1235   */\n      tag_177\n      tag_103\n      jump\t// in\n    tag_177:\n        /* \"#utility.yul\":1118:1237   */\n    tag_176:\n        /* \"#utility.yul\":1276:1277   */\n      0x00\n        /* \"#utility.yul\":1301:1354   */\n      tag_178\n        /* \"#utility.yul\":1346:1353   */\n      dup5\n        /* \"#utility.yul\":1337:1343   */\n      dup3\n        /* \"#utility.yul\":1326:1335   */\n      dup6\n        /* \"#utility.yul\":1322:1344   */\n      add\n        /* \"#utility.yul\":1301:1354   */\n      tag_106\n      jump\t// in\n    tag_178:\n        /* \"#utility.yul\":1291:1354   */\n      swap2\n      pop\n        /* \"#utility.yul\":1247:1364   */\n      pop\n        /* \"#utility.yul\":1042:1371   */\n      swap3\n      swap2\n      pop\n      pop\n      jump\t// out\n        /* \"#utility.yul\":1377:1494   */\n    tag_107:\n        /* \"#utility.yul\":1486:1487   */\n      0x00\n        /* \"#utility.yul\":1483:1484   */\n      dup1\n        /* \"#utility.yul\":1476:1488   */\n      revert\n        /* \"#utility.yul\":1500:1617   */\n    tag_108:\n        /* \"#utility.yul\":1609:1610   */\n      0x00\n        /* \"#utility.yul\":1606:1607   */\n      dup1\n        /* \"#utility.yul\":1599:1611   */\n      revert\n        /* \"#utility.yul\":1623:1725   */\n    tag_109:\n        /* \"#utility.yul\":1664:1670   */\n      0x00\n        /* \"#utility.yul\":1715:1717   */\n      0x1f\n        /* \"#utility.yul\":1711:1718   */\n      not\n        /* \"#utility.yul\":1706:1708   */\n      0x1f\n        /* \"#utility.yul\":1699:1704   */\n      dup4\n        /* \"#utility.yul\":1695:1709   */\n      add\n        /* \"#utility.yul\":1691:1719   */\n      and\n        /* \"#utility.yul\":1681:1719   */\n      swap1\n      pop\n        /* \"#utility.yul\":1623:1725   */\n      swap2\n      swap1\n      pop\n      jump\t// out\n        /* \"#utility.yul\":1731:1911   */\n    tag_110:\n        /* \"#utility.yul\":1779:1856   */\n      0x4e487b7100000000000000000000000000000000000000000000000000000000\n        /* \"#utility.yul\":1776:1777   */\n      0x00\n        /* \"#utility.yul\":1769:1857   */\n      mstore\n        /* \"#utility.yul\":1876:1880   */\n      0x41\n        /* \"#utility.yul\":1873:1874   */\n      0x04\n        /* \"#utility.yul\":1866:1881   */\n      mstore\n        /* \"#utility.yul\":1900:1904   */\n      0x24\n        /* \"#utility.yul\":1897:1898   */\n      0x00\n        /* \"#utility.yul\":1890:1905   */\n      revert\n        /* \"#utility.yul\":1917:2198   */\n    tag_111:\n        /* \"#utility.yul\":2000:2027   */\n      tag_184\n        /* \"#utility.yul\":2022:2026   */\n      dup3\n        /* \"#utility.yul\":2000:2027   */\n      tag_109\n      jump\t// in\n    tag_184:\n        /* \"#utility.yul\":1992:1998   */\n      dup2\n        /* \"#utility.yul\":1988:2028   */\n      add\n        /* \"#utility.yul\":2130:2136   */\n      dup2\n        /* \"#utility.yul\":2118:2128   */\n      dup2\n        /* \"#utility.yul\":2115:2137   */\n      lt\n        /* \"#utility.yul\":2094:2112   */\n      0xffffffffffffffff\n        /* \"#utility.yul\":2082:2092   */\n      dup3\n        /* \"#utility.yul\":2079:2113   */\n      gt\n        /* \"#utility.yul\":2076:2138   */\n      or\n        /* \"#utility.yul\":2073:2161   */\n      iszero\n      tag_185\n      jumpi\n        /* \"#utility.yul\":2141:2159   */\n      tag_186\n      tag_110\n      jump\t// in\n    tag_186:\n        /* \"#utility.yul\":2073:2161   */\n    tag_185:\n        /* \"#utility.yul\":2181:2191   */\n      dup1\n        /* \"#utility.yul\":2177:2179   */\n      0x40\n        /* \"#utility.yul\":2170:2192   */\n      mstore\n        /* \"#utility.yul\":1960:2198   */\n      pop\n        /* \"#utility.yul\":1917:2198   */\n      pop\n      pop\n      jump\t// out\n        /* \"#utility.yul\":2204:2333   */\n    tag_112:\n        /* \"#utility.yul\":2238:2244   */\n      0x00\n        /* \"#utility.yul\":2265:2285   */\n      tag_188\n      tag_102\n      jump\t// in\n    tag_188:\n        /* \"#utility.yul\":2255:2285   */\n      swap1\n      pop\n        /* \"#utility.yul\":2294:2327   */\n      tag_189\n        /* \"#utility.yul\":2322:2326   */\n      dup3\n        /* \"#utility.yul\":2314:2320   */\n      dup3\n        /* \"#utility.yul\":2294:2327   */\n      tag_111\n      jump\t// in\n    tag_189:\n        /* \"#utility.yul\":2204:2333   */\n      swap2\n      swap1\n      pop\n      jump\t// out\n        /* \"#utility.yul\":2339:2647   */\n    tag_113:\n        /* \"#utility.yul\":2401:2405   */\n      0x00\n        /* \"#utility.yul\":2491:2509   */\n      0xffffffffffffffff\n        /* \"#utility.yul\":2483:2489   */\n      dup3\n        /* \"#utility.yul\":2480:2510   */\n      gt\n        /* \"#utility.yul\":2477:2533   */\n      iszero\n      tag_191\n      jumpi\n        /* \"#utility.yul\":2513:2531   */\n      tag_192\n      tag_110\n      jump\t// in\n    tag_192:\n        /* \"#utility.yul\":2477:2533   */\n    tag_191:\n        /* \"#utility.yul\":2551:2580   */\n      tag_193\n        /* \"#utility.yul\":2573:2579   */\n      dup3\n        /* \"#utility.yul\":2551:2580   */\n      tag_109\n      jump\t// in\n    tag_193:\n        /* \"#utility.yul\":2543:2580   */\n      swap1\n      pop\n        /* \"#utility.yul\":2635:2639   */\n      0x20\n        /* \"#utility.yul\":2629:2633   */\n      dup2\n        /* \"#utility.yul\":2625:2640   */\n      add\n        /* \"#utility.yul\":2617:2640   */\n      swap1\n      pop\n        /* \"#utility.yul\":2339:2647   */\n      swap2\n      swap1\n      pop\n      jump\t// out\n        /* \"#utility.yul\":2653:2799   */\n    tag_114:\n        /* \"#utility.yul\":2750:2756   */\n      dup3\n        /* \"#utility.yul\":2745:2748   */\n      dup2\n        /* \"#utility.yul\":2740:2743   */\n      dup4\n        /* \"#utility.yul\":2727:2757   */\n      calldatacopy\n        /* \"#utility.yul\":2791:2792   */\n      0x00\n        /* \"#utility.yul\":2782:2788   */\n      dup4\n        /* \"#utility.yul\":2777:2780   */\n      dup4\n        /* \"#utility.yul\":2773:2789   */\n      add\n        /* \"#utility.yul\":2766:2793   */\n      mstore\n        /* \"#utility.yul\":2653:2799   */\n      pop\n      pop\n      pop\n      jump\t// out\n        /* \"#utility.yul\":2805:3230   */\n    tag_115:\n        /* \"#utility.yul\":2883:2888   */\n      0x00\n        /* \"#utility.yul\":2908:2974   */\n      tag_196\n        /* \"#utility.yul\":2924:2973   */\n      tag_197\n        /* \"#utility.yul\":2966:2972   */\n      dup5\n        /* \"#utility.yul\":2924:2973   */\n      tag_113\n      jump\t// in\n    tag_197:\n        /* \"#utility.yul\":2908:2974   */\n      tag_112\n      jump\t// in\n    tag_196:\n        /* \"#utility.yul\":2899:2974   */\n      swap1\n      pop\n        /* \"#utility.yul\":2997:3003   */\n      dup3\n        /* \"#utility.yul\":2990:2995   */\n      dup2\n        /* \"#utility.yul\":2983:3004   */\n      mstore\n        /* \"#utility.yul\":3035:3039   */\n      0x20\n        /* \"#utility.yul\":3028:3033   */\n      dup2\n        /* \"#utility.yul\":3024:3040   */\n      add\n        /* \"#utility.yul\":3073:3076   */\n      dup5\n        /* \"#utility.yul\":3064:3070   */\n      dup5\n        /* \"#utility.yul\":3059:3062   */\n      dup5\n        /* \"#utility.yul\":3055:3071   */\n      add\n        /* \"#utility.yul\":3052:3077   */\n      gt\n        /* \"#utility.yul\":3049:3161   */\n      iszero\n      tag_198\n      jumpi\n        /* \"#utility.yul\":3080:3159   */\n      tag_199\n      tag_108\n      jump\t// in\n    tag_199:\n        /* \"#utility.yul\":3049:3161   */\n    tag_198:\n        /* \"#utility.yul\":3170:3224   */\n      tag_200\n        /* \"#utility.yul\":3217:3223   */\n      dup5\n        /* \"#utility.yul\":3212:3215   */\n      dup3\n        /* \"#utility.yul\":3207:3210   */\n      dup6\n        /* \"#utility.yul\":3170:3224   */\n      tag_114\n      jump\t// in\n    tag_200:\n        /* \"#utility.yul\":2889:3230   */\n      pop\n        /* \"#utility.yul\":2805:3230   */\n      swap4\n      swap3\n      pop\n      pop\n      pop\n      jump\t// out\n        /* \"#utility.yul\":3250:3590   */\n    tag_116:\n        /* \"#utility.yul\":3306:3311   */\n      0x00\n        /* \"#utility.yul\":3355:3358   */\n      dup3\n        /* \"#utility.yul\":3348:3352   */\n      0x1f\n        /* \"#utility.yul\":3340:3346   */\n      dup4\n        /* \"#utility.yul\":3336:3353   */\n      add\n        /* \"#utility.yul\":3332:3359   */\n      slt\n        /* \"#utility.yul\":3322:3444   */\n      tag_202\n      jumpi\n        /* \"#utility.yul\":3363:3442   */\n      tag_203\n      tag_107\n      jump\t// in\n    tag_203:\n        /* \"#utility.yul\":3322:3444   */\n    tag_202:\n        /* \"#utility.yul\":3480:3486   */\n      dup2\n        /* \"#utility.yul\":3467:3487   */\n      calldataload\n        /* \"#utility.yul\":3505:3584   */\n      tag_204\n        /* \"#utility.yul\":3580:3583   */\n      dup5\n        /* \"#utility.yul\":3572:3578   */\n      dup3\n        /* \"#utility.yul\":3565:3569   */\n      0x20\n        /* \"#utility.yul\":3557:3563   */\n      dup7\n        /* \"#utility.yul\":3553:3570   */\n      add\n        /* \"#utility.yul\":3505:3584   */\n      tag_115\n      jump\t// in\n    tag_204:\n        /* \"#utility.yul\":3496:3584   */\n      swap2\n      pop\n        /* \"#utility.yul\":3312:3590   */\n      pop\n        /* \"#utility.yul\":3250:3590   */\n      swap3\n      swap2\n      pop\n      pop\n      jump\t// out\n        /* \"#utility.yul\":3596:4575   */\n    tag_25:\n        /* \"#utility.yul\":3693:3699   */\n      0x00\n        /* \"#utility.yul\":3701:3707   */\n      dup1\n        /* \"#utility.yul\":3709:3715   */\n      0x00\n        /* \"#utility.yul\":3758:3760   */\n      0x60\n        /* \"#utility.yul\":3746:3755   */\n      dup5\n        /* \"#utility.yul\":3737:3744   */\n      dup7\n        /* \"#utility.yul\":3733:3756   */\n      sub\n        /* \"#utility.yul\":3729:3761   */\n      slt\n        /* \"#utility.yul\":3726:3845   */\n      iszero\n      tag_206\n      jumpi\n        /* \"#utility.yul\":3764:3843   */\n      tag_207\n      tag_103\n      jump\t// in\n    tag_207:\n        /* \"#utility.yul\":3726:3845   */\n    tag_206:\n        /* \"#utility.yul\":3912:3913   */\n      0x00\n        /* \"#utility.yul\":3901:3910   */\n      dup5\n        /* \"#utility.yul\":3897:3914   */\n      add\n        /* \"#utility.yul\":3884:3915   */\n      calldataload\n        /* \"#utility.yul\":3942:3960   */\n      0xffffffffffffffff\n        /* \"#utility.yul\":3934:3940   */\n      dup2\n        /* \"#utility.yul\":3931:3961   */\n      gt\n        /* \"#utility.yul\":3928:4045   */\n      iszero\n      tag_208\n      jumpi\n        /* \"#utility.yul\":3964:4043   */\n      tag_209\n      tag_104\n      jump\t// in\n    tag_209:\n        /* \"#utility.yul\":3928:4045   */\n    tag_208:\n        /* \"#utility.yul\":4069:4132   */\n      tag_210\n        /* \"#utility.yul\":4124:4131   */\n      dup7\n        /* \"#utility.yul\":4115:4121   */\n      dup3\n        /* \"#utility.yul\":4104:4113   */\n      dup8\n        /* \"#utility.yul\":4100:4122   */\n      add\n        /* \"#utility.yul\":4069:4132   */\n      tag_116\n      jump\t// in\n    tag_210:\n        /* \"#utility.yul\":4059:4132   */\n      swap4\n      pop\n        /* \"#utility.yul\":3855:4142   */\n      pop\n        /* \"#utility.yul\":4209:4211   */\n      0x20\n        /* \"#utility.yul\":4198:4207   */\n      dup5\n        /* \"#utility.yul\":4194:4212   */\n      add\n        /* \"#utility.yul\":4181:4213   */\n      calldataload\n        /* \"#utility.yul\":4240:4258   */\n      0xffffffffffffffff\n        /* \"#utility.yul\":4232:4238   */\n      dup2\n        /* \"#utility.yul\":4229:4259   */\n      gt\n        /* \"#utility.yul\":4226:4343   */\n      iszero\n      tag_211\n      jumpi\n        /* \"#utility.yul\":4262:4341   */\n      tag_212\n      tag_104\n      jump\t// in\n    tag_212:\n        /* \"#utility.yul\":4226:4343   */\n    tag_211:\n        /* \"#utility.yul\":4367:4430   */\n      tag_213\n        /* \"#utility.yul\":4422:4429   */\n      dup7\n        /* \"#utility.yul\":4413:4419   */\n      dup3\n        /* \"#utility.yul\":4402:4411   */\n      dup8\n        /* \"#utility.yul\":4398:4420   */\n      add\n        /* \"#utility.yul\":4367:4430   */\n      tag_116\n      jump\t// in\n    tag_213:\n        /* \"#utility.yul\":4357:4430   */\n      swap3\n      pop\n        /* \"#utility.yul\":4152:4440   */\n      pop\n        /* \"#utility.yul\":4479:4481   */\n      0x40\n        /* \"#utility.yul\":4505:4558   */\n      tag_214\n        /* \"#utility.yul\":4550:4557   */\n      dup7\n        /* \"#utility.yul\":4541:4547   */\n      dup3\n        /* \"#utility.yul\":4530:4539   */\n      dup8\n        /* \"#utility.yul\":4526:4548   */\n      add\n        /* \"#utility.yul\":4505:4558   */\n      tag_106\n      jump\t// in\n    tag_214:\n        /* \"#utility.yul\":4495:4558   */\n      swap2\n      pop\n        /* \"#utility.yul\":4450:4568   */\n      pop\n        /* \"#utility.yul\":3596:4575   */\n      swap3\n      pop\n      swap3\n      pop\n      swap3\n      jump\t// out\n        /* \"#utility.yul\":4581:4707   */\n    tag_117:\n        /* \"#utility.yul\":4618:4625   */\n      0x00\n        /* \"#utility.yul\":4658:4700   */\n      0xffffffffffffffffffffffffffffffffffffffff\n        /* \"#utility.yul\":4651:4656   */\n      dup3\n        /* \"#utility.yul\":4647:4701   */\n      and\n        /* \"#utility.yul\":4636:4701   */\n      swap1\n      pop\n        /* \"#utility.yul\":4581:4707   */\n      swap2\n      swap1\n      pop\n      jump\t// out\n        /* \"#utility.yul\":4713:4809   */\n    tag_118:\n        /* \"#utility.yul\":4750:4757   */\n      0x00\n        /* \"#utility.yul\":4779:4803   */\n      tag_217\n        /* \"#utility.yul\":4797:4802   */\n      dup3\n        /* \"#utility.yul\":4779:4803   */\n      tag_117\n      jump\t// in\n    tag_217:\n        /* \"#utility.yul\":4768:4803   */\n      swap1\n      pop\n        /* \"#utility.yul\":4713:4809   */\n      swap2\n      swap1\n      pop\n      jump\t// out\n        /* \"#utility.yul\":4815:4937   */\n    tag_119:\n        /* \"#utility.yul\":4888:4912   */\n      tag_219\n        /* \"#utility.yul\":4906:4911   */\n      dup2\n        /* \"#utility.yul\":4888:4912   */\n      tag_118\n      jump\t// in\n    tag_219:\n        /* \"#utility.yul\":4881:4886   */\n      dup2\n        /* \"#utility.yul\":4878:4913   */\n      eq\n        /* \"#utility.yul\":4868:4931   */\n      tag_220\n      jumpi\n        /* \"#utility.yul\":4927:4928   */\n      0x00\n        /* \"#utility.yul\":4924:4925   */\n      dup1\n        /* \"#utility.yul\":4917:4929   */\n      revert\n        /* \"#utility.yul\":4868:4931   */\n    tag_220:\n        /* \"#utility.yul\":4815:4937   */\n      pop\n      jump\t// out\n        /* \"#utility.yul\":4943:5082   */\n    tag_120:\n        /* \"#utility.yul\":4989:4994   */\n      0x00\n        /* \"#utility.yul\":5027:5033   */\n      dup2\n        /* \"#utility.yul\":5014:5034   */\n      calldataload\n        /* \"#utility.yul\":5005:5034   */\n      swap1\n      pop\n        /* \"#utility.yul\":5043:5076   */\n      tag_222\n        /* \"#utility.yul\":5070:5075   */\n      dup2\n        /* \"#utility.yul\":5043:5076   */\n      tag_119\n      jump\t// in\n    tag_222:\n        /* \"#utility.yul\":4943:5082   */\n      swap3\n      swap2\n      pop\n      pop\n      jump\t// out\n        /* \"#utility.yul\":5088:5562   */\n    tag_30:\n        /* \"#utility.yul\":5156:5162   */\n      0x00\n        /* \"#utility.yul\":5164:5170   */\n      dup1\n        /* \"#utility.yul\":5213:5215   */\n      0x40\n        /* \"#utility.yul\":5201:5210   */\n      dup4\n        /* \"#utility.yul\":5192:5199   */\n      dup6\n        /* \"#utility.yul\":5188:5211   */\n      sub\n        /* \"#utility.yul\":5184:5216   */\n      slt\n        /* \"#utility.yul\":5181:5300   */\n      iszero\n      tag_224\n      jumpi\n        /* \"#utility.yul\":5219:5298   */\n      tag_225\n      tag_103\n      jump\t// in\n    tag_225:\n        /* \"#utility.yul\":5181:5300   */\n    tag_224:\n        /* \"#utility.yul\":5339:5340   */\n      0x00\n        /* \"#utility.yul\":5364:5417   */\n      tag_226\n        /* \"#utility.yul\":5409:5416   */\n      dup6\n        /* \"#utility.yul\":5400:5406   */\n      dup3\n        /* \"#utility.yul\":5389:5398   */\n      dup7\n        /* \"#utility.yul\":5385:5407   */\n      add\n        /* \"#utility.yul\":5364:5417   */\n      tag_106\n      jump\t// in\n    tag_226:\n        /* \"#utility.yul\":5354:5417   */\n      swap3\n      pop\n        /* \"#utility.yul\":5310:5427   */\n      pop\n        /* \"#utility.yul\":5466:5468   */\n      0x20\n        /* \"#utility.yul\":5492:5545   */\n      tag_227\n        /* \"#utility.yul\":5537:5544   */\n      dup6\n        /* \"#utility.yul\":5528:5534   */\n      dup3\n        /* \"#utility.yul\":5517:5526   */\n      dup7\n        /* \"#utility.yul\":5513:5535   */\n      add\n        /* \"#utility.yul\":5492:5545   */\n      tag_120\n      jump\t// in\n    tag_227:\n        /* \"#utility.yul\":5482:5545   */\n      swap2\n      pop\n        /* \"#utility.yul\":5437:5555   */\n      pop\n        /* \"#utility.yul\":5088:5562   */\n      swap3\n      pop\n      swap3\n      swap1\n      pop\n      jump\t// out\n        /* \"#utility.yul\":5568:5667   */\n    tag_121:\n        /* \"#utility.yul\":5620:5626   */\n      0x00\n        /* \"#utility.yul\":5654:5659   */\n      dup2\n        /* \"#utility.yul\":5648:5660   */\n      mload\n        /* \"#utility.yul\":5638:5660   */\n      swap1\n      pop\n        /* \"#utility.yul\":5568:5667   */\n      swap2\n      swap1\n      pop\n      jump\t// out\n        /* \"#utility.yul\":5673:5842   */\n    tag_122:\n        /* \"#utility.yul\":5757:5768   */\n      0x00\n        /* \"#utility.yul\":5791:5797   */\n      dup3\n        /* \"#utility.yul\":5786:5789   */\n      dup3\n        /* \"#utility.yul\":5779:5798   */\n      mstore\n        /* \"#utility.yul\":5831:5835   */\n      0x20\n        /* \"#utility.yul\":5826:5829   */\n      dup3\n        /* \"#utility.yul\":5822:5836   */\n      add\n        /* \"#utility.yul\":5807:5836   */\n      swap1\n      pop\n        /* \"#utility.yul\":5673:5842   */\n      swap3\n      swap2\n      pop\n      pop\n      jump\t// out\n        /* \"#utility.yul\":5848:6094   */\n    tag_123:\n        /* \"#utility.yul\":5929:5930   */\n      0x00\n        /* \"#utility.yul\":5939:6052   */\n    tag_231:\n        /* \"#utility.yul\":5953:5959   */\n      dup4\n        /* \"#utility.yul\":5950:5951   */\n      dup2\n        /* \"#utility.yul\":5947:5960   */\n      lt\n        /* \"#utility.yul\":5939:6052   */\n      iszero\n      tag_233\n      jumpi\n        /* \"#utility.yul\":6038:6039   */\n      dup1\n        /* \"#utility.yul\":6033:6036   */\n      dup3\n        /* \"#utility.yul\":6029:6040   */\n      add\n        /* \"#utility.yul\":6023:6041   */\n      mload\n        /* \"#utility.yul\":6019:6020   */\n      dup2\n        /* \"#utility.yul\":6014:6017   */\n      dup5\n        /* \"#utility.yul\":6010:6021   */\n      add\n        /* \"#utility.yul\":6003:6042   */\n      mstore\n        /* \"#utility.yul\":5975:5977   */\n      0x20\n        /* \"#utility.yul\":5972:5973   */\n      dup2\n        /* \"#utility.yul\":5968:5978   */\n      add\n        /* \"#utility.yul\":5963:5978   */\n      swap1\n      pop\n        /* \"#utility.yul\":5939:6052   */\n      jump(tag_231)\n    tag_233:\n        /* \"#utility.yul\":6086:6087   */\n      0x00\n        /* \"#utility.yul\":6077:6083   */\n      dup5\n        /* \"#utility.yul\":6072:6075   */\n      dup5\n        /* \"#utility.yul\":6068:6084   */\n      add\n        /* \"#utility.yul\":6061:6088   */\n      mstore\n        /* \"#utility.yul\":5910:6094   */\n      pop\n        /* \"#utility.yul\":5848:6094   */\n      pop\n      pop\n      pop\n      jump\t// out\n        /* \"#utility.yul\":6100:6477   */\n    tag_124:\n        /* \"#utility.yul\":6188:6191   */\n      0x00\n        /* \"#utility.yul\":6216:6255   */\n      tag_235\n        /* \"#utility.yul\":6249:6254   */\n      dup3\n        /* \"#utility.yul\":6216:6255   */\n      tag_121\n      jump\t// in\n    tag_235:\n        /* \"#utility.yul\":6271:6342   */\n      tag_236\n        /* \"#utility.yul\":6335:6341   */\n      dup2\n        /* \"#utility.yul\":6330:6333   */\n      dup6\n        /* \"#utility.yul\":6271:6342   */\n      tag_122\n      jump\t// in\n    tag_236:\n        /* \"#utility.yul\":6264:6342   */\n      swap4\n      pop\n        /* \"#utility.yul\":6351:6416   */\n      tag_237\n        /* \"#utility.yul\":6409:6415   */\n      dup2\n        /* \"#utility.yul\":6404:6407   */\n      dup6\n        /* \"#utility.yul\":6397:6401   */\n      0x20\n        /* \"#utility.yul\":6390:6395   */\n      dup7\n        /* \"#utility.yul\":6386:6402   */\n      add\n        /* \"#utility.yul\":6351:6416   */\n      tag_123\n      jump\t// in\n    tag_237:\n        /* \"#utility.yul\":6441:6470   */\n      tag_238\n        /* \"#utility.yul\":6463:6469   */\n      dup2\n        /* \"#utility.yul\":6441:6470   */\n      tag_109\n      jump\t// in\n    tag_238:\n        /* \"#utility.yul\":6436:6439   */\n      dup5\n        /* \"#utility.yul\":6432:6471   */\n      add\n        /* \"#utility.yul\":6425:6471   */\n      swap2\n      pop\n        /* \"#utility.yul\":6192:6477   */\n      pop\n        /* \"#utility.yul\":6100:6477   */\n      swap3\n      swap2\n      pop\n      pop\n      jump\t// out\n        /* \"#utility.yul\":6483:6601   */\n    tag_125:\n        /* \"#utility.yul\":6570:6594   */\n      tag_240\n        /* \"#utility.yul\":6588:6593   */\n      dup2\n        /* \"#utility.yul\":6570:6594   */\n      tag_118\n      jump\t// in\n    tag_240:\n        /* \"#utility.yul\":6565:6568   */\n      dup3\n        /* \"#utility.yul\":6558:6595   */\n      mstore\n        /* \"#utility.yul\":6483:6601   */\n      pop\n      pop\n      jump\t// out\n        /* \"#utility.yul\":6607:7564   */\n    tag_38:\n        /* \"#utility.yul\":6880:6884   */\n      0x00\n        /* \"#utility.yul\":6918:6921   */\n      0xc0\n        /* \"#utility.yul\":6907:6916   */\n      dup3\n        /* \"#utility.yul\":6903:6922   */\n      add\n        /* \"#utility.yul\":6895:6922   */\n      swap1\n      pop\n        /* \"#utility.yul\":6932:7003   */\n      tag_242\n        /* \"#utility.yul\":7000:7001   */\n      0x00\n        /* \"#utility.yul\":6989:6998   */\n      dup4\n        /* \"#utility.yul\":6985:7002   */\n      add\n        /* \"#utility.yul\":6976:6982   */\n      dup10\n        /* \"#utility.yul\":6932:7003   */\n      tag_101\n      jump\t// in\n    tag_242:\n        /* \"#utility.yul\":7050:7059   */\n      dup2\n        /* \"#utility.yul\":7044:7048   */\n      dup2\n        /* \"#utility.yul\":7040:7060   */\n      sub\n        /* \"#utility.yul\":7035:7037   */\n      0x20\n        /* \"#utility.yul\":7024:7033   */\n      dup4\n        /* \"#utility.yul\":7020:7038   */\n      add\n        /* \"#utility.yul\":7013:7061   */\n      mstore\n        /* \"#utility.yul\":7078:7156   */\n      tag_243\n        /* \"#utility.yul\":7151:7155   */\n      dup2\n        /* \"#utility.yul\":7142:7148   */\n      dup9\n        /* \"#utility.yul\":7078:7156   */\n      tag_124\n      jump\t// in\n    tag_243:\n        /* \"#utility.yul\":7070:7156   */\n      swap1\n      pop\n        /* \"#utility.yul\":7203:7212   */\n      dup2\n        /* \"#utility.yul\":7197:7201   */\n      dup2\n        /* \"#utility.yul\":7193:7213   */\n      sub\n        /* \"#utility.yul\":7188:7190   */\n      0x40\n        /* \"#utility.yul\":7177:7186   */\n      dup4\n        /* \"#utility.yul\":7173:7191   */\n      add\n        /* \"#utility.yul\":7166:7214   */\n      mstore\n        /* \"#utility.yul\":7231:7309   */\n      tag_244\n        /* \"#utility.yul\":7304:7308   */\n      dup2\n        /* \"#utility.yul\":7295:7301   */\n      dup8\n        /* \"#utility.yul\":7231:7309   */\n      tag_124\n      jump\t// in\n    tag_244:\n        /* \"#utility.yul\":7223:7309   */\n      swap1\n      pop\n        /* \"#utility.yul\":7319:7391   */\n      tag_245\n        /* \"#utility.yul\":7387:7389   */\n      0x60\n        /* \"#utility.yul\":7376:7385   */\n      dup4\n        /* \"#utility.yul\":7372:7390   */\n      add\n        /* \"#utility.yul\":7363:7369   */\n      dup7\n        /* \"#utility.yul\":7319:7391   */\n      tag_125\n      jump\t// in\n    tag_245:\n        /* \"#utility.yul\":7401:7474   */\n      tag_246\n        /* \"#utility.yul\":7469:7472   */\n      0x80\n        /* \"#utility.yul\":7458:7467   */\n      dup4\n        /* \"#utility.yul\":7454:7473   */\n      add\n        /* \"#utility.yul\":7445:7451   */\n      dup6\n        /* \"#utility.yul\":7401:7474   */\n      tag_101\n      jump\t// in\n    tag_246:\n        /* \"#utility.yul\":7484:7557   */\n      tag_247\n        /* \"#utility.yul\":7552:7555   */\n      0xa0\n        /* \"#utility.yul\":7541:7550   */\n      dup4\n        /* \"#utility.yul\":7537:7556   */\n      add\n        /* \"#utility.yul\":7528:7534   */\n      dup5\n        /* \"#utility.yul\":7484:7557   */\n      tag_101\n      jump\t// in\n    tag_247:\n        /* \"#utility.yul\":6607:7564   */\n      swap8\n      swap7\n      pop\n      pop\n      pop\n      pop\n      pop\n      pop\n      pop\n      jump\t// out\n        /* \"#utility.yul\":7570:7809   */\n    tag_126:\n        /* \"#utility.yul\":7710:7744   */\n      0x596f75206d757374206265207468652070726f6a656374204f776e657220746f\n        /* \"#utility.yul\":7706:7707   */\n      0x00\n        /* \"#utility.yul\":7698:7704   */\n      dup3\n        /* \"#utility.yul\":7694:7708   */\n      add\n        /* \"#utility.yul\":7687:7745   */\n      mstore\n        /* \"#utility.yul\":7779:7801   */\n      0x207769746864726177207468652066756e64732e000000000000000000000000\n        /* \"#utility.yul\":7774:7776   */\n      0x20\n        /* \"#utility.yul\":7766:7772   */\n      dup3\n        /* \"#utility.yul\":7762:7777   */\n      add\n        /* \"#utility.yul\":7755:7802   */\n      mstore\n        /* \"#utility.yul\":7570:7809   */\n      pop\n      jump\t// out\n        /* \"#utility.yul\":7815:8181   */\n    tag_127:\n        /* \"#utility.yul\":7957:7960   */\n      0x00\n        /* \"#utility.yul\":7978:8045   */\n      tag_250\n        /* \"#utility.yul\":8042:8044   */\n      0x34\n        /* \"#utility.yul\":8037:8040   */\n      dup4\n        /* \"#utility.yul\":7978:8045   */\n      tag_122\n      jump\t// in\n    tag_250:\n        /* \"#utility.yul\":7971:8045   */\n      swap2\n      pop\n        /* \"#utility.yul\":8054:8147   */\n      tag_251\n        /* \"#utility.yul\":8143:8146   */\n      dup3\n        /* \"#utility.yul\":8054:8147   */\n      tag_126\n      jump\t// in\n    tag_251:\n        /* \"#utility.yul\":8172:8174   */\n      0x40\n        /* \"#utility.yul\":8167:8170   */\n      dup3\n        /* \"#utility.yul\":8163:8175   */\n      add\n        /* \"#utility.yul\":8156:8175   */\n      swap1\n      pop\n        /* \"#utility.yul\":7815:8181   */\n      swap2\n      swap1\n      pop\n      jump\t// out\n        /* \"#utility.yul\":8187:8606   */\n    tag_46:\n        /* \"#utility.yul\":8353:8357   */\n      0x00\n        /* \"#utility.yul\":8391:8393   */\n      0x20\n        /* \"#utility.yul\":8380:8389   */\n      dup3\n        /* \"#utility.yul\":8376:8394   */\n      add\n        /* \"#utility.yul\":8368:8394   */\n      swap1\n      pop\n        /* \"#utility.yul\":8440:8449   */\n      dup2\n        /* \"#utility.yul\":8434:8438   */\n      dup2\n        /* \"#utility.yul\":8430:8450   */\n      sub\n        /* \"#utility.yul\":8426:8427   */\n      0x00\n        /* \"#utility.yul\":8415:8424   */\n      dup4\n        /* \"#utility.yul\":8411:8428   */\n      add\n        /* \"#utility.yul\":8404:8451   */\n      mstore\n        /* \"#utility.yul\":8468:8599   */\n      tag_253\n        /* \"#utility.yul\":8594:8598   */\n      dup2\n        /* \"#utility.yul\":8468:8599   */\n      tag_127\n      jump\t// in\n    tag_253:\n        /* \"#utility.yul\":8460:8599   */\n      swap1\n      pop\n        /* \"#utility.yul\":8187:8606   */\n      swap2\n      swap1\n      pop\n      jump\t// out\n        /* \"#utility.yul\":8612:8847   */\n    tag_128:\n        /* \"#utility.yul\":8752:8786   */\n      0x546865726520617265206e6f2066756e647320746f2077697468647261772066\n        /* \"#utility.yul\":8748:8749   */\n      0x00\n        /* \"#utility.yul\":8740:8746   */\n      dup3\n        /* \"#utility.yul\":8736:8750   */\n      add\n        /* \"#utility.yul\":8729:8787   */\n      mstore\n        /* \"#utility.yul\":8821:8839   */\n      0x6f7220746869732070726f6a6563742e00000000000000000000000000000000\n        /* \"#utility.yul\":8816:8818   */\n      0x20\n        /* \"#utility.yul\":8808:8814   */\n      dup3\n        /* \"#utility.yul\":8804:8819   */\n      add\n        /* \"#utility.yul\":8797:8840   */\n      mstore\n        /* \"#utility.yul\":8612:8847   */\n      pop\n      jump\t// out\n        /* \"#utility.yul\":8853:9219   */\n    tag_129:\n        /* \"#utility.yul\":8995:8998   */\n      0x00\n        /* \"#utility.yul\":9016:9083   */\n      tag_256\n        /* \"#utility.yul\":9080:9082   */\n      0x30\n        /* \"#utility.yul\":9075:9078   */\n      dup4\n        /* \"#utility.yul\":9016:9083   */\n      tag_122\n      jump\t// in\n    tag_256:\n        /* \"#utility.yul\":9009:9083   */\n      swap2\n      pop\n        /* \"#utility.yul\":9092:9185   */\n      tag_257\n        /* \"#utility.yul\":9181:9184   */\n      dup3\n        /* \"#utility.yul\":9092:9185   */\n      tag_128\n      jump\t// in\n    tag_257:\n        /* \"#utility.yul\":9210:9212   */\n      0x40\n        /* \"#utility.yul\":9205:9208   */\n      dup3\n        /* \"#utility.yul\":9201:9213   */\n      add\n        /* \"#utility.yul\":9194:9213   */\n      swap1\n      pop\n        /* \"#utility.yul\":8853:9219   */\n      swap2\n      swap1\n      pop\n      jump\t// out\n        /* \"#utility.yul\":9225:9644   */\n    tag_49:\n        /* \"#utility.yul\":9391:9395   */\n      0x00\n        /* \"#utility.yul\":9429:9431   */\n      0x20\n        /* \"#utility.yul\":9418:9427   */\n      dup3\n        /* \"#utility.yul\":9414:9432   */\n      add\n        /* \"#utility.yul\":9406:9432   */\n      swap1\n      pop\n        /* \"#utility.yul\":9478:9487   */\n      dup2\n        /* \"#utility.yul\":9472:9476   */\n      dup2\n        /* \"#utility.yul\":9468:9488   */\n      sub\n        /* \"#utility.yul\":9464:9465   */\n      0x00\n        /* \"#utility.yul\":9453:9462   */\n      dup4\n        /* \"#utility.yul\":9449:9466   */\n      add\n        /* \"#utility.yul\":9442:9489   */\n      mstore\n        /* \"#utility.yul\":9506:9637   */\n      tag_259\n        /* \"#utility.yul\":9632:9636   */\n      dup2\n        /* \"#utility.yul\":9506:9637   */\n      tag_129\n      jump\t// in\n    tag_259:\n        /* \"#utility.yul\":9498:9637   */\n      swap1\n      pop\n        /* \"#utility.yul\":9225:9644   */\n      swap2\n      swap1\n      pop\n      jump\t// out\n        /* \"#utility.yul\":9650:9830   */\n    tag_130:\n        /* \"#utility.yul\":9790:9822   */\n      0x50726f6a656374207469746c652063616e6e6f7420626520656d7074792e0000\n        /* \"#utility.yul\":9786:9787   */\n      0x00\n        /* \"#utility.yul\":9778:9784   */\n      dup3\n        /* \"#utility.yul\":9774:9788   */\n      add\n        /* \"#utility.yul\":9767:9823   */\n      mstore\n        /* \"#utility.yul\":9650:9830   */\n      pop\n      jump\t// out\n        /* \"#utility.yul\":9836:10202   */\n    tag_131:\n        /* \"#utility.yul\":9978:9981   */\n      0x00\n        /* \"#utility.yul\":9999:10066   */\n      tag_262\n        /* \"#utility.yul\":10063:10065   */\n      0x1e\n        /* \"#utility.yul\":10058:10061   */\n      dup4\n        /* \"#utility.yul\":9999:10066   */\n      tag_122\n      jump\t// in\n    tag_262:\n        /* \"#utility.yul\":9992:10066   */\n      swap2\n      pop\n        /* \"#utility.yul\":10075:10168   */\n      tag_263\n        /* \"#utility.yul\":10164:10167   */\n      dup3\n        /* \"#utility.yul\":10075:10168   */\n      tag_130\n      jump\t// in\n    tag_263:\n        /* \"#utility.yul\":10193:10195   */\n      0x20\n        /* \"#utility.yul\":10188:10191   */\n      dup3\n        /* \"#utility.yul\":10184:10196   */\n      add\n        /* \"#utility.yul\":10177:10196   */\n      swap1\n      pop\n        /* \"#utility.yul\":9836:10202   */\n      swap2\n      swap1\n      pop\n      jump\t// out\n        /* \"#utility.yul\":10208:10627   */\n    tag_55:\n        /* \"#utility.yul\":10374:10378   */\n      0x00\n        /* \"#utility.yul\":10412:10414   */\n      0x20\n        /* \"#utility.yul\":10401:10410   */\n      dup3\n        /* \"#utility.yul\":10397:10415   */\n      add\n        /* \"#utility.yul\":10389:10415   */\n      swap1\n      pop\n        /* \"#utility.yul\":10461:10470   */\n      dup2\n        /* \"#utility.yul\":10455:10459   */\n      dup2\n        /* \"#utility.yul\":10451:10471   */\n      sub\n        /* \"#utility.yul\":10447:10448   */\n      0x00\n        /* \"#utility.yul\":10436:10445   */\n      dup4\n        /* \"#utility.yul\":10432:10449   */\n      add\n        /* \"#utility.yul\":10425:10472   */\n      mstore\n        /* \"#utility.yul\":10489:10620   */\n      tag_265\n        /* \"#utility.yul\":10615:10619   */\n      dup2\n        /* \"#utility.yul\":10489:10620   */\n      tag_131\n      jump\t// in\n    tag_265:\n        /* \"#utility.yul\":10481:10620   */\n      swap1\n      pop\n        /* \"#utility.yul\":10208:10627   */\n      swap2\n      swap1\n      pop\n      jump\t// out\n        /* \"#utility.yul\":10633:10856   */\n    tag_132:\n        /* \"#utility.yul\":10773:10807   */\n      0x50726f6a656374206465736372697074696f6e2063616e6e6f7420626520656d\n        /* \"#utility.yul\":10769:10770   */\n      0x00\n        /* \"#utility.yul\":10761:10767   */\n      dup3\n        /* \"#utility.yul\":10757:10771   */\n      add\n        /* \"#utility.yul\":10750:10808   */\n      mstore\n        /* \"#utility.yul\":10842:10848   */\n      0x7074792e00000000000000000000000000000000000000000000000000000000\n        /* \"#utility.yul\":10837:10839   */\n      0x20\n        /* \"#utility.yul\":10829:10835   */\n      dup3\n        /* \"#utility.yul\":10825:10840   */\n      add\n        /* \"#utility.yul\":10818:10849   */\n      mstore\n        /* \"#utility.yul\":10633:10856   */\n      pop\n      jump\t// out\n        /* \"#utility.yul\":10862:11228   */\n    tag_133:\n        /* \"#utility.yul\":11004:11007   */\n      0x00\n        /* \"#utility.yul\":11025:11092   */\n      tag_268\n        /* \"#utility.yul\":11089:11091   */\n      0x24\n        /* \"#utility.yul\":11084:11087   */\n      dup4\n        /* \"#utility.yul\":11025:11092   */\n      tag_122\n      jump\t// in\n    tag_268:\n        /* \"#utility.yul\":11018:11092   */\n      swap2\n      pop\n        /* \"#utility.yul\":11101:11194   */\n      tag_269\n        /* \"#utility.yul\":11190:11193   */\n      dup3\n        /* \"#utility.yul\":11101:11194   */\n      tag_132\n      jump\t// in\n    tag_269:\n        /* \"#utility.yul\":11219:11221   */\n      0x40\n        /* \"#utility.yul\":11214:11217   */\n      dup3\n        /* \"#utility.yul\":11210:11222   */\n      add\n        /* \"#utility.yul\":11203:11222   */\n      swap1\n      pop\n        /* \"#utility.yul\":10862:11228   */\n      swap2\n      swap1\n      pop\n      jump\t// out\n        /* \"#utility.yul\":11234:11653   */\n    tag_58:\n        /* \"#utility.yul\":11400:11404   */\n      0x00\n        /* \"#utility.yul\":11438:11440   */\n      0x20\n        /* \"#utility.yul\":11427:11436   */\n      dup3\n        /* \"#utility.yul\":11423:11441   */\n      add\n        /* \"#utility.yul\":11415:11441   */\n      swap1\n      pop\n        /* \"#utility.yul\":11487:11496   */\n      dup2\n        /* \"#utility.yul\":11481:11485   */\n      dup2\n        /* \"#utility.yul\":11477:11497   */\n      sub\n        /* \"#utility.yul\":11473:11474   */\n      0x00\n        /* \"#utility.yul\":11462:11471   */\n      dup4\n        /* \"#utility.yul\":11458:11475   */\n      add\n        /* \"#utility.yul\":11451:11498   */\n      mstore\n        /* \"#utility.yul\":11515:11646   */\n      tag_271\n        /* \"#utility.yul\":11641:11645   */\n      dup2\n        /* \"#utility.yul\":11515:11646   */\n      tag_133\n      jump\t// in\n    tag_271:\n        /* \"#utility.yul\":11507:11646   */\n      swap1\n      pop\n        /* \"#utility.yul\":11234:11653   */\n      swap2\n      swap1\n      pop\n      jump\t// out\n        /* \"#utility.yul\":11659:11890   */\n    tag_134:\n        /* \"#utility.yul\":11799:11833   */\n      0x50617274696369706174696f6e20616d6f756e74206d75737420626520677265\n        /* \"#utility.yul\":11795:11796   */\n      0x00\n        /* \"#utility.yul\":11787:11793   */\n      dup3\n        /* \"#utility.yul\":11783:11797   */\n      add\n        /* \"#utility.yul\":11776:11834   */\n      mstore\n        /* \"#utility.yul\":11868:11882   */\n      0x61746572207468616e20302e0000000000000000000000000000000000000000\n        /* \"#utility.yul\":11863:11865   */\n      0x20\n        /* \"#utility.yul\":11855:11861   */\n      dup3\n        /* \"#utility.yul\":11851:11866   */\n      add\n        /* \"#utility.yul\":11844:11883   */\n      mstore\n        /* \"#utility.yul\":11659:11890   */\n      pop\n      jump\t// out\n        /* \"#utility.yul\":11896:12262   */\n    tag_135:\n        /* \"#utility.yul\":12038:12041   */\n      0x00\n        /* \"#utility.yul\":12059:12126   */\n      tag_274\n        /* \"#utility.yul\":12123:12125   */\n      0x2c\n        /* \"#utility.yul\":12118:12121   */\n      dup4\n        /* \"#utility.yul\":12059:12126   */\n      tag_122\n      jump\t// in\n    tag_274:\n        /* \"#utility.yul\":12052:12126   */\n      swap2\n      pop\n        /* \"#utility.yul\":12135:12228   */\n      tag_275\n        /* \"#utility.yul\":12224:12227   */\n      dup3\n        /* \"#utility.yul\":12135:12228   */\n      tag_134\n      jump\t// in\n    tag_275:\n        /* \"#utility.yul\":12253:12255   */\n      0x40\n        /* \"#utility.yul\":12248:12251   */\n      dup3\n        /* \"#utility.yul\":12244:12256   */\n      add\n        /* \"#utility.yul\":12237:12256   */\n      swap1\n      pop\n        /* \"#utility.yul\":11896:12262   */\n      swap2\n      swap1\n      pop\n      jump\t// out\n        /* \"#utility.yul\":12268:12687   */\n    tag_61:\n        /* \"#utility.yul\":12434:12438   */\n      0x00\n        /* \"#utility.yul\":12472:12474   */\n      0x20\n        /* \"#utility.yul\":12461:12470   */\n      dup3\n        /* \"#utility.yul\":12457:12475   */\n      add\n        /* \"#utility.yul\":12449:12475   */\n      swap1\n      pop\n        /* \"#utility.yul\":12521:12530   */\n      dup2\n        /* \"#utility.yul\":12515:12519   */\n      dup2\n        /* \"#utility.yul\":12511:12531   */\n      sub\n        /* \"#utility.yul\":12507:12508   */\n      0x00\n        /* \"#utility.yul\":12496:12505   */\n      dup4\n        /* \"#utility.yul\":12492:12509   */\n      add\n        /* \"#utility.yul\":12485:12532   */\n      mstore\n        /* \"#utility.yul\":12549:12680   */\n      tag_277\n        /* \"#utility.yul\":12675:12679   */\n      dup2\n        /* \"#utility.yul\":12549:12680   */\n      tag_135\n      jump\t// in\n    tag_277:\n        /* \"#utility.yul\":12541:12680   */\n      swap1\n      pop\n        /* \"#utility.yul\":12268:12687   */\n      swap2\n      swap1\n      pop\n      jump\t// out\n        /* \"#utility.yul\":12693:12873   */\n    tag_136:\n        /* \"#utility.yul\":12741:12818   */\n      0x4e487b7100000000000000000000000000000000000000000000000000000000\n        /* \"#utility.yul\":12738:12739   */\n      0x00\n        /* \"#utility.yul\":12731:12819   */\n      mstore\n        /* \"#utility.yul\":12838:12842   */\n      0x22\n        /* \"#utility.yul\":12835:12836   */\n      0x04\n        /* \"#utility.yul\":12828:12843   */\n      mstore\n        /* \"#utility.yul\":12862:12866   */\n      0x24\n        /* \"#utility.yul\":12859:12860   */\n      0x00\n        /* \"#utility.yul\":12852:12867   */\n      revert\n        /* \"#utility.yul\":12879:13199   */\n    tag_79:\n        /* \"#utility.yul\":12923:12929   */\n      0x00\n        /* \"#utility.yul\":12960:12961   */\n      0x02\n        /* \"#utility.yul\":12954:12958   */\n      dup3\n        /* \"#utility.yul\":12950:12962   */\n      div\n        /* \"#utility.yul\":12940:12962   */\n      swap1\n      pop\n        /* \"#utility.yul\":13007:13008   */\n      0x01\n        /* \"#utility.yul\":13001:13005   */\n      dup3\n        /* \"#utility.yul\":12997:13009   */\n      and\n        /* \"#utility.yul\":13028:13046   */\n      dup1\n        /* \"#utility.yul\":13018:13099   */\n      tag_280\n      jumpi\n        /* \"#utility.yul\":13084:13088   */\n      0x7f\n        /* \"#utility.yul\":13076:13082   */\n      dup3\n        /* \"#utility.yul\":13072:13089   */\n      and\n        /* \"#utility.yul\":13062:13089   */\n      swap2\n      pop\n        /* \"#utility.yul\":13018:13099   */\n    tag_280:\n        /* \"#utility.yul\":13146:13148   */\n      0x20\n        /* \"#utility.yul\":13138:13144   */\n      dup3\n        /* \"#utility.yul\":13135:13149   */\n      lt\n        /* \"#utility.yul\":13115:13133   */\n      dup2\n        /* \"#utility.yul\":13112:13150   */\n      sub\n        /* \"#utility.yul\":13109:13193   */\n      tag_281\n      jumpi\n        /* \"#utility.yul\":13165:13183   */\n      tag_282\n      tag_136\n      jump\t// in\n    tag_282:\n        /* \"#utility.yul\":13109:13193   */\n    tag_281:\n        /* \"#utility.yul\":12930:13199   */\n      pop\n        /* \"#utility.yul\":12879:13199   */\n      swap2\n      swap1\n      pop\n      jump\t// out\n        /* \"#utility.yul\":13205:13346   */\n    tag_137:\n        /* \"#utility.yul\":13254:13258   */\n      0x00\n        /* \"#utility.yul\":13277:13280   */\n      dup2\n        /* \"#utility.yul\":13269:13280   */\n      swap1\n      pop\n        /* \"#utility.yul\":13300:13303   */\n      dup2\n        /* \"#utility.yul\":13297:13298   */\n      0x00\n        /* \"#utility.yul\":13290:13304   */\n      mstore\n        /* \"#utility.yul\":13334:13338   */\n      0x20\n        /* \"#utility.yul\":13331:13332   */\n      0x00\n        /* \"#utility.yul\":13321:13339   */\n      keccak256\n        /* \"#utility.yul\":13313:13339   */\n      swap1\n      pop\n        /* \"#utility.yul\":13205:13346   */\n      swap2\n      swap1\n      pop\n      jump\t// out\n        /* \"#utility.yul\":13352:13445   */\n    tag_138:\n        /* \"#utility.yul\":13389:13395   */\n      0x00\n        /* \"#utility.yul\":13436:13438   */\n      0x20\n        /* \"#utility.yul\":13431:13433   */\n      0x1f\n        /* \"#utility.yul\":13424:13429   */\n      dup4\n        /* \"#utility.yul\":13420:13434   */\n      add\n        /* \"#utility.yul\":13416:13439   */\n      div\n        /* \"#utility.yul\":13406:13439   */\n      swap1\n      pop\n        /* \"#utility.yul\":13352:13445   */\n      swap2\n      swap1\n      pop\n      jump\t// out\n        /* \"#utility.yul\":13451:13558   */\n    tag_139:\n        /* \"#utility.yul\":13495:13503   */\n      0x00\n        /* \"#utility.yul\":13545:13550   */\n      dup3\n        /* \"#utility.yul\":13539:13543   */\n      dup3\n        /* \"#utility.yul\":13535:13551   */\n      shl\n        /* \"#utility.yul\":13514:13551   */\n      swap1\n      pop\n        /* \"#utility.yul\":13451:13558   */\n      swap3\n      swap2\n      pop\n      pop\n      jump\t// out\n        /* \"#utility.yul\":13564:13957   */\n    tag_140:\n        /* \"#utility.yul\":13633:13639   */\n      0x00\n        /* \"#utility.yul\":13683:13684   */\n      0x08\n        /* \"#utility.yul\":13671:13681   */\n      dup4\n        /* \"#utility.yul\":13667:13685   */\n      mul\n        /* \"#utility.yul\":13706:13803   */\n      tag_287\n        /* \"#utility.yul\":13736:13802   */\n      0xffffffffffffffffffffffffffffffffffffffffffffffffffffffffffffffff\n        /* \"#utility.yul\":13725:13734   */\n      dup3\n        /* \"#utility.yul\":13706:13803   */\n      tag_139\n      jump\t// in\n    tag_287:\n        /* \"#utility.yul\":13824:13863   */\n      tag_288\n        /* \"#utility.yul\":13854:13862   */\n      dup7\n        /* \"#utility.yul\":13843:13852   */\n      dup4\n        /* \"#utility.yul\":13824:13863   */\n      tag_139\n      jump\t// in\n    tag_288:\n        /* \"#utility.yul\":13812:13863   */\n      swap6\n      pop\n        /* \"#utility.yul\":13896:13900   */\n      dup1\n        /* \"#utility.yul\":13892:13901   */\n      not\n        /* \"#utility.yul\":13885:13890   */\n      dup5\n        /* \"#utility.yul\":13881:13902   */\n      and\n        /* \"#utility.yul\":13872:13902   */\n      swap4\n      pop\n        /* \"#utility.yul\":13945:13949   */\n      dup1\n        /* \"#utility.yul\":13935:13943   */\n      dup7\n        /* \"#utility.yul\":13931:13950   */\n      and\n        /* \"#utility.yul\":13924:13929   */\n      dup5\n        /* \"#utility.yul\":13921:13951   */\n      or\n        /* \"#utility.yul\":13911:13951   */\n      swap3\n      pop\n        /* \"#utility.yul\":13640:13957   */\n      pop\n      pop\n        /* \"#utility.yul\":13564:13957   */\n      swap4\n      swap3\n      pop\n      pop\n      pop\n      jump\t// out\n        /* \"#utility.yul\":13963:14023   */\n    tag_141:\n        /* \"#utility.yul\":13991:13994   */\n      0x00\n        /* \"#utility.yul\":14012:14017   */\n      dup2\n        /* \"#utility.yul\":14005:14017   */\n      swap1\n      pop\n        /* \"#utility.yul\":13963:14023   */\n      swap2\n      swap1\n      pop\n      jump\t// out\n        /* \"#utility.yul\":14029:14171   */\n    tag_142:\n        /* \"#utility.yul\":14079:14088   */\n      0x00\n        /* \"#utility.yul\":14112:14165   */\n      tag_291\n        /* \"#utility.yul\":14130:14164   */\n      tag_292\n        /* \"#utility.yul\":14139:14163   */\n      tag_293\n        /* \"#utility.yul\":14157:14162   */\n      dup5\n        /* \"#utility.yul\":14139:14163   */\n      tag_100\n      jump\t// in\n    tag_293:\n        /* \"#utility.yul\":14130:14164   */\n      tag_141\n      jump\t// in\n    tag_292:\n        /* \"#utility.yul\":14112:14165   */\n      tag_100\n      jump\t// in\n    tag_291:\n        /* \"#utility.yul\":14099:14165   */\n      swap1\n      pop\n        /* \"#utility.yul\":14029:14171   */\n      swap2\n      swap1\n      pop\n      jump\t// out\n        /* \"#utility.yul\":14177:14252   */\n    tag_143:\n        /* \"#utility.yul\":14220:14223   */\n      0x00\n        /* \"#utility.yul\":14241:14246   */\n      dup2\n        /* \"#utility.yul\":14234:14246   */\n      swap1\n      pop\n        /* \"#utility.yul\":14177:14252   */\n      swap2\n      swap1\n      pop\n      jump\t// out\n        /* \"#utility.yul\":14258:14527   */\n    tag_144:\n        /* \"#utility.yul\":14368:14407   */\n      tag_296\n        /* \"#utility.yul\":14399:14406   */\n      dup4\n        /* \"#utility.yul\":14368:14407   */\n      tag_142\n      jump\t// in\n    tag_296:\n        /* \"#utility.yul\":14429:14520   */\n      tag_297\n        /* \"#utility.yul\":14478:14519   */\n      tag_298\n        /* \"#utility.yul\":14502:14518   */\n      dup3\n        /* \"#utility.yul\":14478:14519   */\n      tag_143\n      jump\t// in\n    tag_298:\n        /* \"#utility.yul\":14470:14476   */\n      dup5\n        /* \"#utility.yul\":14463:14467   */\n      dup5\n        /* \"#utility.yul\":14457:14468   */\n      sload\n        /* \"#utility.yul\":14429:14520   */\n      tag_140\n      jump\t// in\n    tag_297:\n        /* \"#utility.yul\":14423:14427   */\n      dup3\n        /* \"#utility.yul\":14416:14521   */\n      sstore\n        /* \"#utility.yul\":14334:14527   */\n      pop\n        /* \"#utility.yul\":14258:14527   */\n      pop\n      pop\n      pop\n      jump\t// out\n        /* \"#utility.yul\":14533:14606   */\n    tag_145:\n        /* \"#utility.yul\":14578:14581   */\n      0x00\n        /* \"#utility.yul\":14533:14606   */\n      swap1\n      jump\t// out\n        /* \"#utility.yul\":14612:14801   */\n    tag_146:\n        /* \"#utility.yul\":14689:14721   */\n      tag_301\n      tag_145\n      jump\t// in\n    tag_301:\n        /* \"#utility.yul\":14730:14795   */\n      tag_302\n        /* \"#utility.yul\":14788:14794   */\n      dup2\n        /* \"#utility.yul\":14780:14786   */\n      dup5\n        /* \"#utility.yul\":14774:14778   */\n      dup5\n        /* \"#utility.yul\":14730:14795   */\n      tag_144\n      jump\t// in\n    tag_302:\n        /* \"#utility.yul\":14665:14801   */\n      pop\n        /* \"#utility.yul\":14612:14801   */\n      pop\n      pop\n      jump\t// out\n        /* \"#utility.yul\":14807:14993   */\n    tag_147:\n        /* \"#utility.yul\":14867:14987   */\n    tag_304:\n        /* \"#utility.yul\":14884:14887   */\n      dup2\n        /* \"#utility.yul\":14877:14882   */\n      dup2\n        /* \"#utility.yul\":14874:14888   */\n      lt\n        /* \"#utility.yul\":14867:14987   */\n      iszero\n      tag_306\n      jumpi\n        /* \"#utility.yul\":14938:14977   */\n      tag_307\n        /* \"#utility.yul\":14975:14976   */\n      0x00\n        /* \"#utility.yul\":14968:14973   */\n      dup3\n        /* \"#utility.yul\":14938:14977   */\n      tag_146\n      jump\t// in\n    tag_307:\n        /* \"#utility.yul\":14911:14912   */\n      0x01\n        /* \"#utility.yul\":14904:14909   */\n      dup2\n        /* \"#utility.yul\":14900:14913   */\n      add\n        /* \"#utility.yul\":14891:14913   */\n      swap1\n      pop\n        /* \"#utility.yul\":14867:14987   */\n      jump(tag_304)\n    tag_306:\n        /* \"#utility.yul\":14807:14993   */\n      pop\n      pop\n      jump\t// out\n        /* \"#utility.yul\":14999:15542   */\n    tag_148:\n        /* \"#utility.yul\":15100:15102   */\n      0x1f\n        /* \"#utility.yul\":15095:15098   */\n      dup3\n        /* \"#utility.yul\":15092:15103   */\n      gt\n        /* \"#utility.yul\":15089:15535   */\n      iszero\n      tag_309\n      jumpi\n        /* \"#utility.yul\":15134:15172   */\n      tag_310\n        /* \"#utility.yul\":15166:15171   */\n      dup2\n        /* \"#utility.yul\":15134:15172   */\n      tag_137\n      jump\t// in\n    tag_310:\n        /* \"#utility.yul\":15218:15247   */\n      tag_311\n        /* \"#utility.yul\":15236:15246   */\n      dup5\n        /* \"#utility.yul\":15218:15247   */\n      tag_138\n      jump\t// in\n    tag_311:\n        /* \"#utility.yul\":15208:15216   */\n      dup2\n        /* \"#utility.yul\":15204:15248   */\n      add\n        /* \"#utility.yul\":15401:15403   */\n      0x20\n        /* \"#utility.yul\":15389:15399   */\n      dup6\n        /* \"#utility.yul\":15386:15404   */\n      lt\n        /* \"#utility.yul\":15383:15432   */\n      iszero\n      tag_312\n      jumpi\n        /* \"#utility.yul\":15422:15430   */\n      dup2\n        /* \"#utility.yul\":15407:15430   */\n      swap1\n      pop\n        /* \"#utility.yul\":15383:15432   */\n    tag_312:\n        /* \"#utility.yul\":15445:15525   */\n      tag_313\n        /* \"#utility.yul\":15501:15523   */\n      tag_314\n        /* \"#utility.yul\":15519:15522   */\n      dup6\n        /* \"#utility.yul\":15501:15523   */\n      tag_138\n      jump\t// in\n    tag_314:\n        /* \"#utility.yul\":15491:15499   */\n      dup4\n        /* \"#utility.yul\":15487:15524   */\n      add\n        /* \"#utility.yul\":15474:15485   */\n      dup3\n        /* \"#utility.yul\":15445:15525   */\n      tag_147\n      jump\t// in\n    tag_313:\n        /* \"#utility.yul\":15104:15535   */\n      pop\n      pop\n        /* \"#utility.yul\":15089:15535   */\n    tag_309:\n        /* \"#utility.yul\":14999:15542   */\n      pop\n      pop\n      pop\n      jump\t// out\n        /* \"#utility.yul\":15548:15665   */\n    tag_149:\n        /* \"#utility.yul\":15602:15610   */\n      0x00\n        /* \"#utility.yul\":15652:15657   */\n      dup3\n        /* \"#utility.yul\":15646:15650   */\n      dup3\n        /* \"#utility.yul\":15642:15658   */\n      shr\n        /* \"#utility.yul\":15621:15658   */\n      swap1\n      pop\n        /* \"#utility.yul\":15548:15665   */\n      swap3\n      swap2\n      pop\n      pop\n      jump\t// out\n        /* \"#utility.yul\":15671:15840   */\n    tag_150:\n        /* \"#utility.yul\":15715:15721   */\n      0x00\n        /* \"#utility.yul\":15748:15799   */\n      tag_317\n        /* \"#utility.yul\":15796:15797   */\n      0x00\n        /* \"#utility.yul\":15792:15798   */\n      not\n        /* \"#utility.yul\":15784:15789   */\n      dup5\n        /* \"#utility.yul\":15781:15782   */\n      0x08\n        /* \"#utility.yul\":15777:15790   */\n      mul\n        /* \"#utility.yul\":15748:15799   */\n      tag_149\n      jump\t// in\n    tag_317:\n        /* \"#utility.yul\":15744:15800   */\n      not\n        /* \"#utility.yul\":15829:15833   */\n      dup1\n        /* \"#utility.yul\":15823:15827   */\n      dup4\n        /* \"#utility.yul\":15819:15834   */\n      and\n        /* \"#utility.yul\":15809:15834   */\n      swap2\n      pop\n        /* \"#utility.yul\":15722:15840   */\n      pop\n        /* \"#utility.yul\":15671:15840   */\n      swap3\n      swap2\n      pop\n      pop\n      jump\t// out\n        /* \"#utility.yul\":15845:16140   */\n    tag_151:\n        /* \"#utility.yul\":15921:15925   */\n      0x00\n        /* \"#utility.yul\":16067:16096   */\n      tag_319\n        /* \"#utility.yul\":16092:16095   */\n      dup4\n        /* \"#utility.yul\":16086:16090   */\n      dup4\n        /* \"#utility.yul\":16067:16096   */\n      tag_150\n      jump\t// in\n    tag_319:\n        /* \"#utility.yul\":16059:16096   */\n      swap2\n      pop\n        /* \"#utility.yul\":16129:16132   */\n      dup3\n        /* \"#utility.yul\":16126:16127   */\n      0x02\n        /* \"#utility.yul\":16122:16133   */\n      mul\n        /* \"#utility.yul\":16116:16120   */\n      dup3\n        /* \"#utility.yul\":16113:16134   */\n      or\n        /* \"#utility.yul\":16105:16134   */\n      swap1\n      pop\n        /* \"#utility.yul\":15845:16140   */\n      swap3\n      swap2\n      pop\n      pop\n      jump\t// out\n        /* \"#utility.yul\":16145:17540   */\n    tag_63:\n        /* \"#utility.yul\":16262:16299   */\n      tag_321\n        /* \"#utility.yul\":16295:16298   */\n      dup3\n        /* \"#utility.yul\":16262:16299   */\n      tag_121\n      jump\t// in\n    tag_321:\n        /* \"#utility.yul\":16364:16382   */\n      0xffffffffffffffff\n        /* \"#utility.yul\":16356:16362   */\n      dup2\n        /* \"#utility.yul\":16353:16383   */\n      gt\n        /* \"#utility.yul\":16350:16406   */\n      iszero\n      tag_322\n      jumpi\n        /* \"#utility.yul\":16386:16404   */\n      tag_323\n      tag_110\n      jump\t// in\n    tag_323:\n        /* \"#utility.yul\":16350:16406   */\n    tag_322:\n        /* \"#utility.yul\":16430:16468   */\n      tag_324\n        /* \"#utility.yul\":16462:16466   */\n      dup3\n        /* \"#utility.yul\":16456:16467   */\n      sload\n        /* \"#utility.yul\":16430:16468   */\n      tag_79\n      jump\t// in\n    tag_324:\n        /* \"#utility.yul\":16515:16582   */\n      tag_325\n        /* \"#utility.yul\":16575:16581   */\n      dup3\n        /* \"#utility.yul\":16567:16573   */\n      dup3\n        /* \"#utility.yul\":16561:16565   */\n      dup6\n        /* \"#utility.yul\":16515:16582   */\n      tag_148\n      jump\t// in\n    tag_325:\n        /* \"#utility.yul\":16609:16610   */\n      0x00\n        /* \"#utility.yul\":16633:16637   */\n      0x20\n        /* \"#utility.yul\":16620:16637   */\n      swap1\n      pop\n        /* \"#utility.yul\":16665:16667   */\n      0x1f\n        /* \"#utility.yul\":16657:16663   */\n      dup4\n        /* \"#utility.yul\":16654:16668   */\n      gt\n        /* \"#utility.yul\":16682:16683   */\n      0x01\n        /* \"#utility.yul\":16677:17295   */\n      dup2\n      eq\n      tag_327\n      jumpi\n        /* \"#utility.yul\":17339:17340   */\n      0x00\n        /* \"#utility.yul\":17356:17362   */\n      dup5\n        /* \"#utility.yul\":17353:17430   */\n      iszero\n      tag_328\n      jumpi\n        /* \"#utility.yul\":17405:17414   */\n      dup3\n        /* \"#utility.yul\":17400:17403   */\n      dup8\n        /* \"#utility.yul\":17396:17415   */\n      add\n        /* \"#utility.yul\":17390:17416   */\n      mload\n        /* \"#utility.yul\":17381:17416   */\n      swap1\n      pop\n        /* \"#utility.yul\":17353:17430   */\n    tag_328:\n        /* \"#utility.yul\":17456:17523   */\n      tag_329\n        /* \"#utility.yul\":17516:17522   */\n      dup6\n        /* \"#utility.yul\":17509:17514   */\n      dup3\n        /* \"#utility.yul\":17456:17523   */\n      tag_151\n      jump\t// in\n    tag_329:\n        /* \"#utility.yul\":17450:17454   */\n      dup7\n        /* \"#utility.yul\":17443:17524   */\n      sstore\n        /* \"#utility.yul\":17312:17534   */\n      pop\n        /* \"#utility.yul\":16647:17534   */\n      jump(tag_326)\n        /* \"#utility.yul\":16677:17295   */\n    tag_327:\n        /* \"#utility.yul\":16729:16733   */\n      0x1f\n        /* \"#utility.yul\":16725:16734   */\n      not\n        /* \"#utility.yul\":16717:16723   */\n      dup5\n        /* \"#utility.yul\":16713:16735   */\n      and\n        /* \"#utility.yul\":16763:16800   */\n      tag_330\n        /* \"#utility.yul\":16795:16799   */\n      dup7\n        /* \"#utility.yul\":16763:16800   */\n      tag_137\n      jump\t// in\n    tag_330:\n        /* \"#utility.yul\":16822:16823   */\n      0x00\n        /* \"#utility.yul\":16836:17044   */\n    tag_331:\n        /* \"#utility.yul\":16850:16857   */\n      dup3\n        /* \"#utility.yul\":16847:16848   */\n      dup2\n        /* \"#utility.yul\":16844:16858   */\n      lt\n        /* \"#utility.yul\":16836:17044   */\n      iszero\n      tag_333\n      jumpi\n        /* \"#utility.yul\":16929:16938   */\n      dup5\n        /* \"#utility.yul\":16924:16927   */\n      dup10\n        /* \"#utility.yul\":16920:16939   */\n      add\n        /* \"#utility.yul\":16914:16940   */\n      mload\n        /* \"#utility.yul\":16906:16912   */\n      dup3\n        /* \"#utility.yul\":16899:16941   */\n      sstore\n        /* \"#utility.yul\":16980:16981   */\n      0x01\n        /* \"#utility.yul\":16972:16978   */\n      dup3\n        /* \"#utility.yul\":16968:16982   */\n      add\n        /* \"#utility.yul\":16958:16982   */\n      swap2\n      pop\n        /* \"#utility.yul\":17027:17029   */\n      0x20\n        /* \"#utility.yul\":17016:17025   */\n      dup6\n        /* \"#utility.yul\":17012:17030   */\n      add\n        /* \"#utility.yul\":16999:17030   */\n      swap5\n      pop\n        /* \"#utility.yul\":16873:16877   */\n      0x20\n        /* \"#utility.yul\":16870:16871   */\n      dup2\n        /* \"#utility.yul\":16866:16878   */\n      add\n        /* \"#utility.yul\":16861:16878   */\n      swap1\n      pop\n        /* \"#utility.yul\":16836:17044   */\n      jump(tag_331)\n    tag_333:\n        /* \"#utility.yul\":17072:17078   */\n      dup7\n        /* \"#utility.yul\":17063:17070   */\n      dup4\n        /* \"#utility.yul\":17060:17079   */\n      lt\n        /* \"#utility.yul\":17057:17236   */\n      iszero\n      tag_334\n      jumpi\n        /* \"#utility.yul\":17130:17139   */\n      dup5\n        /* \"#utility.yul\":17125:17128   */\n      dup10\n        /* \"#utility.yul\":17121:17140   */\n      add\n        /* \"#utility.yul\":17115:17141   */\n      mload\n        /* \"#utility.yul\":17173:17221   */\n      tag_335\n        /* \"#utility.yul\":17215:17219   */\n      0x1f\n        /* \"#utility.yul\":17207:17213   */\n      dup10\n        /* \"#utility.yul\":17203:17220   */\n      and\n        /* \"#utility.yul\":17192:17201   */\n      dup3\n        /* \"#utility.yul\":17173:17221   */\n      tag_150\n      jump\t// in\n    tag_335:\n        /* \"#utility.yul\":17165:17171   */\n      dup4\n        /* \"#utility.yul\":17158:17222   */\n      sstore\n        /* \"#utility.yul\":17080:17236   */\n      pop\n        /* \"#utility.yul\":17057:17236   */\n    tag_334:\n        /* \"#utility.yul\":17282:17283   */\n      0x01\n        /* \"#utility.yul\":17278:17279   */\n      0x02\n        /* \"#utility.yul\":17270:17276   */\n      dup9\n        /* \"#utility.yul\":17266:17280   */\n      mul\n        /* \"#utility.yul\":17262:17284   */\n      add\n        /* \"#utility.yul\":17256:17260   */\n      dup9\n        /* \"#utility.yul\":17249:17285   */\n      sstore\n        /* \"#utility.yul\":16684:17295   */\n      pop\n      pop\n      pop\n        /* \"#utility.yul\":16647:17534   */\n    tag_326:\n      pop\n        /* \"#utility.yul\":16237:17540   */\n      pop\n      pop\n      pop\n        /* \"#utility.yul\":16145:17540   */\n      pop\n      pop\n      jump\t// out\n        /* \"#utility.yul\":17546:17726   */\n    tag_152:\n        /* \"#utility.yul\":17594:17671   */\n      0x4e487b7100000000000000000000000000000000000000000000000000000000\n        /* \"#utility.yul\":17591:17592   */\n      0x00\n        /* \"#utility.yul\":17584:17672   */\n      mstore\n        /* \"#utility.yul\":17691:17695   */\n      0x11\n        /* \"#utility.yul\":17688:17689   */\n      0x04\n        /* \"#utility.yul\":17681:17696   */\n      mstore\n        /* \"#utility.yul\":17715:17719   */\n      0x24\n        /* \"#utility.yul\":17712:17713   */\n      0x00\n        /* \"#utility.yul\":17705:17720   */\n      revert\n        /* \"#utility.yul\":17732:17965   */\n    tag_66:\n        /* \"#utility.yul\":17771:17774   */\n      0x00\n        /* \"#utility.yul\":17794:17818   */\n      tag_338\n        /* \"#utility.yul\":17812:17817   */\n      dup3\n        /* \"#utility.yul\":17794:17818   */\n      tag_100\n      jump\t// in\n    tag_338:\n        /* \"#utility.yul\":17785:17818   */\n      swap2\n      pop\n        /* \"#utility.yul\":17840:17906   */\n      0xffffffffffffffffffffffffffffffffffffffffffffffffffffffffffffffff\n        /* \"#utility.yul\":17833:17838   */\n      dup3\n        /* \"#utility.yul\":17830:17907   */\n      sub\n        /* \"#utility.yul\":17827:17930   */\n      tag_339\n      jumpi\n        /* \"#utility.yul\":17910:17928   */\n      tag_340\n      tag_152\n      jump\t// in\n    tag_340:\n        /* \"#utility.yul\":17827:17930   */\n    tag_339:\n        /* \"#utility.yul\":17957:17958   */\n      0x01\n        /* \"#utility.yul\":17950:17955   */\n      dup3\n        /* \"#utility.yul\":17946:17959   */\n      add\n        /* \"#utility.yul\":17939:17959   */\n      swap1\n      pop\n        /* \"#utility.yul\":17732:17965   */\n      swap2\n      swap1\n      pop\n      jump\t// out\n        /* \"#utility.yul\":17971:18139   */\n    tag_153:\n        /* \"#utility.yul\":18111:18131   */\n      0x496e76616c69642070726f6a6563742049440000000000000000000000000000\n        /* \"#utility.yul\":18107:18108   */\n      0x00\n        /* \"#utility.yul\":18099:18105   */\n      dup3\n        /* \"#utility.yul\":18095:18109   */\n      add\n        /* \"#utility.yul\":18088:18132   */\n      mstore\n        /* \"#utility.yul\":17971:18139   */\n      pop\n      jump\t// out\n        /* \"#utility.yul\":18145:18511   */\n    tag_154:\n        /* \"#utility.yul\":18287:18290   */\n      0x00\n        /* \"#utility.yul\":18308:18375   */\n      tag_343\n        /* \"#utility.yul\":18372:18374   */\n      0x12\n        /* \"#utility.yul\":18367:18370   */\n      dup4\n        /* \"#utility.yul\":18308:18375   */\n      tag_122\n      jump\t// in\n    tag_343:\n        /* \"#utility.yul\":18301:18375   */\n      swap2\n      pop\n        /* \"#utility.yul\":18384:18477   */\n      tag_344\n        /* \"#utility.yul\":18473:18476   */\n      dup3\n        /* \"#utility.yul\":18384:18477   */\n      tag_153\n      jump\t// in\n    tag_344:\n        /* \"#utility.yul\":18502:18504   */\n      0x20\n        /* \"#utility.yul\":18497:18500   */\n      dup3\n        /* \"#utility.yul\":18493:18505   */\n      add\n        /* \"#utility.yul\":18486:18505   */\n      swap1\n      pop\n        /* \"#utility.yul\":18145:18511   */\n      swap2\n      swap1\n      pop\n      jump\t// out\n        /* \"#utility.yul\":18517:18936   */\n    tag_70:\n        /* \"#utility.yul\":18683:18687   */\n      0x00\n        /* \"#utility.yul\":18721:18723   */\n      0x20\n        /* \"#utility.yul\":18710:18719   */\n      dup3\n        /* \"#utility.yul\":18706:18724   */\n      add\n        /* \"#utility.yul\":18698:18724   */\n      swap1\n      pop\n        /* \"#utility.yul\":18770:18779   */\n      dup2\n        /* \"#utility.yul\":18764:18768   */\n      dup2\n        /* \"#utility.yul\":18760:18780   */\n      sub\n        /* \"#utility.yul\":18756:18757   */\n      0x00\n        /* \"#utility.yul\":18745:18754   */\n      dup4\n        /* \"#utility.yul\":18741:18758   */\n      add\n        /* \"#utility.yul\":18734:18781   */\n      mstore\n        /* \"#utility.yul\":18798:18929   */\n      tag_346\n        /* \"#utility.yul\":18924:18928   */\n      dup2\n        /* \"#utility.yul\":18798:18929   */\n      tag_154\n      jump\t// in\n    tag_346:\n        /* \"#utility.yul\":18790:18929   */\n      swap1\n      pop\n        /* \"#utility.yul\":18517:18936   */\n      swap2\n      swap1\n      pop\n      jump\t// out\n        /* \"#utility.yul\":18942:19170   */\n    tag_155:\n        /* \"#utility.yul\":19082:19116   */\n      0x5573657220686173206e6f742070617274696369706174656420696e20746869\n        /* \"#utility.yul\":19078:19079   */\n      0x00\n        /* \"#utility.yul\":19070:19076   */\n      dup3\n        /* \"#utility.yul\":19066:19080   */\n      add\n        /* \"#utility.yul\":19059:19117   */\n      mstore\n        /* \"#utility.yul\":19151:19162   */\n      0x732070726f6a6563740000000000000000000000000000000000000000000000\n        /* \"#utility.yul\":19146:19148   */\n      0x20\n        /* \"#utility.yul\":19138:19144   */\n      dup3\n        /* \"#utility.yul\":19134:19149   */\n      add\n        /* \"#utility.yul\":19127:19163   */\n      mstore\n        /* \"#utility.yul\":18942:19170   */\n      pop\n      jump\t// out\n        /* \"#utility.yul\":19176:19542   */\n    tag_156:\n        /* \"#utility.yul\":19318:19321   */\n      0x00\n        /* \"#utility.yul\":19339:19406   */\n      tag_349\n        /* \"#utility.yul\":19403:19405   */\n      0x29\n        /* \"#utility.yul\":19398:19401   */\n      dup4\n        /* \"#utility.yul\":19339:19406   */\n      tag_122\n      jump\t// in\n    tag_349:\n        /* \"#utility.yul\":19332:19406   */\n      swap2\n      pop\n        /* \"#utility.yul\":19415:19508   */\n      tag_350\n        /* \"#utility.yul\":19504:19507   */\n      dup3\n        /* \"#utility.yul\":19415:19508   */\n      tag_155\n      jump\t// in\n    tag_350:\n        /* \"#utility.yul\":19533:19535   */\n      0x40\n        /* \"#utility.yul\":19528:19531   */\n      dup3\n        /* \"#utility.yul\":19524:19536   */\n      add\n        /* \"#utility.yul\":19517:19536   */\n      swap1\n      pop\n        /* \"#utility.yul\":19176:19542   */\n      swap2\n      swap1\n      pop\n      jump\t// out\n        /* \"#utility.yul\":19548:19967   */\n    tag_73:\n        /* \"#utility.yul\":19714:19718   */\n      0x00\n        /* \"#utility.yul\":19752:19754   */\n      0x20\n        /* \"#utility.yul\":19741:19750   */\n      dup3\n        /* \"#utility.yul\":19737:19755   */\n      add\n        /* \"#utility.yul\":19729:19755   */\n      swap1\n      pop\n        /* \"#utility.yul\":19801:19810   */\n      dup2\n        /* \"#utility.yul\":19795:19799   */\n      dup2\n        /* \"#utility.yul\":19791:19811   */\n      sub\n        /* \"#utility.yul\":19787:19788   */\n      0x00\n        /* \"#utility.yul\":19776:19785   */\n      dup4\n        /* \"#utility.yul\":19772:19789   */\n      add\n        /* \"#utility.yul\":19765:19812   */\n      mstore\n        /* \"#utility.yul\":19829:19960   */\n      tag_352\n        /* \"#utility.yul\":19955:19959   */\n      dup2\n        /* \"#utility.yul\":19829:19960   */\n      tag_156\n      jump\t// in\n    tag_352:\n        /* \"#utility.yul\":19821:19960   */\n      swap1\n      pop\n        /* \"#utility.yul\":19548:19967   */\n      swap2\n      swap1\n      pop\n      jump\t// out\n        /* \"#utility.yul\":19973:20146   */\n    tag_157:\n        /* \"#utility.yul\":20113:20138   */\n      0x50726f6a65637420646f6573206e6f742065786973742e000000000000000000\n        /* \"#utility.yul\":20109:20110   */\n      0x00\n        /* \"#utility.yul\":20101:20107   */\n      dup3\n        /* \"#utility.yul\":20097:20111   */\n      add\n        /* \"#utility.yul\":20090:20139   */\n      mstore\n        /* \"#utility.yul\":19973:20146   */\n      pop\n      jump\t// out\n        /* \"#utility.yul\":20152:20518   */\n    tag_158:\n        /* \"#utility.yul\":20294:20297   */\n      0x00\n        /* \"#utility.yul\":20315:20382   */\n      tag_355\n        /* \"#utility.yul\":20379:20381   */\n      0x17\n        /* \"#utility.yul\":20374:20377   */\n      dup4\n        /* \"#utility.yul\":20315:20382   */\n      tag_122\n      jump\t// in\n    tag_355:\n        /* \"#utility.yul\":20308:20382   */\n      swap2\n      pop\n        /* \"#utility.yul\":20391:20484   */\n      tag_356\n        /* \"#utility.yul\":20480:20483   */\n      dup3\n        /* \"#utility.yul\":20391:20484   */\n      tag_157\n      jump\t// in\n    tag_356:\n        /* \"#utility.yul\":20509:20511   */\n      0x20\n        /* \"#utility.yul\":20504:20507   */\n      dup3\n        /* \"#utility.yul\":20500:20512   */\n      add\n        /* \"#utility.yul\":20493:20512   */\n      swap1\n      pop\n        /* \"#utility.yul\":20152:20518   */\n      swap2\n      swap1\n      pop\n      jump\t// out\n        /* \"#utility.yul\":20524:20943   */\n    tag_77:\n        /* \"#utility.yul\":20690:20694   */\n      0x00\n        /* \"#utility.yul\":20728:20730   */\n      0x20\n        /* \"#utility.yul\":20717:20726   */\n      dup3\n        /* \"#utility.yul\":20713:20731   */\n      add\n        /* \"#utility.yul\":20705:20731   */\n      swap1\n      pop\n        /* \"#utility.yul\":20777:20786   */\n      dup2\n        /* \"#utility.yul\":20771:20775   */\n      dup2\n        /* \"#utility.yul\":20767:20787   */\n      sub\n        /* \"#utility.yul\":20763:20764   */\n      0x00\n        /* \"#utility.yul\":20752:20761   */\n      dup4\n        /* \"#utility.yul\":20748:20765   */\n      add\n        /* \"#utility.yul\":20741:20788   */\n      mstore\n        /* \"#utility.yul\":20805:20936   */\n      tag_358\n        /* \"#utility.yul\":20931:20935   */\n      dup2\n        /* \"#utility.yul\":20805:20936   */\n      tag_158\n      jump\t// in\n    tag_358:\n        /* \"#utility.yul\":20797:20936   */\n      swap1\n      pop\n        /* \"#utility.yul\":20524:20943   */\n      swap2\n      swap1\n      pop\n      jump\t// out\n        /* \"#utility.yul\":20949:21172   */\n    tag_159:\n        /* \"#utility.yul\":21089:21123   */\n      0x50617274696369706174696f6e20616d6f756e74206973206e6f7420636f7272\n        /* \"#utility.yul\":21085:21086   */\n      0x00\n        /* \"#utility.yul\":21077:21083   */\n      dup3\n        /* \"#utility.yul\":21073:21087   */\n      add\n        /* \"#utility.yul\":21066:21124   */\n      mstore\n        /* \"#utility.yul\":21158:21164   */\n      0x6563742e00000000000000000000000000000000000000000000000000000000\n        /* \"#utility.yul\":21153:21155   */\n      0x20\n        /* \"#utility.yul\":21145:21151   */\n      dup3\n        /* \"#utility.yul\":21141:21156   */\n      add\n        /* \"#utility.yul\":21134:21165   */\n      mstore\n        /* \"#utility.yul\":20949:21172   */\n      pop\n      jump\t// out\n        /* \"#utility.yul\":21178:21544   */\n    tag_160:\n        /* \"#utility.yul\":21320:21323   */\n      0x00\n        /* \"#utility.yul\":21341:21408   */\n      tag_361\n        /* \"#utility.yul\":21405:21407   */\n      0x24\n        /* \"#utility.yul\":21400:21403   */\n      dup4\n        /* \"#utility.yul\":21341:21408   */\n      tag_122\n      jump\t// in\n    tag_361:\n        /* \"#utility.yul\":21334:21408   */\n      swap2\n      pop\n        /* \"#utility.yul\":21417:21510   */\n      tag_362\n        /* \"#utility.yul\":21506:21509   */\n      dup3\n        /* \"#utility.yul\":21417:21510   */\n      tag_159\n      jump\t// in\n    tag_362:\n        /* \"#utility.yul\":21535:21537   */\n      0x40\n        /* \"#utility.yul\":21530:21533   */\n      dup3\n        /* \"#utility.yul\":21526:21538   */\n      add\n        /* \"#utility.yul\":21519:21538   */\n      swap1\n      pop\n        /* \"#utility.yul\":21178:21544   */\n      swap2\n      swap1\n      pop\n      jump\t// out\n        /* \"#utility.yul\":21550:21969   */\n    tag_94:\n        /* \"#utility.yul\":21716:21720   */\n      0x00\n        /* \"#utility.yul\":21754:21756   */\n      0x20\n        /* \"#utility.yul\":21743:21752   */\n      dup3\n        /* \"#utility.yul\":21739:21757   */\n      add\n        /* \"#utility.yul\":21731:21757   */\n      swap1\n      pop\n        /* \"#utility.yul\":21803:21812   */\n      dup2\n        /* \"#utility.yul\":21797:21801   */\n      dup2\n        /* \"#utility.yul\":21793:21813   */\n      sub\n        /* \"#utility.yul\":21789:21790   */\n      0x00\n        /* \"#utility.yul\":21778:21787   */\n      dup4\n        /* \"#utility.yul\":21774:21791   */\n      add\n        /* \"#utility.yul\":21767:21814   */\n      mstore\n        /* \"#utility.yul\":21831:21962   */\n      tag_364\n        /* \"#utility.yul\":21957:21961   */\n      dup2\n        /* \"#utility.yul\":21831:21962   */\n      tag_160\n      jump\t// in\n    tag_364:\n        /* \"#utility.yul\":21823:21962   */\n      swap1\n      pop\n        /* \"#utility.yul\":21550:21969   */\n      swap2\n      swap1\n      pop\n      jump\t// out\n        /* \"#utility.yul\":21975:22166   */\n    tag_96:\n        /* \"#utility.yul\":22015:22018   */\n      0x00\n        /* \"#utility.yul\":22034:22054   */\n      tag_366\n        /* \"#utility.yul\":22052:22053   */\n      dup3\n        /* \"#utility.yul\":22034:22054   */\n      tag_100\n      jump\t// in\n    tag_366:\n        /* \"#utility.yul\":22029:22054   */\n      swap2\n      pop\n        /* \"#utility.yul\":22068:22088   */\n      tag_367\n        /* \"#utility.yul\":22086:22087   */\n      dup4\n        /* \"#utility.yul\":22068:22088   */\n      tag_100\n      jump\t// in\n    tag_367:\n        /* \"#utility.yul\":22063:22088   */\n      swap3\n      pop\n        /* \"#utility.yul\":22111:22112   */\n      dup3\n        /* \"#utility.yul\":22108:22109   */\n      dup3\n        /* \"#utility.yul\":22104:22113   */\n      add\n        /* \"#utility.yul\":22097:22113   */\n      swap1\n      pop\n        /* \"#utility.yul\":22132:22135   */\n      dup1\n        /* \"#utility.yul\":22129:22130   */\n      dup3\n        /* \"#utility.yul\":22126:22136   */\n      gt\n        /* \"#utility.yul\":22123:22159   */\n      iszero\n      tag_368\n      jumpi\n        /* \"#utility.yul\":22139:22157   */\n      tag_369\n      tag_152\n      jump\t// in\n    tag_369:\n        /* \"#utility.yul\":22123:22159   */\n    tag_368:\n        /* \"#utility.yul\":21975:22166   */\n      swap3\n      swap2\n      pop\n      pop\n      jump\t// out\n\n    auxdata: 0xa2646970667358221220e42cdc54e824d53fd9189add8230fe85619c7126762c8c45cde0d5b00d03bd2864736f6c63430008140033\n}\n",
				"bytecode": {
					"linkReferences": {},
					"object": "60806040526001600255348015610014575f80fd5b50611626806100225f395ff3fe608060405260043610610058575f3560e01c806312065fe014610061578063155dd5ee1461008b57806323c55448146100a75780632abf8709146100cf5780635f8439e31461010b57806377ef7e3c1461014c5761005f565b3661005f57005b005b34801561006c575f80fd5b50610075610168565b6040516100829190610a23565b60405180910390f35b6100a560048036038101906100a09190610a77565b61016f565b005b3480156100b2575f80fd5b506100cd60048036038101906100c89190610bde565b6102d6565b005b3480156100da575f80fd5b506100f560048036038101906100f09190610cc0565b6104a7565b6040516101029190610a23565b60405180910390f35b348015610116575f80fd5b50610131600480360381019061012c9190610a77565b61062b565b60405161014396959493929190610d87565b60405180910390f35b61016660048036038101906101619190610a77565b610849565b005b5f47905090565b5f805f8381526020019081526020015f209050806003015f9054906101000a900473ffffffffffffffffffffffffffffffffffffffff1673ffffffffffffffffffffffffffffffffffffffff163373ffffffffffffffffffffffffffffffffffffffff1614610213576040517f08c379a000000000000000000000000000000000000000000000000000000000815260040161020a90610e64565b60405180910390fd5b5f816005015411610259576040517f08c379a000000000000000000000000000000000000000000000000000000000815260040161025090610ef2565b60405180910390fd5b5f816003015f9054906101000a900473ffffffffffffffffffffffffffffffffffffffff1690508073ffffffffffffffffffffffffffffffffffffffff166108fc836005015490811502906040515f60405180830381858888f193505050501580156102c7573d5f803e3d5ffd5b505f8260050181905550505050565b5f835111610319576040517f08c379a000000000000000000000000000000000000000000000000000000000815260040161031090610f5a565b60405180910390fd5b5f82511161035c576040517f08c379a000000000000000000000000000000000000000000000000000000000815260040161035390610fe8565b60405180910390fd5b5f811161039e576040517f08c379a000000000000000000000000000000000000000000000000000000000815260040161039590611076565b60405180910390fd5b5f6040518060c0016040528060025481526020018581526020018481526020013373ffffffffffffffffffffffffffffffffffffffff1681526020018381526020015f8152509050805f8060025481526020019081526020015f205f820151815f01556020820151816001019081610416919061128e565b50604082015181600201908161042c919061128e565b506060820151816003015f6101000a81548173ffffffffffffffffffffffffffffffffffffffff021916908373ffffffffffffffffffffffffffffffffffffffff1602179055506080820151816004015560a0820151816005015590505060025f81548092919061049c9061138a565b919050555050505050565b5f8073ffffffffffffffffffffffffffffffffffffffff165f808581526020019081526020015f206003015f9054906101000a900473ffffffffffffffffffffffffffffffffffffffff1673ffffffffffffffffffffffffffffffffffffffff1603610548576040517f08c379a000000000000000000000000000000000000000000000000000000000815260040161053f9061141b565b60405180910390fd5b5f60015f8581526020019081526020015f205f8473ffffffffffffffffffffffffffffffffffffffff1673ffffffffffffffffffffffffffffffffffffffff1681526020019081526020015f2054116105d6576040517f08c379a00000000000000000000000000000000000000000000000000000000081526004016105cd906114a9565b60405180910390fd5b60015f8481526020019081526020015f205f8373ffffffffffffffffffffffffffffffffffffffff1673ffffffffffffffffffffffffffffffffffffffff1681526020019081526020015f2054905092915050565b5f6060805f805f8073ffffffffffffffffffffffffffffffffffffffff165f808981526020019081526020015f206003015f9054906101000a900473ffffffffffffffffffffffffffffffffffffffff1673ffffffffffffffffffffffffffffffffffffffff16036106d2576040517f08c379a00000000000000000000000000000000000000000000000000000000081526004016106c990611511565b60405180910390fd5b5f805f8981526020019081526020015f209050805f01548160010182600201836003015f9054906101000a900473ffffffffffffffffffffffffffffffffffffffff168460040154856005015484805461072b906110c1565b80601f0160208091040260200160405190810160405280929190818152602001828054610757906110c1565b80156107a25780601f10610779576101008083540402835291602001916107a2565b820191905f5260205f20905b81548152906001019060200180831161078557829003601f168201915b505050505094508380546107b5906110c1565b80601f01602080910402602001604051908101604052809291908181526020018280546107e1906110c1565b801561082c5780601f106108035761010080835404028352916020019161082c565b820191905f5260205f20905b81548152906001019060200180831161080f57829003601f168201915b505050505093509650965096509650965096505091939550919395565b5f73ffffffffffffffffffffffffffffffffffffffff165f808381526020019081526020015f206003015f9054906101000a900473ffffffffffffffffffffffffffffffffffffffff1673ffffffffffffffffffffffffffffffffffffffff16036108e9576040517f08c379a00000000000000000000000000000000000000000000000000000000081526004016108e090611511565b60405180910390fd5b5f3490505f805f8481526020019081526020015f20905080600401548214610946576040517f08c379a000000000000000000000000000000000000000000000000000000000815260040161093d9061159f565b60405180910390fd5b81816005015f82825461095991906115bd565b925050819055508160015f8581526020019081526020015f205f3373ffffffffffffffffffffffffffffffffffffffff1673ffffffffffffffffffffffffffffffffffffffff1681526020019081526020015f205f8282546109bb91906115bd565b925050819055503073ffffffffffffffffffffffffffffffffffffffff166108fc8390811502906040515f60405180830381858888f19350505050158015610a05573d5f803e3d5ffd5b50505050565b5f819050919050565b610a1d81610a0b565b82525050565b5f602082019050610a365f830184610a14565b92915050565b5f604051905090565b5f80fd5b5f80fd5b610a5681610a0b565b8114610a60575f80fd5b50565b5f81359050610a7181610a4d565b92915050565b5f60208284031215610a8c57610a8b610a45565b5b5f610a9984828501610a63565b91505092915050565b5f80fd5b5f80fd5b5f601f19601f8301169050919050565b7f4e487b71000000000000000000000000000000000000000000000000000000005f52604160045260245ffd5b610af082610aaa565b810181811067ffffffffffffffff82111715610b0f57610b0e610aba565b5b80604052505050565b5f610b21610a3c565b9050610b2d8282610ae7565b919050565b5f67ffffffffffffffff821115610b4c57610b4b610aba565b5b610b5582610aaa565b9050602081019050919050565b828183375f83830152505050565b5f610b82610b7d84610b32565b610b18565b905082815260208101848484011115610b9e57610b9d610aa6565b5b610ba9848285610b62565b509392505050565b5f82601f830112610bc557610bc4610aa2565b5b8135610bd5848260208601610b70565b91505092915050565b5f805f60608486031215610bf557610bf4610a45565b5b5f84013567ffffffffffffffff811115610c1257610c11610a49565b5b610c1e86828701610bb1565b935050602084013567ffffffffffffffff811115610c3f57610c3e610a49565b5b610c4b86828701610bb1565b9250506040610c5c86828701610a63565b9150509250925092565b5f73ffffffffffffffffffffffffffffffffffffffff82169050919050565b5f610c8f82610c66565b9050919050565b610c9f81610c85565b8114610ca9575f80fd5b50565b5f81359050610cba81610c96565b92915050565b5f8060408385031215610cd657610cd5610a45565b5b5f610ce385828601610a63565b9250506020610cf485828601610cac565b9150509250929050565b5f81519050919050565b5f82825260208201905092915050565b5f5b83811015610d35578082015181840152602081019050610d1a565b5f8484015250505050565b5f610d4a82610cfe565b610d548185610d08565b9350610d64818560208601610d18565b610d6d81610aaa565b840191505092915050565b610d8181610c85565b82525050565b5f60c082019050610d9a5f830189610a14565b8181036020830152610dac8188610d40565b90508181036040830152610dc08187610d40565b9050610dcf6060830186610d78565b610ddc6080830185610a14565b610de960a0830184610a14565b979650505050505050565b7f596f75206d757374206265207468652070726f6a656374204f776e657220746f5f8201527f207769746864726177207468652066756e64732e000000000000000000000000602082015250565b5f610e4e603483610d08565b9150610e5982610df4565b604082019050919050565b5f6020820190508181035f830152610e7b81610e42565b9050919050565b7f546865726520617265206e6f2066756e647320746f20776974686472617720665f8201527f6f7220746869732070726f6a6563742e00000000000000000000000000000000602082015250565b5f610edc603083610d08565b9150610ee782610e82565b604082019050919050565b5f6020820190508181035f830152610f0981610ed0565b9050919050565b7f50726f6a656374207469746c652063616e6e6f7420626520656d7074792e00005f82015250565b5f610f44601e83610d08565b9150610f4f82610f10565b602082019050919050565b5f6020820190508181035f830152610f7181610f38565b9050919050565b7f50726f6a656374206465736372697074696f6e2063616e6e6f7420626520656d5f8201527f7074792e00000000000000000000000000000000000000000000000000000000602082015250565b5f610fd2602483610d08565b9150610fdd82610f78565b604082019050919050565b5f6020820190508181035f830152610fff81610fc6565b9050919050565b7f50617274696369706174696f6e20616d6f756e74206d757374206265206772655f8201527f61746572207468616e20302e0000000000000000000000000000000000000000602082015250565b5f611060602c83610d08565b915061106b82611006565b604082019050919050565b5f6020820190508181035f83015261108d81611054565b9050919050565b7f4e487b71000000000000000000000000000000000000000000000000000000005f52602260045260245ffd5b5f60028204905060018216806110d857607f821691505b6020821081036110eb576110ea611094565b5b50919050565b5f819050815f5260205f209050919050565b5f6020601f8301049050919050565b5f82821b905092915050565b5f6008830261114d7fffffffffffffffffffffffffffffffffffffffffffffffffffffffffffffffff82611112565b6111578683611112565b95508019841693508086168417925050509392505050565b5f819050919050565b5f61119261118d61118884610a0b565b61116f565b610a0b565b9050919050565b5f819050919050565b6111ab83611178565b6111bf6111b782611199565b84845461111e565b825550505050565b5f90565b6111d36111c7565b6111de8184846111a2565b505050565b5b81811015611201576111f65f826111cb565b6001810190506111e4565b5050565b601f82111561124657611217816110f1565b61122084611103565b8101602085101561122f578190505b61124361123b85611103565b8301826111e3565b50505b505050565b5f82821c905092915050565b5f6112665f198460080261124b565b1980831691505092915050565b5f61127e8383611257565b9150826002028217905092915050565b61129782610cfe565b67ffffffffffffffff8111156112b0576112af610aba565b5b6112ba82546110c1565b6112c5828285611205565b5f60209050601f8311600181146112f6575f84156112e4578287015190505b6112ee8582611273565b865550611355565b601f198416611304866110f1565b5f5b8281101561132b57848901518255600182019150602085019450602081019050611306565b868310156113485784890151611344601f891682611257565b8355505b6001600288020188555050505b505050505050565b7f4e487b71000000000000000000000000000000000000000000000000000000005f52601160045260245ffd5b5f61139482610a0b565b91507fffffffffffffffffffffffffffffffffffffffffffffffffffffffffffffffff82036113c6576113c561135d565b5b600182019050919050565b7f496e76616c69642070726f6a65637420494400000000000000000000000000005f82015250565b5f611405601283610d08565b9150611410826113d1565b602082019050919050565b5f6020820190508181035f830152611432816113f9565b9050919050565b7f5573657220686173206e6f742070617274696369706174656420696e207468695f8201527f732070726f6a6563740000000000000000000000000000000000000000000000602082015250565b5f611493602983610d08565b915061149e82611439565b604082019050919050565b5f6020820190508181035f8301526114c081611487565b9050919050565b7f50726f6a65637420646f6573206e6f742065786973742e0000000000000000005f82015250565b5f6114fb601783610d08565b9150611506826114c7565b602082019050919050565b5f6020820190508181035f830152611528816114ef565b9050919050565b7f50617274696369706174696f6e20616d6f756e74206973206e6f7420636f72725f8201527f6563742e00000000000000000000000000000000000000000000000000000000602082015250565b5f611589602483610d08565b91506115948261152f565b604082019050919050565b5f6020820190508181035f8301526115b68161157d565b9050919050565b5f6115c782610a0b565b91506115d283610a0b565b92508282019050808211156115ea576115e961135d565b5b9291505056fea2646970667358221220e42cdc54e824d53fd9189add8230fe85619c7126762c8c45cde0d5b00d03bd2864736f6c63430008140033",
					"opcodes": "PUSH1 0x80 PUSH1 0x40 MSTORE PUSH1 0x1 PUSH1 0x2 SSTORE CALLVALUE DUP1 ISZERO PUSH2 0x14 JUMPI PUSH0 DUP1 REVERT JUMPDEST POP PUSH2 0x1626 DUP1 PUSH2 0x22 PUSH0 CODECOPY PUSH0 RETURN INVALID PUSH1 0x80 PUSH1 0x40 MSTORE PUSH1 0x4 CALLDATASIZE LT PUSH2 0x58 JUMPI PUSH0 CALLDATALOAD PUSH1 0xE0 SHR DUP1 PUSH4 0x12065FE0 EQ PUSH2 0x61 JUMPI DUP1 PUSH4 0x155DD5EE EQ PUSH2 0x8B JUMPI DUP1 PUSH4 0x23C55448 EQ PUSH2 0xA7 JUMPI DUP1 PUSH4 0x2ABF8709 EQ PUSH2 0xCF JUMPI DUP1 PUSH4 0x5F8439E3 EQ PUSH2 0x10B JUMPI DUP1 PUSH4 0x77EF7E3C EQ PUSH2 0x14C JUMPI PUSH2 0x5F JUMP JUMPDEST CALLDATASIZE PUSH2 0x5F JUMPI STOP JUMPDEST STOP JUMPDEST CALLVALUE DUP1 ISZERO PUSH2 0x6C JUMPI PUSH0 DUP1 REVERT JUMPDEST POP PUSH2 0x75 PUSH2 0x168 JUMP JUMPDEST PUSH1 0x40 MLOAD PUSH2 0x82 SWAP2 SWAP1 PUSH2 0xA23 JUMP JUMPDEST PUSH1 0x40 MLOAD DUP1 SWAP2 SUB SWAP1 RETURN JUMPDEST PUSH2 0xA5 PUSH1 0x4 DUP1 CALLDATASIZE SUB DUP2 ADD SWAP1 PUSH2 0xA0 SWAP2 SWAP1 PUSH2 0xA77 JUMP JUMPDEST PUSH2 0x16F JUMP JUMPDEST STOP JUMPDEST CALLVALUE DUP1 ISZERO PUSH2 0xB2 JUMPI PUSH0 DUP1 REVERT JUMPDEST POP PUSH2 0xCD PUSH1 0x4 DUP1 CALLDATASIZE SUB DUP2 ADD SWAP1 PUSH2 0xC8 SWAP2 SWAP1 PUSH2 0xBDE JUMP JUMPDEST PUSH2 0x2D6 JUMP JUMPDEST STOP JUMPDEST CALLVALUE DUP1 ISZERO PUSH2 0xDA JUMPI PUSH0 DUP1 REVERT JUMPDEST POP PUSH2 0xF5 PUSH1 0x4 DUP1 CALLDATASIZE SUB DUP2 ADD SWAP1 PUSH2 0xF0 SWAP2 SWAP1 PUSH2 0xCC0 JUMP JUMPDEST PUSH2 0x4A7 JUMP JUMPDEST PUSH1 0x40 MLOAD PUSH2 0x102 SWAP2 SWAP1 PUSH2 0xA23 JUMP JUMPDEST PUSH1 0x40 MLOAD DUP1 SWAP2 SUB SWAP1 RETURN JUMPDEST CALLVALUE DUP1 ISZERO PUSH2 0x116 JUMPI PUSH0 DUP1 REVERT JUMPDEST POP PUSH2 0x131 PUSH1 0x4 DUP1 CALLDATASIZE SUB DUP2 ADD SWAP1 PUSH2 0x12C SWAP2 SWAP1 PUSH2 0xA77 JUMP JUMPDEST PUSH2 0x62B JUMP JUMPDEST PUSH1 0x40 MLOAD PUSH2 0x143 SWAP7 SWAP6 SWAP5 SWAP4 SWAP3 SWAP2 SWAP1 PUSH2 0xD87 JUMP JUMPDEST PUSH1 0x40 MLOAD DUP1 SWAP2 SUB SWAP1 RETURN JUMPDEST PUSH2 0x166 PUSH1 0x4 DUP1 CALLDATASIZE SUB DUP2 ADD SWAP1 PUSH2 0x161 SWAP2 SWAP1 PUSH2 0xA77 JUMP JUMPDEST PUSH2 0x849 JUMP JUMPDEST STOP JUMPDEST PUSH0 SELFBALANCE SWAP1 POP SWAP1 JUMP JUMPDEST PUSH0 DUP1 PUSH0 DUP4 DUP2 MSTORE PUSH1 0x20 ADD SWAP1 DUP2 MSTORE PUSH1 0x20 ADD PUSH0 KECCAK256 SWAP1 POP DUP1 PUSH1 0x3 ADD PUSH0 SWAP1 SLOAD SWAP1 PUSH2 0x100 EXP SWAP1 DIV PUSH20 0xFFFFFFFFFFFFFFFFFFFFFFFFFFFFFFFFFFFFFFFF AND PUSH20 0xFFFFFFFFFFFFFFFFFFFFFFFFFFFFFFFFFFFFFFFF AND CALLER PUSH20 0xFFFFFFFFFFFFFFFFFFFFFFFFFFFFFFFFFFFFFFFF AND EQ PUSH2 0x213 JUMPI PUSH1 0x40 MLOAD PUSH32 0x8C379A000000000000000000000000000000000000000000000000000000000 DUP2 MSTORE PUSH1 0x4 ADD PUSH2 0x20A SWAP1 PUSH2 0xE64 JUMP JUMPDEST PUSH1 0x40 MLOAD DUP1 SWAP2 SUB SWAP1 REVERT JUMPDEST PUSH0 DUP2 PUSH1 0x5 ADD SLOAD GT PUSH2 0x259 JUMPI PUSH1 0x40 MLOAD PUSH32 0x8C379A000000000000000000000000000000000000000000000000000000000 DUP2 MSTORE PUSH1 0x4 ADD PUSH2 0x250 SWAP1 PUSH2 0xEF2 JUMP JUMPDEST PUSH1 0x40 MLOAD DUP1 SWAP2 SUB SWAP1 REVERT JUMPDEST PUSH0 DUP2 PUSH1 0x3 ADD PUSH0 SWAP1 SLOAD SWAP1 PUSH2 0x100 EXP SWAP1 DIV PUSH20 0xFFFFFFFFFFFFFFFFFFFFFFFFFFFFFFFFFFFFFFFF AND SWAP1 POP DUP1 PUSH20 0xFFFFFFFFFFFFFFFFFFFFFFFFFFFFFFFFFFFFFFFF AND PUSH2 0x8FC DUP4 PUSH1 0x5 ADD SLOAD SWAP1 DUP2 ISZERO MUL SWAP1 PUSH1 0x40 MLOAD PUSH0 PUSH1 0x40 MLOAD DUP1 DUP4 SUB DUP2 DUP6 DUP9 DUP9 CALL SWAP4 POP POP POP POP ISZERO DUP1 ISZERO PUSH2 0x2C7 JUMPI RETURNDATASIZE PUSH0 DUP1 RETURNDATACOPY RETURNDATASIZE PUSH0 REVERT JUMPDEST POP PUSH0 DUP3 PUSH1 0x5 ADD DUP2 SWAP1 SSTORE POP POP POP POP JUMP JUMPDEST PUSH0 DUP4 MLOAD GT PUSH2 0x319 JUMPI PUSH1 0x40 MLOAD PUSH32 0x8C379A000000000000000000000000000000000000000000000000000000000 DUP2 MSTORE PUSH1 0x4 ADD PUSH2 0x310 SWAP1 PUSH2 0xF5A JUMP JUMPDEST PUSH1 0x40 MLOAD DUP1 SWAP2 SUB SWAP1 REVERT JUMPDEST PUSH0 DUP3 MLOAD GT PUSH2 0x35C JUMPI PUSH1 0x40 MLOAD PUSH32 0x8C379A000000000000000000000000000000000000000000000000000000000 DUP2 MSTORE PUSH1 0x4 ADD PUSH2 0x353 SWAP1 PUSH2 0xFE8 JUMP JUMPDEST PUSH1 0x40 MLOAD DUP1 SWAP2 SUB SWAP1 REVERT JUMPDEST PUSH0 DUP2 GT PUSH2 0x39E JUMPI PUSH1 0x40 MLOAD PUSH32 0x8C379A000000000000000000000000000000000000000000000000000000000 DUP2 MSTORE PUSH1 0x4 ADD PUSH2 0x395 SWAP1 PUSH2 0x1076 JUMP JUMPDEST PUSH1 0x40 MLOAD DUP1 SWAP2 SUB SWAP1 REVERT JUMPDEST PUSH0 PUSH1 0x40 MLOAD DUP1 PUSH1 0xC0 ADD PUSH1 0x40 MSTORE DUP1 PUSH1 0x2 SLOAD DUP2 MSTORE PUSH1 0x20 ADD DUP6 DUP2 MSTORE PUSH1 0x20 ADD DUP5 DUP2 MSTORE PUSH1 0x20 ADD CALLER PUSH20 0xFFFFFFFFFFFFFFFFFFFFFFFFFFFFFFFFFFFFFFFF AND DUP2 MSTORE PUSH1 0x20 ADD DUP4 DUP2 MSTORE PUSH1 0x20 ADD PUSH0 DUP2 MSTORE POP SWAP1 POP DUP1 PUSH0 DUP1 PUSH1 0x2 SLOAD DUP2 MSTORE PUSH1 0x20 ADD SWAP1 DUP2 MSTORE PUSH1 0x20 ADD PUSH0 KECCAK256 PUSH0 DUP3 ADD MLOAD DUP2 PUSH0 ADD SSTORE PUSH1 0x20 DUP3 ADD MLOAD DUP2 PUSH1 0x1 ADD SWAP1 DUP2 PUSH2 0x416 SWAP2 SWAP1 PUSH2 0x128E JUMP JUMPDEST POP PUSH1 0x40 DUP3 ADD MLOAD DUP2 PUSH1 0x2 ADD SWAP1 DUP2 PUSH2 0x42C SWAP2 SWAP1 PUSH2 0x128E JUMP JUMPDEST POP PUSH1 0x60 DUP3 ADD MLOAD DUP2 PUSH1 0x3 ADD PUSH0 PUSH2 0x100 EXP DUP2 SLOAD DUP2 PUSH20 0xFFFFFFFFFFFFFFFFFFFFFFFFFFFFFFFFFFFFFFFF MUL NOT AND SWAP1 DUP4 PUSH20 0xFFFFFFFFFFFFFFFFFFFFFFFFFFFFFFFFFFFFFFFF AND MUL OR SWAP1 SSTORE POP PUSH1 0x80 DUP3 ADD MLOAD DUP2 PUSH1 0x4 ADD SSTORE PUSH1 0xA0 DUP3 ADD MLOAD DUP2 PUSH1 0x5 ADD SSTORE SWAP1 POP POP PUSH1 0x2 PUSH0 DUP2 SLOAD DUP1 SWAP3 SWAP2 SWAP1 PUSH2 0x49C SWAP1 PUSH2 0x138A JUMP JUMPDEST SWAP2 SWAP1 POP SSTORE POP POP POP POP POP JUMP JUMPDEST PUSH0 DUP1 PUSH20 0xFFFFFFFFFFFFFFFFFFFFFFFFFFFFFFFFFFFFFFFF AND PUSH0 DUP1 DUP6 DUP2 MSTORE PUSH1 0x20 ADD SWAP1 DUP2 MSTORE PUSH1 0x20 ADD PUSH0 KECCAK256 PUSH1 0x3 ADD PUSH0 SWAP1 SLOAD SWAP1 PUSH2 0x100 EXP SWAP1 DIV PUSH20 0xFFFFFFFFFFFFFFFFFFFFFFFFFFFFFFFFFFFFFFFF AND PUSH20 0xFFFFFFFFFFFFFFFFFFFFFFFFFFFFFFFFFFFFFFFF AND SUB PUSH2 0x548 JUMPI PUSH1 0x40 MLOAD PUSH32 0x8C379A000000000000000000000000000000000000000000000000000000000 DUP2 MSTORE PUSH1 0x4 ADD PUSH2 0x53F SWAP1 PUSH2 0x141B JUMP JUMPDEST PUSH1 0x40 MLOAD DUP1 SWAP2 SUB SWAP1 REVERT JUMPDEST PUSH0 PUSH1 0x1 PUSH0 DUP6 DUP2 MSTORE PUSH1 0x20 ADD SWAP1 DUP2 MSTORE PUSH1 0x20 ADD PUSH0 KECCAK256 PUSH0 DUP5 PUSH20 0xFFFFFFFFFFFFFFFFFFFFFFFFFFFFFFFFFFFFFFFF AND PUSH20 0xFFFFFFFFFFFFFFFFFFFFFFFFFFFFFFFFFFFFFFFF AND DUP2 MSTORE PUSH1 0x20 ADD SWAP1 DUP2 MSTORE PUSH1 0x20 ADD PUSH0 KECCAK256 SLOAD GT PUSH2 0x5D6 JUMPI PUSH1 0x40 MLOAD PUSH32 0x8C379A000000000000000000000000000000000000000000000000000000000 DUP2 MSTORE PUSH1 0x4 ADD PUSH2 0x5CD SWAP1 PUSH2 0x14A9 JUMP JUMPDEST PUSH1 0x40 MLOAD DUP1 SWAP2 SUB SWAP1 REVERT JUMPDEST PUSH1 0x1 PUSH0 DUP5 DUP2 MSTORE PUSH1 0x20 ADD SWAP1 DUP2 MSTORE PUSH1 0x20 ADD PUSH0 KECCAK256 PUSH0 DUP4 PUSH20 0xFFFFFFFFFFFFFFFFFFFFFFFFFFFFFFFFFFFFFFFF AND PUSH20 0xFFFFFFFFFFFFFFFFFFFFFFFFFFFFFFFFFFFFFFFF AND DUP2 MSTORE PUSH1 0x20 ADD SWAP1 DUP2 MSTORE PUSH1 0x20 ADD PUSH0 KECCAK256 SLOAD SWAP1 POP SWAP3 SWAP2 POP POP JUMP JUMPDEST PUSH0 PUSH1 0x60 DUP1 PUSH0 DUP1 PUSH0 DUP1 PUSH20 0xFFFFFFFFFFFFFFFFFFFFFFFFFFFFFFFFFFFFFFFF AND PUSH0 DUP1 DUP10 DUP2 MSTORE PUSH1 0x20 ADD SWAP1 DUP2 MSTORE PUSH1 0x20 ADD PUSH0 KECCAK256 PUSH1 0x3 ADD PUSH0 SWAP1 SLOAD SWAP1 PUSH2 0x100 EXP SWAP1 DIV PUSH20 0xFFFFFFFFFFFFFFFFFFFFFFFFFFFFFFFFFFFFFFFF AND PUSH20 0xFFFFFFFFFFFFFFFFFFFFFFFFFFFFFFFFFFFFFFFF AND SUB PUSH2 0x6D2 JUMPI PUSH1 0x40 MLOAD PUSH32 0x8C379A000000000000000000000000000000000000000000000000000000000 DUP2 MSTORE PUSH1 0x4 ADD PUSH2 0x6C9 SWAP1 PUSH2 0x1511 JUMP JUMPDEST PUSH1 0x40 MLOAD DUP1 SWAP2 SUB SWAP1 REVERT JUMPDEST PUSH0 DUP1 PUSH0 DUP10 DUP2 MSTORE PUSH1 0x20 ADD SWAP1 DUP2 MSTORE PUSH1 0x20 ADD PUSH0 KECCAK256 SWAP1 POP DUP1 PUSH0 ADD SLOAD DUP2 PUSH1 0x1 ADD DUP3 PUSH1 0x2 ADD DUP4 PUSH1 0x3 ADD PUSH0 SWAP1 SLOAD SWAP1 PUSH2 0x100 EXP SWAP1 DIV PUSH20 0xFFFFFFFFFFFFFFFFFFFFFFFFFFFFFFFFFFFFFFFF AND DUP5 PUSH1 0x4 ADD SLOAD DUP6 PUSH1 0x5 ADD SLOAD DUP5 DUP1 SLOAD PUSH2 0x72B SWAP1 PUSH2 0x10C1 JUMP JUMPDEST DUP1 PUSH1 0x1F ADD PUSH1 0x20 DUP1 SWAP2 DIV MUL PUSH1 0x20 ADD PUSH1 0x40 MLOAD SWAP1 DUP2 ADD PUSH1 0x40 MSTORE DUP1 SWAP3 SWAP2 SWAP1 DUP2 DUP2 MSTORE PUSH1 0x20 ADD DUP3 DUP1 SLOAD PUSH2 0x757 SWAP1 PUSH2 0x10C1 JUMP JUMPDEST DUP1 ISZERO PUSH2 0x7A2 JUMPI DUP1 PUSH1 0x1F LT PUSH2 0x779 JUMPI PUSH2 0x100 DUP1 DUP4 SLOAD DIV MUL DUP4 MSTORE SWAP2 PUSH1 0x20 ADD SWAP2 PUSH2 0x7A2 JUMP JUMPDEST DUP3 ADD SWAP2 SWAP1 PUSH0 MSTORE PUSH1 0x20 PUSH0 KECCAK256 SWAP1 JUMPDEST DUP2 SLOAD DUP2 MSTORE SWAP1 PUSH1 0x1 ADD SWAP1 PUSH1 0x20 ADD DUP1 DUP4 GT PUSH2 0x785 JUMPI DUP3 SWAP1 SUB PUSH1 0x1F AND DUP3 ADD SWAP2 JUMPDEST POP POP POP POP POP SWAP5 POP DUP4 DUP1 SLOAD PUSH2 0x7B5 SWAP1 PUSH2 0x10C1 JUMP JUMPDEST DUP1 PUSH1 0x1F ADD PUSH1 0x20 DUP1 SWAP2 DIV MUL PUSH1 0x20 ADD PUSH1 0x40 MLOAD SWAP1 DUP2 ADD PUSH1 0x40 MSTORE DUP1 SWAP3 SWAP2 SWAP1 DUP2 DUP2 MSTORE PUSH1 0x20 ADD DUP3 DUP1 SLOAD PUSH2 0x7E1 SWAP1 PUSH2 0x10C1 JUMP JUMPDEST DUP1 ISZERO PUSH2 0x82C JUMPI DUP1 PUSH1 0x1F LT PUSH2 0x803 JUMPI PUSH2 0x100 DUP1 DUP4 SLOAD DIV MUL DUP4 MSTORE SWAP2 PUSH1 0x20 ADD SWAP2 PUSH2 0x82C JUMP JUMPDEST DUP3 ADD SWAP2 SWAP1 PUSH0 MSTORE PUSH1 0x20 PUSH0 KECCAK256 SWAP1 JUMPDEST DUP2 SLOAD DUP2 MSTORE SWAP1 PUSH1 0x1 ADD SWAP1 PUSH1 0x20 ADD DUP1 DUP4 GT PUSH2 0x80F JUMPI DUP3 SWAP1 SUB PUSH1 0x1F AND DUP3 ADD SWAP2 JUMPDEST POP POP POP POP POP SWAP4 POP SWAP7 POP SWAP7 POP SWAP7 POP SWAP7 POP SWAP7 POP SWAP7 POP POP SWAP2 SWAP4 SWAP6 POP SWAP2 SWAP4 SWAP6 JUMP JUMPDEST PUSH0 PUSH20 0xFFFFFFFFFFFFFFFFFFFFFFFFFFFFFFFFFFFFFFFF AND PUSH0 DUP1 DUP4 DUP2 MSTORE PUSH1 0x20 ADD SWAP1 DUP2 MSTORE PUSH1 0x20 ADD PUSH0 KECCAK256 PUSH1 0x3 ADD PUSH0 SWAP1 SLOAD SWAP1 PUSH2 0x100 EXP SWAP1 DIV PUSH20 0xFFFFFFFFFFFFFFFFFFFFFFFFFFFFFFFFFFFFFFFF AND PUSH20 0xFFFFFFFFFFFFFFFFFFFFFFFFFFFFFFFFFFFFFFFF AND SUB PUSH2 0x8E9 JUMPI PUSH1 0x40 MLOAD PUSH32 0x8C379A000000000000000000000000000000000000000000000000000000000 DUP2 MSTORE PUSH1 0x4 ADD PUSH2 0x8E0 SWAP1 PUSH2 0x1511 JUMP JUMPDEST PUSH1 0x40 MLOAD DUP1 SWAP2 SUB SWAP1 REVERT JUMPDEST PUSH0 CALLVALUE SWAP1 POP PUSH0 DUP1 PUSH0 DUP5 DUP2 MSTORE PUSH1 0x20 ADD SWAP1 DUP2 MSTORE PUSH1 0x20 ADD PUSH0 KECCAK256 SWAP1 POP DUP1 PUSH1 0x4 ADD SLOAD DUP3 EQ PUSH2 0x946 JUMPI PUSH1 0x40 MLOAD PUSH32 0x8C379A000000000000000000000000000000000000000000000000000000000 DUP2 MSTORE PUSH1 0x4 ADD PUSH2 0x93D SWAP1 PUSH2 0x159F JUMP JUMPDEST PUSH1 0x40 MLOAD DUP1 SWAP2 SUB SWAP1 REVERT JUMPDEST DUP2 DUP2 PUSH1 0x5 ADD PUSH0 DUP3 DUP3 SLOAD PUSH2 0x959 SWAP2 SWAP1 PUSH2 0x15BD JUMP JUMPDEST SWAP3 POP POP DUP2 SWAP1 SSTORE POP DUP2 PUSH1 0x1 PUSH0 DUP6 DUP2 MSTORE PUSH1 0x20 ADD SWAP1 DUP2 MSTORE PUSH1 0x20 ADD PUSH0 KECCAK256 PUSH0 CALLER PUSH20 0xFFFFFFFFFFFFFFFFFFFFFFFFFFFFFFFFFFFFFFFF AND PUSH20 0xFFFFFFFFFFFFFFFFFFFFFFFFFFFFFFFFFFFFFFFF AND DUP2 MSTORE PUSH1 0x20 ADD SWAP1 DUP2 MSTORE PUSH1 0x20 ADD PUSH0 KECCAK256 PUSH0 DUP3 DUP3 SLOAD PUSH2 0x9BB SWAP2 SWAP1 PUSH2 0x15BD JUMP JUMPDEST SWAP3 POP POP DUP2 SWAP1 SSTORE POP ADDRESS PUSH20 0xFFFFFFFFFFFFFFFFFFFFFFFFFFFFFFFFFFFFFFFF AND PUSH2 0x8FC DUP4 SWAP1 DUP2 ISZERO MUL SWAP1 PUSH1 0x40 MLOAD PUSH0 PUSH1 0x40 MLOAD DUP1 DUP4 SUB DUP2 DUP6 DUP9 DUP9 CALL SWAP4 POP POP POP POP ISZERO DUP1 ISZERO PUSH2 0xA05 JUMPI RETURNDATASIZE PUSH0 DUP1 RETURNDATACOPY RETURNDATASIZE PUSH0 REVERT JUMPDEST POP POP POP POP JUMP JUMPDEST PUSH0 DUP2 SWAP1 POP SWAP2 SWAP1 POP JUMP JUMPDEST PUSH2 0xA1D DUP2 PUSH2 0xA0B JUMP JUMPDEST DUP3 MSTORE POP POP JUMP JUMPDEST PUSH0 PUSH1 0x20 DUP3 ADD SWAP1 POP PUSH2 0xA36 PUSH0 DUP4 ADD DUP5 PUSH2 0xA14 JUMP JUMPDEST SWAP3 SWAP2 POP POP JUMP JUMPDEST PUSH0 PUSH1 0x40 MLOAD SWAP1 POP SWAP1 JUMP JUMPDEST PUSH0 DUP1 REVERT JUMPDEST PUSH0 DUP1 REVERT JUMPDEST PUSH2 0xA56 DUP2 PUSH2 0xA0B JUMP JUMPDEST DUP2 EQ PUSH2 0xA60 JUMPI PUSH0 DUP1 REVERT JUMPDEST POP JUMP JUMPDEST PUSH0 DUP2 CALLDATALOAD SWAP1 POP PUSH2 0xA71 DUP2 PUSH2 0xA4D JUMP JUMPDEST SWAP3 SWAP2 POP POP JUMP JUMPDEST PUSH0 PUSH1 0x20 DUP3 DUP5 SUB SLT ISZERO PUSH2 0xA8C JUMPI PUSH2 0xA8B PUSH2 0xA45 JUMP JUMPDEST JUMPDEST PUSH0 PUSH2 0xA99 DUP5 DUP3 DUP6 ADD PUSH2 0xA63 JUMP JUMPDEST SWAP2 POP POP SWAP3 SWAP2 POP POP JUMP JUMPDEST PUSH0 DUP1 REVERT JUMPDEST PUSH0 DUP1 REVERT JUMPDEST PUSH0 PUSH1 0x1F NOT PUSH1 0x1F DUP4 ADD AND SWAP1 POP SWAP2 SWAP1 POP JUMP JUMPDEST PUSH32 0x4E487B7100000000000000000000000000000000000000000000000000000000 PUSH0 MSTORE PUSH1 0x41 PUSH1 0x4 MSTORE PUSH1 0x24 PUSH0 REVERT JUMPDEST PUSH2 0xAF0 DUP3 PUSH2 0xAAA JUMP JUMPDEST DUP2 ADD DUP2 DUP2 LT PUSH8 0xFFFFFFFFFFFFFFFF DUP3 GT OR ISZERO PUSH2 0xB0F JUMPI PUSH2 0xB0E PUSH2 0xABA JUMP JUMPDEST JUMPDEST DUP1 PUSH1 0x40 MSTORE POP POP POP JUMP JUMPDEST PUSH0 PUSH2 0xB21 PUSH2 0xA3C JUMP JUMPDEST SWAP1 POP PUSH2 0xB2D DUP3 DUP3 PUSH2 0xAE7 JUMP JUMPDEST SWAP2 SWAP1 POP JUMP JUMPDEST PUSH0 PUSH8 0xFFFFFFFFFFFFFFFF DUP3 GT ISZERO PUSH2 0xB4C JUMPI PUSH2 0xB4B PUSH2 0xABA JUMP JUMPDEST JUMPDEST PUSH2 0xB55 DUP3 PUSH2 0xAAA JUMP JUMPDEST SWAP1 POP PUSH1 0x20 DUP2 ADD SWAP1 POP SWAP2 SWAP1 POP JUMP JUMPDEST DUP3 DUP2 DUP4 CALLDATACOPY PUSH0 DUP4 DUP4 ADD MSTORE POP POP POP JUMP JUMPDEST PUSH0 PUSH2 0xB82 PUSH2 0xB7D DUP5 PUSH2 0xB32 JUMP JUMPDEST PUSH2 0xB18 JUMP JUMPDEST SWAP1 POP DUP3 DUP2 MSTORE PUSH1 0x20 DUP2 ADD DUP5 DUP5 DUP5 ADD GT ISZERO PUSH2 0xB9E JUMPI PUSH2 0xB9D PUSH2 0xAA6 JUMP JUMPDEST JUMPDEST PUSH2 0xBA9 DUP5 DUP3 DUP6 PUSH2 0xB62 JUMP JUMPDEST POP SWAP4 SWAP3 POP POP POP JUMP JUMPDEST PUSH0 DUP3 PUSH1 0x1F DUP4 ADD SLT PUSH2 0xBC5 JUMPI PUSH2 0xBC4 PUSH2 0xAA2 JUMP JUMPDEST JUMPDEST DUP2 CALLDATALOAD PUSH2 0xBD5 DUP5 DUP3 PUSH1 0x20 DUP7 ADD PUSH2 0xB70 JUMP JUMPDEST SWAP2 POP POP SWAP3 SWAP2 POP POP JUMP JUMPDEST PUSH0 DUP1 PUSH0 PUSH1 0x60 DUP5 DUP7 SUB SLT ISZERO PUSH2 0xBF5 JUMPI PUSH2 0xBF4 PUSH2 0xA45 JUMP JUMPDEST JUMPDEST PUSH0 DUP5 ADD CALLDATALOAD PUSH8 0xFFFFFFFFFFFFFFFF DUP2 GT ISZERO PUSH2 0xC12 JUMPI PUSH2 0xC11 PUSH2 0xA49 JUMP JUMPDEST JUMPDEST PUSH2 0xC1E DUP7 DUP3 DUP8 ADD PUSH2 0xBB1 JUMP JUMPDEST SWAP4 POP POP PUSH1 0x20 DUP5 ADD CALLDATALOAD PUSH8 0xFFFFFFFFFFFFFFFF DUP2 GT ISZERO PUSH2 0xC3F JUMPI PUSH2 0xC3E PUSH2 0xA49 JUMP JUMPDEST JUMPDEST PUSH2 0xC4B DUP7 DUP3 DUP8 ADD PUSH2 0xBB1 JUMP JUMPDEST SWAP3 POP POP PUSH1 0x40 PUSH2 0xC5C DUP7 DUP3 DUP8 ADD PUSH2 0xA63 JUMP JUMPDEST SWAP2 POP POP SWAP3 POP SWAP3 POP SWAP3 JUMP JUMPDEST PUSH0 PUSH20 0xFFFFFFFFFFFFFFFFFFFFFFFFFFFFFFFFFFFFFFFF DUP3 AND SWAP1 POP SWAP2 SWAP1 POP JUMP JUMPDEST PUSH0 PUSH2 0xC8F DUP3 PUSH2 0xC66 JUMP JUMPDEST SWAP1 POP SWAP2 SWAP1 POP JUMP JUMPDEST PUSH2 0xC9F DUP2 PUSH2 0xC85 JUMP JUMPDEST DUP2 EQ PUSH2 0xCA9 JUMPI PUSH0 DUP1 REVERT JUMPDEST POP JUMP JUMPDEST PUSH0 DUP2 CALLDATALOAD SWAP1 POP PUSH2 0xCBA DUP2 PUSH2 0xC96 JUMP JUMPDEST SWAP3 SWAP2 POP POP JUMP JUMPDEST PUSH0 DUP1 PUSH1 0x40 DUP4 DUP6 SUB SLT ISZERO PUSH2 0xCD6 JUMPI PUSH2 0xCD5 PUSH2 0xA45 JUMP JUMPDEST JUMPDEST PUSH0 PUSH2 0xCE3 DUP6 DUP3 DUP7 ADD PUSH2 0xA63 JUMP JUMPDEST SWAP3 POP POP PUSH1 0x20 PUSH2 0xCF4 DUP6 DUP3 DUP7 ADD PUSH2 0xCAC JUMP JUMPDEST SWAP2 POP POP SWAP3 POP SWAP3 SWAP1 POP JUMP JUMPDEST PUSH0 DUP2 MLOAD SWAP1 POP SWAP2 SWAP1 POP JUMP JUMPDEST PUSH0 DUP3 DUP3 MSTORE PUSH1 0x20 DUP3 ADD SWAP1 POP SWAP3 SWAP2 POP POP JUMP JUMPDEST PUSH0 JUMPDEST DUP4 DUP2 LT ISZERO PUSH2 0xD35 JUMPI DUP1 DUP3 ADD MLOAD DUP2 DUP5 ADD MSTORE PUSH1 0x20 DUP2 ADD SWAP1 POP PUSH2 0xD1A JUMP JUMPDEST PUSH0 DUP5 DUP5 ADD MSTORE POP POP POP POP JUMP JUMPDEST PUSH0 PUSH2 0xD4A DUP3 PUSH2 0xCFE JUMP JUMPDEST PUSH2 0xD54 DUP2 DUP6 PUSH2 0xD08 JUMP JUMPDEST SWAP4 POP PUSH2 0xD64 DUP2 DUP6 PUSH1 0x20 DUP7 ADD PUSH2 0xD18 JUMP JUMPDEST PUSH2 0xD6D DUP2 PUSH2 0xAAA JUMP JUMPDEST DUP5 ADD SWAP2 POP POP SWAP3 SWAP2 POP POP JUMP JUMPDEST PUSH2 0xD81 DUP2 PUSH2 0xC85 JUMP JUMPDEST DUP3 MSTORE POP POP JUMP JUMPDEST PUSH0 PUSH1 0xC0 DUP3 ADD SWAP1 POP PUSH2 0xD9A PUSH0 DUP4 ADD DUP10 PUSH2 0xA14 JUMP JUMPDEST DUP2 DUP2 SUB PUSH1 0x20 DUP4 ADD MSTORE PUSH2 0xDAC DUP2 DUP9 PUSH2 0xD40 JUMP JUMPDEST SWAP1 POP DUP2 DUP2 SUB PUSH1 0x40 DUP4 ADD MSTORE PUSH2 0xDC0 DUP2 DUP8 PUSH2 0xD40 JUMP JUMPDEST SWAP1 POP PUSH2 0xDCF PUSH1 0x60 DUP4 ADD DUP7 PUSH2 0xD78 JUMP JUMPDEST PUSH2 0xDDC PUSH1 0x80 DUP4 ADD DUP6 PUSH2 0xA14 JUMP JUMPDEST PUSH2 0xDE9 PUSH1 0xA0 DUP4 ADD DUP5 PUSH2 0xA14 JUMP JUMPDEST SWAP8 SWAP7 POP POP POP POP POP POP POP JUMP JUMPDEST PUSH32 0x596F75206D757374206265207468652070726F6A656374204F776E657220746F PUSH0 DUP3 ADD MSTORE PUSH32 0x207769746864726177207468652066756E64732E000000000000000000000000 PUSH1 0x20 DUP3 ADD MSTORE POP JUMP JUMPDEST PUSH0 PUSH2 0xE4E PUSH1 0x34 DUP4 PUSH2 0xD08 JUMP JUMPDEST SWAP2 POP PUSH2 0xE59 DUP3 PUSH2 0xDF4 JUMP JUMPDEST PUSH1 0x40 DUP3 ADD SWAP1 POP SWAP2 SWAP1 POP JUMP JUMPDEST PUSH0 PUSH1 0x20 DUP3 ADD SWAP1 POP DUP2 DUP2 SUB PUSH0 DUP4 ADD MSTORE PUSH2 0xE7B DUP2 PUSH2 0xE42 JUMP JUMPDEST SWAP1 POP SWAP2 SWAP1 POP JUMP JUMPDEST PUSH32 0x546865726520617265206E6F2066756E647320746F2077697468647261772066 PUSH0 DUP3 ADD MSTORE PUSH32 0x6F7220746869732070726F6A6563742E00000000000000000000000000000000 PUSH1 0x20 DUP3 ADD MSTORE POP JUMP JUMPDEST PUSH0 PUSH2 0xEDC PUSH1 0x30 DUP4 PUSH2 0xD08 JUMP JUMPDEST SWAP2 POP PUSH2 0xEE7 DUP3 PUSH2 0xE82 JUMP JUMPDEST PUSH1 0x40 DUP3 ADD SWAP1 POP SWAP2 SWAP1 POP JUMP JUMPDEST PUSH0 PUSH1 0x20 DUP3 ADD SWAP1 POP DUP2 DUP2 SUB PUSH0 DUP4 ADD MSTORE PUSH2 0xF09 DUP2 PUSH2 0xED0 JUMP JUMPDEST SWAP1 POP SWAP2 SWAP1 POP JUMP JUMPDEST PUSH32 0x50726F6A656374207469746C652063616E6E6F7420626520656D7074792E0000 PUSH0 DUP3 ADD MSTORE POP JUMP JUMPDEST PUSH0 PUSH2 0xF44 PUSH1 0x1E DUP4 PUSH2 0xD08 JUMP JUMPDEST SWAP2 POP PUSH2 0xF4F DUP3 PUSH2 0xF10 JUMP JUMPDEST PUSH1 0x20 DUP3 ADD SWAP1 POP SWAP2 SWAP1 POP JUMP JUMPDEST PUSH0 PUSH1 0x20 DUP3 ADD SWAP1 POP DUP2 DUP2 SUB PUSH0 DUP4 ADD MSTORE PUSH2 0xF71 DUP2 PUSH2 0xF38 JUMP JUMPDEST SWAP1 POP SWAP2 SWAP1 POP JUMP JUMPDEST PUSH32 0x50726F6A656374206465736372697074696F6E2063616E6E6F7420626520656D PUSH0 DUP3 ADD MSTORE PUSH32 0x7074792E00000000000000000000000000000000000000000000000000000000 PUSH1 0x20 DUP3 ADD MSTORE POP JUMP JUMPDEST PUSH0 PUSH2 0xFD2 PUSH1 0x24 DUP4 PUSH2 0xD08 JUMP JUMPDEST SWAP2 POP PUSH2 0xFDD DUP3 PUSH2 0xF78 JUMP JUMPDEST PUSH1 0x40 DUP3 ADD SWAP1 POP SWAP2 SWAP1 POP JUMP JUMPDEST PUSH0 PUSH1 0x20 DUP3 ADD SWAP1 POP DUP2 DUP2 SUB PUSH0 DUP4 ADD MSTORE PUSH2 0xFFF DUP2 PUSH2 0xFC6 JUMP JUMPDEST SWAP1 POP SWAP2 SWAP1 POP JUMP JUMPDEST PUSH32 0x50617274696369706174696F6E20616D6F756E74206D75737420626520677265 PUSH0 DUP3 ADD MSTORE PUSH32 0x61746572207468616E20302E0000000000000000000000000000000000000000 PUSH1 0x20 DUP3 ADD MSTORE POP JUMP JUMPDEST PUSH0 PUSH2 0x1060 PUSH1 0x2C DUP4 PUSH2 0xD08 JUMP JUMPDEST SWAP2 POP PUSH2 0x106B DUP3 PUSH2 0x1006 JUMP JUMPDEST PUSH1 0x40 DUP3 ADD SWAP1 POP SWAP2 SWAP1 POP JUMP JUMPDEST PUSH0 PUSH1 0x20 DUP3 ADD SWAP1 POP DUP2 DUP2 SUB PUSH0 DUP4 ADD MSTORE PUSH2 0x108D DUP2 PUSH2 0x1054 JUMP JUMPDEST SWAP1 POP SWAP2 SWAP1 POP JUMP JUMPDEST PUSH32 0x4E487B7100000000000000000000000000000000000000000000000000000000 PUSH0 MSTORE PUSH1 0x22 PUSH1 0x4 MSTORE PUSH1 0x24 PUSH0 REVERT JUMPDEST PUSH0 PUSH1 0x2 DUP3 DIV SWAP1 POP PUSH1 0x1 DUP3 AND DUP1 PUSH2 0x10D8 JUMPI PUSH1 0x7F DUP3 AND SWAP2 POP JUMPDEST PUSH1 0x20 DUP3 LT DUP2 SUB PUSH2 0x10EB JUMPI PUSH2 0x10EA PUSH2 0x1094 JUMP JUMPDEST JUMPDEST POP SWAP2 SWAP1 POP JUMP JUMPDEST PUSH0 DUP2 SWAP1 POP DUP2 PUSH0 MSTORE PUSH1 0x20 PUSH0 KECCAK256 SWAP1 POP SWAP2 SWAP1 POP JUMP JUMPDEST PUSH0 PUSH1 0x20 PUSH1 0x1F DUP4 ADD DIV SWAP1 POP SWAP2 SWAP1 POP JUMP JUMPDEST PUSH0 DUP3 DUP3 SHL SWAP1 POP SWAP3 SWAP2 POP POP JUMP JUMPDEST PUSH0 PUSH1 0x8 DUP4 MUL PUSH2 0x114D PUSH32 0xFFFFFFFFFFFFFFFFFFFFFFFFFFFFFFFFFFFFFFFFFFFFFFFFFFFFFFFFFFFFFFFF DUP3 PUSH2 0x1112 JUMP JUMPDEST PUSH2 0x1157 DUP7 DUP4 PUSH2 0x1112 JUMP JUMPDEST SWAP6 POP DUP1 NOT DUP5 AND SWAP4 POP DUP1 DUP7 AND DUP5 OR SWAP3 POP POP POP SWAP4 SWAP3 POP POP POP JUMP JUMPDEST PUSH0 DUP2 SWAP1 POP SWAP2 SWAP1 POP JUMP JUMPDEST PUSH0 PUSH2 0x1192 PUSH2 0x118D PUSH2 0x1188 DUP5 PUSH2 0xA0B JUMP JUMPDEST PUSH2 0x116F JUMP JUMPDEST PUSH2 0xA0B JUMP JUMPDEST SWAP1 POP SWAP2 SWAP1 POP JUMP JUMPDEST PUSH0 DUP2 SWAP1 POP SWAP2 SWAP1 POP JUMP JUMPDEST PUSH2 0x11AB DUP4 PUSH2 0x1178 JUMP JUMPDEST PUSH2 0x11BF PUSH2 0x11B7 DUP3 PUSH2 0x1199 JUMP JUMPDEST DUP5 DUP5 SLOAD PUSH2 0x111E JUMP JUMPDEST DUP3 SSTORE POP POP POP POP JUMP JUMPDEST PUSH0 SWAP1 JUMP JUMPDEST PUSH2 0x11D3 PUSH2 0x11C7 JUMP JUMPDEST PUSH2 0x11DE DUP2 DUP5 DUP5 PUSH2 0x11A2 JUMP JUMPDEST POP POP POP JUMP JUMPDEST JUMPDEST DUP2 DUP2 LT ISZERO PUSH2 0x1201 JUMPI PUSH2 0x11F6 PUSH0 DUP3 PUSH2 0x11CB JUMP JUMPDEST PUSH1 0x1 DUP2 ADD SWAP1 POP PUSH2 0x11E4 JUMP JUMPDEST POP POP JUMP JUMPDEST PUSH1 0x1F DUP3 GT ISZERO PUSH2 0x1246 JUMPI PUSH2 0x1217 DUP2 PUSH2 0x10F1 JUMP JUMPDEST PUSH2 0x1220 DUP5 PUSH2 0x1103 JUMP JUMPDEST DUP2 ADD PUSH1 0x20 DUP6 LT ISZERO PUSH2 0x122F JUMPI DUP2 SWAP1 POP JUMPDEST PUSH2 0x1243 PUSH2 0x123B DUP6 PUSH2 0x1103 JUMP JUMPDEST DUP4 ADD DUP3 PUSH2 0x11E3 JUMP JUMPDEST POP POP JUMPDEST POP POP POP JUMP JUMPDEST PUSH0 DUP3 DUP3 SHR SWAP1 POP SWAP3 SWAP2 POP POP JUMP JUMPDEST PUSH0 PUSH2 0x1266 PUSH0 NOT DUP5 PUSH1 0x8 MUL PUSH2 0x124B JUMP JUMPDEST NOT DUP1 DUP4 AND SWAP2 POP POP SWAP3 SWAP2 POP POP JUMP JUMPDEST PUSH0 PUSH2 0x127E DUP4 DUP4 PUSH2 0x1257 JUMP JUMPDEST SWAP2 POP DUP3 PUSH1 0x2 MUL DUP3 OR SWAP1 POP SWAP3 SWAP2 POP POP JUMP JUMPDEST PUSH2 0x1297 DUP3 PUSH2 0xCFE JUMP JUMPDEST PUSH8 0xFFFFFFFFFFFFFFFF DUP2 GT ISZERO PUSH2 0x12B0 JUMPI PUSH2 0x12AF PUSH2 0xABA JUMP JUMPDEST JUMPDEST PUSH2 0x12BA DUP3 SLOAD PUSH2 0x10C1 JUMP JUMPDEST PUSH2 0x12C5 DUP3 DUP3 DUP6 PUSH2 0x1205 JUMP JUMPDEST PUSH0 PUSH1 0x20 SWAP1 POP PUSH1 0x1F DUP4 GT PUSH1 0x1 DUP2 EQ PUSH2 0x12F6 JUMPI PUSH0 DUP5 ISZERO PUSH2 0x12E4 JUMPI DUP3 DUP8 ADD MLOAD SWAP1 POP JUMPDEST PUSH2 0x12EE DUP6 DUP3 PUSH2 0x1273 JUMP JUMPDEST DUP7 SSTORE POP PUSH2 0x1355 JUMP JUMPDEST PUSH1 0x1F NOT DUP5 AND PUSH2 0x1304 DUP7 PUSH2 0x10F1 JUMP JUMPDEST PUSH0 JUMPDEST DUP3 DUP2 LT ISZERO PUSH2 0x132B JUMPI DUP5 DUP10 ADD MLOAD DUP3 SSTORE PUSH1 0x1 DUP3 ADD SWAP2 POP PUSH1 0x20 DUP6 ADD SWAP5 POP PUSH1 0x20 DUP2 ADD SWAP1 POP PUSH2 0x1306 JUMP JUMPDEST DUP7 DUP4 LT ISZERO PUSH2 0x1348 JUMPI DUP5 DUP10 ADD MLOAD PUSH2 0x1344 PUSH1 0x1F DUP10 AND DUP3 PUSH2 0x1257 JUMP JUMPDEST DUP4 SSTORE POP JUMPDEST PUSH1 0x1 PUSH1 0x2 DUP9 MUL ADD DUP9 SSTORE POP POP POP JUMPDEST POP POP POP POP POP POP JUMP JUMPDEST PUSH32 0x4E487B7100000000000000000000000000000000000000000000000000000000 PUSH0 MSTORE PUSH1 0x11 PUSH1 0x4 MSTORE PUSH1 0x24 PUSH0 REVERT JUMPDEST PUSH0 PUSH2 0x1394 DUP3 PUSH2 0xA0B JUMP JUMPDEST SWAP2 POP PUSH32 0xFFFFFFFFFFFFFFFFFFFFFFFFFFFFFFFFFFFFFFFFFFFFFFFFFFFFFFFFFFFFFFFF DUP3 SUB PUSH2 0x13C6 JUMPI PUSH2 0x13C5 PUSH2 0x135D JUMP JUMPDEST JUMPDEST PUSH1 0x1 DUP3 ADD SWAP1 POP SWAP2 SWAP1 POP JUMP JUMPDEST PUSH32 0x496E76616C69642070726F6A6563742049440000000000000000000000000000 PUSH0 DUP3 ADD MSTORE POP JUMP JUMPDEST PUSH0 PUSH2 0x1405 PUSH1 0x12 DUP4 PUSH2 0xD08 JUMP JUMPDEST SWAP2 POP PUSH2 0x1410 DUP3 PUSH2 0x13D1 JUMP JUMPDEST PUSH1 0x20 DUP3 ADD SWAP1 POP SWAP2 SWAP1 POP JUMP JUMPDEST PUSH0 PUSH1 0x20 DUP3 ADD SWAP1 POP DUP2 DUP2 SUB PUSH0 DUP4 ADD MSTORE PUSH2 0x1432 DUP2 PUSH2 0x13F9 JUMP JUMPDEST SWAP1 POP SWAP2 SWAP1 POP JUMP JUMPDEST PUSH32 0x5573657220686173206E6F742070617274696369706174656420696E20746869 PUSH0 DUP3 ADD MSTORE PUSH32 0x732070726F6A6563740000000000000000000000000000000000000000000000 PUSH1 0x20 DUP3 ADD MSTORE POP JUMP JUMPDEST PUSH0 PUSH2 0x1493 PUSH1 0x29 DUP4 PUSH2 0xD08 JUMP JUMPDEST SWAP2 POP PUSH2 0x149E DUP3 PUSH2 0x1439 JUMP JUMPDEST PUSH1 0x40 DUP3 ADD SWAP1 POP SWAP2 SWAP1 POP JUMP JUMPDEST PUSH0 PUSH1 0x20 DUP3 ADD SWAP1 POP DUP2 DUP2 SUB PUSH0 DUP4 ADD MSTORE PUSH2 0x14C0 DUP2 PUSH2 0x1487 JUMP JUMPDEST SWAP1 POP SWAP2 SWAP1 POP JUMP JUMPDEST PUSH32 0x50726F6A65637420646F6573206E6F742065786973742E000000000000000000 PUSH0 DUP3 ADD MSTORE POP JUMP JUMPDEST PUSH0 PUSH2 0x14FB PUSH1 0x17 DUP4 PUSH2 0xD08 JUMP JUMPDEST SWAP2 POP PUSH2 0x1506 DUP3 PUSH2 0x14C7 JUMP JUMPDEST PUSH1 0x20 DUP3 ADD SWAP1 POP SWAP2 SWAP1 POP JUMP JUMPDEST PUSH0 PUSH1 0x20 DUP3 ADD SWAP1 POP DUP2 DUP2 SUB PUSH0 DUP4 ADD MSTORE PUSH2 0x1528 DUP2 PUSH2 0x14EF JUMP JUMPDEST SWAP1 POP SWAP2 SWAP1 POP JUMP JUMPDEST PUSH32 0x50617274696369706174696F6E20616D6F756E74206973206E6F7420636F7272 PUSH0 DUP3 ADD MSTORE PUSH32 0x6563742E00000000000000000000000000000000000000000000000000000000 PUSH1 0x20 DUP3 ADD MSTORE POP JUMP JUMPDEST PUSH0 PUSH2 0x1589 PUSH1 0x24 DUP4 PUSH2 0xD08 JUMP JUMPDEST SWAP2 POP PUSH2 0x1594 DUP3 PUSH2 0x152F JUMP JUMPDEST PUSH1 0x40 DUP3 ADD SWAP1 POP SWAP2 SWAP1 POP JUMP JUMPDEST PUSH0 PUSH1 0x20 DUP3 ADD SWAP1 POP DUP2 DUP2 SUB PUSH0 DUP4 ADD MSTORE PUSH2 0x15B6 DUP2 PUSH2 0x157D JUMP JUMPDEST SWAP1 POP SWAP2 SWAP1 POP JUMP JUMPDEST PUSH0 PUSH2 0x15C7 DUP3 PUSH2 0xA0B JUMP JUMPDEST SWAP2 POP PUSH2 0x15D2 DUP4 PUSH2 0xA0B JUMP JUMPDEST SWAP3 POP DUP3 DUP3 ADD SWAP1 POP DUP1 DUP3 GT ISZERO PUSH2 0x15EA JUMPI PUSH2 0x15E9 PUSH2 0x135D JUMP JUMPDEST JUMPDEST SWAP3 SWAP2 POP POP JUMP INVALID LOG2 PUSH5 0x6970667358 0x22 SLT KECCAK256 0xE4 0x2C 0xDC SLOAD 0xE8 0x24 0xD5 EXTCODEHASH 0xD9 XOR SWAP11 0xDD DUP3 ADDRESS INVALID DUP6 PUSH2 0x9C71 0x26 PUSH23 0x2C8C45CDE0D5B00D03BD2864736F6C6343000814003300 "
				},
				"gasEstimates": {
					"creation": {
						"codeDepositCost": "1134000",
						"executionCost": "23284",
						"totalCost": "1157284"
					},
					"external": {
						"": "194",
						"createProject(string,string,uint256)": "infinite",
						"getBalance()": "312",
						"getProjectDetails(uint256)": "infinite",
						"participateToProject(uint256)": "infinite",
						"retrieveContributions(uint256,address)": "infinite",
						"withdrawFunds(uint256)": "infinite"
					}
				},
				"methodIdentifiers": {
					"createProject(string,string,uint256)": "23c55448",
					"getBalance()": "12065fe0",
					"getProjectDetails(uint256)": "5f8439e3",
					"participateToProject(uint256)": "77ef7e3c",
					"retrieveContributions(uint256,address)": "2abf8709",
					"withdrawFunds(uint256)": "155dd5ee"
				}
			},
			"storageLayout": {
				"storage": [
					{
						"astId": 23,
						"contract": "contracts/CrowdfundingAssignmentUnic.sol:CrowdfundingAssignmentUnic",
						"label": "projects",
						"offset": 0,
						"slot": "0",
						"type": "t_mapping(t_uint256,t_struct(Project)18_storage)"
					},
					{
						"astId": 29,
						"contract": "contracts/CrowdfundingAssignmentUnic.sol:CrowdfundingAssignmentUnic",
						"label": "participation",
						"offset": 0,
						"slot": "1",
						"type": "t_mapping(t_uint256,t_mapping(t_address,t_uint256))"
					},
					{
						"astId": 32,
						"contract": "contracts/CrowdfundingAssignmentUnic.sol:CrowdfundingAssignmentUnic",
						"label": "nextProjectID",
						"offset": 0,
						"slot": "2",
						"type": "t_uint256"
					}
				],
				"types": {
					"t_address": {
						"encoding": "inplace",
						"label": "address",
						"numberOfBytes": "20"
					},
					"t_mapping(t_address,t_uint256)": {
						"encoding": "mapping",
						"key": "t_address",
						"label": "mapping(address => uint256)",
						"numberOfBytes": "32",
						"value": "t_uint256"
					},
					"t_mapping(t_uint256,t_mapping(t_address,t_uint256))": {
						"encoding": "mapping",
						"key": "t_uint256",
						"label": "mapping(uint256 => mapping(address => uint256))",
						"numberOfBytes": "32",
						"value": "t_mapping(t_address,t_uint256)"
					},
					"t_mapping(t_uint256,t_struct(Project)18_storage)": {
						"encoding": "mapping",
						"key": "t_uint256",
						"label": "mapping(uint256 => struct CrowdfundingAssignmentUnic.Project)",
						"numberOfBytes": "32",
						"value": "t_struct(Project)18_storage"
					},
					"t_string_storage": {
						"encoding": "bytes",
						"label": "string",
						"numberOfBytes": "32"
					},
					"t_struct(Project)18_storage": {
						"encoding": "inplace",
						"label": "struct CrowdfundingAssignmentUnic.Project",
						"members": [
							{
								"astId": 7,
								"contract": "contracts/CrowdfundingAssignmentUnic.sol:CrowdfundingAssignmentUnic",
								"label": "projectID",
								"offset": 0,
								"slot": "0",
								"type": "t_uint256"
							},
							{
								"astId": 9,
								"contract": "contracts/CrowdfundingAssignmentUnic.sol:CrowdfundingAssignmentUnic",
								"label": "projectTitle",
								"offset": 0,
								"slot": "1",
								"type": "t_string_storage"
							},
							{
								"astId": 11,
								"contract": "contracts/CrowdfundingAssignmentUnic.sol:CrowdfundingAssignmentUnic",
								"label": "projectDescription",
								"offset": 0,
								"slot": "2",
								"type": "t_string_storage"
							},
							{
								"astId": 13,
								"contract": "contracts/CrowdfundingAssignmentUnic.sol:CrowdfundingAssignmentUnic",
								"label": "projectOwner",
								"offset": 0,
								"slot": "3",
								"type": "t_address"
							},
							{
								"astId": 15,
								"contract": "contracts/CrowdfundingAssignmentUnic.sol:CrowdfundingAssignmentUnic",
								"label": "projectParticipationAmount",
								"offset": 0,
								"slot": "4",
								"type": "t_uint256"
							},
							{
								"astId": 17,
								"contract": "contracts/CrowdfundingAssignmentUnic.sol:CrowdfundingAssignmentUnic",
								"label": "projectTotalFundingAmount",
								"offset": 0,
								"slot": "5",
								"type": "t_uint256"
							}
						],
						"numberOfBytes": "192"
					},
					"t_uint256": {
						"encoding": "inplace",
						"label": "uint256",
						"numberOfBytes": "32"
					}
				}
			},
			"userdoc": {
				"kind": "user",
				"methods": {},
				"version": 1
			}
		}
	}
}