{
	"contracts/Week4Exercises.sol": {
		"Week4Exercises": {
			"abi": [
				{
					"inputs": [],
					"stateMutability": "nonpayable",
					"type": "constructor"
				},
				{
					"inputs": [],
					"name": "findMax",
					"outputs": [
						{
							"internalType": "uint256",
							"name": "",
							"type": "uint256"
						}
					],
					"stateMutability": "view",
					"type": "function"
				},
				{
					"inputs": [
						{
							"internalType": "uint256",
							"name": "",
							"type": "uint256"
						}
					],
					"name": "numArray",
					"outputs": [
						{
							"internalType": "uint256",
							"name": "",
							"type": "uint256"
						}
					],
					"stateMutability": "view",
					"type": "function"
				},
				{
					"inputs": [
						{
							"internalType": "uint256",
							"name": "_index",
							"type": "uint256"
						}
					],
					"name": "removeElement",
					"outputs": [
						{
							"internalType": "uint256[]",
							"name": "",
							"type": "uint256[]"
						}
					],
					"stateMutability": "nonpayable",
					"type": "function"
				},
				{
					"inputs": [],
					"name": "returnArray",
					"outputs": [
						{
							"internalType": "uint256[]",
							"name": "",
							"type": "uint256[]"
						}
					],
					"stateMutability": "view",
					"type": "function"
				}
			],
			"devdoc": {
				"kind": "dev",
				"methods": {},
				"version": 1
			},
			"evm": {
				"assembly": "    /* \"contracts/Week4Exercises.sol\":72:1677  contract Week4Exercises {... */\n  mstore(0x40, 0x80)\n    /* \"contracts/Week4Exercises.sol\":131:190  constructor() {... */\n  callvalue\n  dup1\n  iszero\n  tag_1\n  jumpi\n  0x00\n  dup1\n  revert\ntag_1:\n  pop\n    /* \"contracts/Week4Exercises.sol\":155:183  numArray = [2,62,10,33,12,9] */\n  mload(0x40)\n  dup1\n  0xc0\n  add\n  0x40\n  mstore\n  dup1\n    /* \"contracts/Week4Exercises.sol\":167:168  2 */\n  0x02\n    /* \"contracts/Week4Exercises.sol\":155:183  numArray = [2,62,10,33,12,9] */\n  0xff\n  and\n  dup2\n  mstore\n  0x20\n  add\n    /* \"contracts/Week4Exercises.sol\":169:171  62 */\n  0x3e\n    /* \"contracts/Week4Exercises.sol\":155:183  numArray = [2,62,10,33,12,9] */\n  0xff\n  and\n  dup2\n  mstore\n  0x20\n  add\n    /* \"contracts/Week4Exercises.sol\":172:174  10 */\n  0x0a\n    /* \"contracts/Week4Exercises.sol\":155:183  numArray = [2,62,10,33,12,9] */\n  0xff\n  and\n  dup2\n  mstore\n  0x20\n  add\n    /* \"contracts/Week4Exercises.sol\":175:177  33 */\n  0x21\n    /* \"contracts/Week4Exercises.sol\":155:183  numArray = [2,62,10,33,12,9] */\n  0xff\n  and\n  dup2\n  mstore\n  0x20\n  add\n    /* \"contracts/Week4Exercises.sol\":178:180  12 */\n  0x0c\n    /* \"contracts/Week4Exercises.sol\":155:183  numArray = [2,62,10,33,12,9] */\n  0xff\n  and\n  dup2\n  mstore\n  0x20\n  add\n    /* \"contracts/Week4Exercises.sol\":181:182  9 */\n  0x09\n    /* \"contracts/Week4Exercises.sol\":155:183  numArray = [2,62,10,33,12,9] */\n  0xff\n  and\n  dup2\n  mstore\n  pop\n    /* \"contracts/Week4Exercises.sol\":155:163  numArray */\n  0x00\n    /* \"contracts/Week4Exercises.sol\":155:183  numArray = [2,62,10,33,12,9] */\n  swap1\n  0x06\n  tag_4\n  swap3\n  swap2\n  swap1\n  tag_5\n  jump\t// in\ntag_4:\n  pop\n    /* \"contracts/Week4Exercises.sol\":72:1677  contract Week4Exercises {... */\n  jump(tag_6)\ntag_5:\n  dup3\n  dup1\n  sload\n  dup3\n  dup3\n  sstore\n  swap1\n  0x00\n  mstore\n  keccak256(0x00, 0x20)\n  swap1\n  dup2\n  add\n  swap3\n  dup3\n  iszero\n  tag_7\n  jumpi\n  swap2\n  0x20\n  mul\n  dup3\n  add\ntag_8:\n  dup3\n  dup2\n  gt\n  iszero\n  tag_9\n  jumpi\n  dup3\n  mload\n  dup3\n  swap1\n  0xff\n  and\n  swap1\n  sstore\n  swap2\n  0x20\n  add\n  swap2\n  swap1\n  0x01\n  add\n  swap1\n  jump(tag_8)\ntag_9:\ntag_7:\n  pop\n  swap1\n  pop\n  tag_10\n  swap2\n  swap1\n  tag_11\n  jump\t// in\ntag_10:\n  pop\n  swap1\n  jump\t// out\ntag_11:\ntag_12:\n  dup1\n  dup3\n  gt\n  iszero\n  tag_13\n  jumpi\n  0x00\n  dup2\n  0x00\n  swap1\n  sstore\n  pop\n  0x01\n  add\n  jump(tag_12)\ntag_13:\n  pop\n  swap1\n  jump\t// out\ntag_6:\n  dataSize(sub_0)\n  dup1\n  dataOffset(sub_0)\n  0x00\n  codecopy\n  0x00\n  return\nstop\n\nsub_0: assembly {\n        /* \"contracts/Week4Exercises.sol\":72:1677  contract Week4Exercises {... */\n      mstore(0x40, 0x80)\n      callvalue\n      dup1\n      iszero\n      tag_1\n      jumpi\n      0x00\n      dup1\n      revert\n    tag_1:\n      pop\n      jumpi(tag_2, lt(calldatasize, 0x04))\n      shr(0xe0, calldataload(0x00))\n      dup1\n      0x3cac14c8\n      eq\n      tag_3\n      jumpi\n      dup1\n      0x6e734738\n      eq\n      tag_4\n      jumpi\n      dup1\n      0x737385ac\n      eq\n      tag_5\n      jumpi\n      dup1\n      0x9fc37abf\n      eq\n      tag_6\n      jumpi\n    tag_2:\n      0x00\n      dup1\n      revert\n        /* \"contracts/Week4Exercises.sol\":244:337  function returnArray() public view returns(uint256[] memory) {... */\n    tag_3:\n      tag_7\n      tag_8\n      jump\t// in\n    tag_7:\n      mload(0x40)\n      dup1\n      dup1\n      0x20\n      add\n      dup3\n      dup2\n      sub\n      dup3\n      mstore\n      dup4\n      dup2\n      dup2\n      mload\n      dup2\n      mstore\n      0x20\n      add\n      swap2\n      pop\n      dup1\n      mload\n      swap1\n      0x20\n      add\n      swap1\n      0x20\n      mul\n      dup1\n      dup4\n      dup4\n      0x00\n    tag_9:\n      dup4\n      dup2\n      lt\n      iszero\n      tag_11\n      jumpi\n      dup1\n      dup3\n      add\n      mload\n      dup2\n      dup5\n      add\n      mstore\n      0x20\n      dup2\n      add\n      swap1\n      pop\n      jump(tag_9)\n    tag_11:\n      pop\n      pop\n      pop\n      pop\n      swap1\n      pop\n      add\n      swap3\n      pop\n      pop\n      pop\n      mload(0x40)\n      dup1\n      swap2\n      sub\n      swap1\n      return\n        /* \"contracts/Week4Exercises.sol\":102:124  uint[] public numArray */\n    tag_4:\n      tag_12\n      0x04\n      dup1\n      calldatasize\n      sub\n      0x20\n      dup2\n      lt\n      iszero\n      tag_13\n      jumpi\n      0x00\n      dup1\n      revert\n    tag_13:\n      dup2\n      add\n      swap1\n      dup1\n      dup1\n      calldataload\n      swap1\n      0x20\n      add\n      swap1\n      swap3\n      swap2\n      swap1\n      pop\n      pop\n      pop\n      tag_14\n      jump\t// in\n    tag_12:\n      mload(0x40)\n      dup1\n      dup3\n      dup2\n      mstore\n      0x20\n      add\n      swap2\n      pop\n      pop\n      mload(0x40)\n      dup1\n      swap2\n      sub\n      swap1\n      return\n        /* \"contracts/Week4Exercises.sol\":418:852  function findMax() public view returns(uint256) {... */\n    tag_5:\n      tag_15\n      tag_16\n      jump\t// in\n    tag_15:\n      mload(0x40)\n      dup1\n      dup3\n      dup2\n      mstore\n      0x20\n      add\n      swap2\n      pop\n      pop\n      mload(0x40)\n      dup1\n      swap2\n      sub\n      swap1\n      return\n        /* \"contracts/Week4Exercises.sol\":941:1675  function removeElement(uint256 _index) public returns (uint[] memory){... */\n    tag_6:\n      tag_17\n      0x04\n      dup1\n      calldatasize\n      sub\n      0x20\n      dup2\n      lt\n      iszero\n      tag_18\n      jumpi\n      0x00\n      dup1\n      revert\n    tag_18:\n      dup2\n      add\n      swap1\n      dup1\n      dup1\n      calldataload\n      swap1\n      0x20\n      add\n      swap1\n      swap3\n      swap2\n      swap1\n      pop\n      pop\n      pop\n      tag_19\n      jump\t// in\n    tag_17:\n      mload(0x40)\n      dup1\n      dup1\n      0x20\n      add\n      dup3\n      dup2\n      sub\n      dup3\n      mstore\n      dup4\n      dup2\n      dup2\n      mload\n      dup2\n      mstore\n      0x20\n      add\n      swap2\n      pop\n      dup1\n      mload\n      swap1\n      0x20\n      add\n      swap1\n      0x20\n      mul\n      dup1\n      dup4\n      dup4\n      0x00\n    tag_20:\n      dup4\n      dup2\n      lt\n      iszero\n      tag_22\n      jumpi\n      dup1\n      dup3\n      add\n      mload\n      dup2\n      dup5\n      add\n      mstore\n      0x20\n      dup2\n      add\n      swap1\n      pop\n      jump(tag_20)\n    tag_22:\n      pop\n      pop\n      pop\n      pop\n      swap1\n      pop\n      add\n      swap3\n      pop\n      pop\n      pop\n      mload(0x40)\n      dup1\n      swap2\n      sub\n      swap1\n      return\n        /* \"contracts/Week4Exercises.sol\":244:337  function returnArray() public view returns(uint256[] memory) {... */\n    tag_8:\n        /* \"contracts/Week4Exercises.sol\":287:303  uint256[] memory */\n      0x60\n        /* \"contracts/Week4Exercises.sol\":322:330  numArray */\n      0x00\n        /* \"contracts/Week4Exercises.sol\":315:330  return numArray */\n      dup1\n      sload\n      dup1\n      0x20\n      mul\n      0x20\n      add\n      mload(0x40)\n      swap1\n      dup2\n      add\n      0x40\n      mstore\n      dup1\n      swap3\n      swap2\n      swap1\n      dup2\n      dup2\n      mstore\n      0x20\n      add\n      dup3\n      dup1\n      sload\n      dup1\n      iszero\n      tag_24\n      jumpi\n      0x20\n      mul\n      dup3\n      add\n      swap2\n      swap1\n      0x00\n      mstore\n      keccak256(0x00, 0x20)\n      swap1\n    tag_25:\n      dup2\n      sload\n      dup2\n      mstore\n      0x20\n      add\n      swap1\n      0x01\n      add\n      swap1\n      dup1\n      dup4\n      gt\n      tag_25\n      jumpi\n    tag_24:\n      pop\n      pop\n      pop\n      pop\n      pop\n      swap1\n      pop\n        /* \"contracts/Week4Exercises.sol\":244:337  function returnArray() public view returns(uint256[] memory) {... */\n      swap1\n      jump\t// out\n        /* \"contracts/Week4Exercises.sol\":102:124  uint[] public numArray */\n    tag_14:\n      0x00\n      dup2\n      dup2\n      sload\n      dup2\n      lt\n      tag_26\n      jumpi\n      0x00\n      dup1\n      revert\n    tag_26:\n      swap1\n      0x00\n      mstore\n      keccak256(0x00, 0x20)\n      add\n      0x00\n      swap2\n      pop\n      swap1\n      pop\n      sload\n      dup2\n      jump\t// out\n        /* \"contracts/Week4Exercises.sol\":418:852  function findMax() public view returns(uint256) {... */\n    tag_16:\n        /* \"contracts/Week4Exercises.sol\":457:464  uint256 */\n      0x00\n        /* \"contracts/Week4Exercises.sol\":560:576  uint256 maxValue */\n      dup1\n        /* \"contracts/Week4Exercises.sol\":579:580  0 */\n      0x00\n        /* \"contracts/Week4Exercises.sol\":560:580  uint256 maxValue = 0 */\n      swap1\n      pop\n        /* \"contracts/Week4Exercises.sol\":590:597  uint8 i */\n      0x00\n        /* \"contracts/Week4Exercises.sol\":675:821  for (i = 0; i < numArray.length; i++) {... */\n    tag_29:\n        /* \"contracts/Week4Exercises.sol\":691:699  numArray */\n      0x00\n        /* \"contracts/Week4Exercises.sol\":691:706  numArray.length */\n      dup1\n      sload\n      swap1\n      pop\n        /* \"contracts/Week4Exercises.sol\":687:688  i */\n      dup2\n        /* \"contracts/Week4Exercises.sol\":687:706  i < numArray.length */\n      0xff\n      and\n      lt\n        /* \"contracts/Week4Exercises.sol\":675:821  for (i = 0; i < numArray.length; i++) {... */\n      iszero\n      tag_30\n      jumpi\n        /* \"contracts/Week4Exercises.sol\":745:753  maxValue */\n      dup2\n        /* \"contracts/Week4Exercises.sol\":731:739  numArray */\n      0x00\n        /* \"contracts/Week4Exercises.sol\":740:741  i */\n      dup3\n        /* \"contracts/Week4Exercises.sol\":731:742  numArray[i] */\n      0xff\n      and\n      dup2\n      sload\n      dup2\n      lt\n      tag_32\n      jumpi\n      invalid\n    tag_32:\n      swap1\n      0x00\n      mstore\n      keccak256(0x00, 0x20)\n      add\n      sload\n        /* \"contracts/Week4Exercises.sol\":731:753  numArray[i] > maxValue */\n      gt\n        /* \"contracts/Week4Exercises.sol\":727:810  if (numArray[i] > maxValue) {... */\n      iszero\n      tag_34\n      jumpi\n        /* \"contracts/Week4Exercises.sol\":784:792  numArray */\n      0x00\n        /* \"contracts/Week4Exercises.sol\":793:794  i */\n      dup2\n        /* \"contracts/Week4Exercises.sol\":784:795  numArray[i] */\n      0xff\n      and\n      dup2\n      sload\n      dup2\n      lt\n      tag_35\n      jumpi\n      invalid\n    tag_35:\n      swap1\n      0x00\n      mstore\n      keccak256(0x00, 0x20)\n      add\n      sload\n        /* \"contracts/Week4Exercises.sol\":773:795  maxValue = numArray[i] */\n      swap2\n      pop\n        /* \"contracts/Week4Exercises.sol\":727:810  if (numArray[i] > maxValue) {... */\n    tag_34:\n        /* \"contracts/Week4Exercises.sol\":708:711  i++ */\n      dup1\n      dup1\n      0x01\n      add\n      swap2\n      pop\n      pop\n        /* \"contracts/Week4Exercises.sol\":675:821  for (i = 0; i < numArray.length; i++) {... */\n      jump(tag_29)\n    tag_30:\n        /* \"contracts/Week4Exercises.sol\":837:845  maxValue */\n      dup2\n        /* \"contracts/Week4Exercises.sol\":830:845  return maxValue */\n      swap3\n      pop\n      pop\n      pop\n        /* \"contracts/Week4Exercises.sol\":418:852  function findMax() public view returns(uint256) {... */\n      swap1\n      jump\t// out\n        /* \"contracts/Week4Exercises.sol\":941:1675  function removeElement(uint256 _index) public returns (uint[] memory){... */\n    tag_19:\n        /* \"contracts/Week4Exercises.sol\":996:1009  uint[] memory */\n      0x60\n        /* \"contracts/Week4Exercises.sol\":1079:1085  uint i */\n      0x00\n        /* \"contracts/Week4Exercises.sol\":1263:1264  1 */\n      0x01\n        /* \"contracts/Week4Exercises.sol\":1247:1255  numArray */\n      0x00\n        /* \"contracts/Week4Exercises.sol\":1247:1262  numArray.length */\n      dup1\n      sload\n      swap1\n      pop\n        /* \"contracts/Week4Exercises.sol\":1247:1264  numArray.length-1 */\n      sub\n        /* \"contracts/Week4Exercises.sol\":1237:1243  _index */\n      dup4\n        /* \"contracts/Week4Exercises.sol\":1237:1264  _index <= numArray.length-1 */\n      gt\n      iszero\n        /* \"contracts/Week4Exercises.sol\":1229:1311  require(_index <= numArray.length-1, \"Incorrect value entered, please try again.\") */\n      tag_38\n      jumpi\n      mload(0x40)\n      0x08c379a000000000000000000000000000000000000000000000000000000000\n      dup2\n      mstore\n      0x04\n      add\n      dup1\n      dup1\n      0x20\n      add\n      dup3\n      dup2\n      sub\n      dup3\n      mstore\n      0x2a\n      dup2\n      mstore\n      0x20\n      add\n      dup1\n      data_97eb9d39a52a573f50753f0db488afdb97a51a0283c59f67754e9a4dfe5915ee\n      0x2a\n      swap2\n      codecopy\n      0x40\n      add\n      swap2\n      pop\n      pop\n      mload(0x40)\n      dup1\n      swap2\n      sub\n      swap1\n      revert\n    tag_38:\n        /* \"contracts/Week4Exercises.sol\":1403:1409  _index */\n      dup3\n        /* \"contracts/Week4Exercises.sol\":1399:1409  i = _index */\n      swap1\n      pop\n        /* \"contracts/Week4Exercises.sol\":1394:1491  for (i = _index; i < numArray.length-1; i++) {... */\n    tag_39:\n        /* \"contracts/Week4Exercises.sol\":1431:1432  1 */\n      0x01\n        /* \"contracts/Week4Exercises.sol\":1415:1423  numArray */\n      0x00\n        /* \"contracts/Week4Exercises.sol\":1415:1430  numArray.length */\n      dup1\n      sload\n      swap1\n      pop\n        /* \"contracts/Week4Exercises.sol\":1415:1432  numArray.length-1 */\n      sub\n        /* \"contracts/Week4Exercises.sol\":1411:1412  i */\n      dup2\n        /* \"contracts/Week4Exercises.sol\":1411:1432  i < numArray.length-1 */\n      lt\n        /* \"contracts/Week4Exercises.sol\":1394:1491  for (i = _index; i < numArray.length-1; i++) {... */\n      iszero\n      tag_40\n      jumpi\n        /* \"contracts/Week4Exercises.sol\":1467:1475  numArray */\n      0x00\n        /* \"contracts/Week4Exercises.sol\":1478:1479  1 */\n      0x01\n        /* \"contracts/Week4Exercises.sol\":1476:1477  i */\n      dup3\n        /* \"contracts/Week4Exercises.sol\":1476:1479  i+1 */\n      add\n        /* \"contracts/Week4Exercises.sol\":1467:1480  numArray[i+1] */\n      dup2\n      sload\n      dup2\n      lt\n      tag_42\n      jumpi\n      invalid\n    tag_42:\n      swap1\n      0x00\n      mstore\n      keccak256(0x00, 0x20)\n      add\n      sload\n        /* \"contracts/Week4Exercises.sol\":1453:1461  numArray */\n      0x00\n        /* \"contracts/Week4Exercises.sol\":1462:1463  i */\n      dup3\n        /* \"contracts/Week4Exercises.sol\":1453:1464  numArray[i] */\n      dup2\n      sload\n      dup2\n      lt\n      tag_44\n      jumpi\n      invalid\n    tag_44:\n      swap1\n      0x00\n      mstore\n      keccak256(0x00, 0x20)\n      add\n        /* \"contracts/Week4Exercises.sol\":1453:1480  numArray[i] = numArray[i+1] */\n      dup2\n      swap1\n      sstore\n      pop\n        /* \"contracts/Week4Exercises.sol\":1434:1437  i++ */\n      dup1\n      dup1\n      0x01\n      add\n      swap2\n      pop\n      pop\n        /* \"contracts/Week4Exercises.sol\":1394:1491  for (i = _index; i < numArray.length-1; i++) {... */\n      jump(tag_39)\n    tag_40:\n        /* \"contracts/Week4Exercises.sol\":1554:1562  numArray */\n      0x00\n        /* \"contracts/Week4Exercises.sol\":1554:1568  numArray.pop() */\n      dup1\n      sload\n      dup1\n      tag_46\n      jumpi\n      invalid\n    tag_46:\n      0x01\n      swap1\n      sub\n      dup2\n      dup2\n      swap1\n      0x00\n      mstore\n      keccak256(0x00, 0x20)\n      add\n      0x00\n      swap1\n      sstore\n      swap1\n      sstore\n        /* \"contracts/Week4Exercises.sol\":1660:1668  numArray */\n      0x00\n        /* \"contracts/Week4Exercises.sol\":1653:1668  return numArray */\n      dup1\n      sload\n      dup1\n      0x20\n      mul\n      0x20\n      add\n      mload(0x40)\n      swap1\n      dup2\n      add\n      0x40\n      mstore\n      dup1\n      swap3\n      swap2\n      swap1\n      dup2\n      dup2\n      mstore\n      0x20\n      add\n      dup3\n      dup1\n      sload\n      dup1\n      iszero\n      tag_48\n      jumpi\n      0x20\n      mul\n      dup3\n      add\n      swap2\n      swap1\n      0x00\n      mstore\n      keccak256(0x00, 0x20)\n      swap1\n    tag_49:\n      dup2\n      sload\n      dup2\n      mstore\n      0x20\n      add\n      swap1\n      0x01\n      add\n      swap1\n      dup1\n      dup4\n      gt\n      tag_49\n      jumpi\n    tag_48:\n      pop\n      pop\n      pop\n      pop\n      pop\n      swap2\n      pop\n      pop\n        /* \"contracts/Week4Exercises.sol\":941:1675  function removeElement(uint256 _index) public returns (uint[] memory){... */\n      swap2\n      swap1\n      pop\n      jump\t// out\n    stop\n    data_97eb9d39a52a573f50753f0db488afdb97a51a0283c59f67754e9a4dfe5915ee 496e636f72726563742076616c756520656e74657265642c20706c656173652074727920616761696e2e\n\n    auxdata: 0xa26469706673582212201e6b171dade91066f98f796f63ffe9a633eaa8ed9e137ed541a4cb4117694a8964736f6c63430007060033\n}\n",
				"bytecode": {
					"linkReferences": {},
					"object": "608060405234801561001057600080fd5b506040518060c00160405280600260ff168152602001603e60ff168152602001600a60ff168152602001602160ff168152602001600c60ff168152602001600960ff16815250600090600661006692919061006c565b506100db565b8280548282559060005260206000209081019282156100ad579160200282015b828111156100ac578251829060ff1690559160200191906001019061008c565b5b5090506100ba91906100be565b5090565b5b808211156100d75760008160009055506001016100bf565b5090565b610414806100ea6000396000f3fe608060405234801561001057600080fd5b506004361061004c5760003560e01c80633cac14c8146100515780636e734738146100b0578063737385ac146100f25780639fc37abf14610110575b600080fd5b610059610193565b6040518080602001828103825283818151815260200191508051906020019060200280838360005b8381101561009c578082015181840152602081019050610081565b505050509050019250505060405180910390f35b6100dc600480360360208110156100c657600080fd5b81019080803590602001909291905050506101eb565b6040518082815260200191505060405180910390f35b6100fa61020f565b6040518082815260200191505060405180910390f35b61013c6004803603602081101561012657600080fd5b810190808035906020019092919050505061027e565b6040518080602001828103825283818151815260200191508051906020019060200280838360005b8381101561017f578082015181840152602081019050610164565b505050509050019250505060405180910390f35b606060008054806020026020016040519081016040528092919081815260200182805480156101e157602002820191906000526020600020905b8154815260200190600101908083116101cd575b5050505050905090565b600081815481106101fb57600080fd5b906000526020600020016000915090505481565b6000806000905060005b6000805490508160ff161015610276578160008260ff168154811061023a57fe5b906000526020600020015411156102695760008160ff168154811061025b57fe5b906000526020600020015491505b8080600101915050610219565b819250505090565b606060006001600080549050038311156102e3576040517f08c379a000000000000000000000000000000000000000000000000000000000815260040180806020018281038252602a8152602001806103b5602a913960400191505060405180910390fd5b8290505b60016000805490500381101561033a576000600182018154811061030757fe5b90600052602060002001546000828154811061031f57fe5b906000526020600020018190555080806001019150506102e7565b600080548061034557fe5b6001900381819060005260206000200160009055905560008054806020026020016040519081016040528092919081815260200182805480156103a757602002820191906000526020600020905b815481526020019060010190808311610393575b505050505091505091905056fe496e636f72726563742076616c756520656e74657265642c20706c656173652074727920616761696e2ea26469706673582212201e6b171dade91066f98f796f63ffe9a633eaa8ed9e137ed541a4cb4117694a8964736f6c63430007060033",
					"opcodes": "PUSH1 0x80 PUSH1 0x40 MSTORE CALLVALUE DUP1 ISZERO PUSH2 0x10 JUMPI PUSH1 0x0 DUP1 REVERT JUMPDEST POP PUSH1 0x40 MLOAD DUP1 PUSH1 0xC0 ADD PUSH1 0x40 MSTORE DUP1 PUSH1 0x2 PUSH1 0xFF AND DUP2 MSTORE PUSH1 0x20 ADD PUSH1 0x3E PUSH1 0xFF AND DUP2 MSTORE PUSH1 0x20 ADD PUSH1 0xA PUSH1 0xFF AND DUP2 MSTORE PUSH1 0x20 ADD PUSH1 0x21 PUSH1 0xFF AND DUP2 MSTORE PUSH1 0x20 ADD PUSH1 0xC PUSH1 0xFF AND DUP2 MSTORE PUSH1 0x20 ADD PUSH1 0x9 PUSH1 0xFF AND DUP2 MSTORE POP PUSH1 0x0 SWAP1 PUSH1 0x6 PUSH2 0x66 SWAP3 SWAP2 SWAP1 PUSH2 0x6C JUMP JUMPDEST POP PUSH2 0xDB JUMP JUMPDEST DUP3 DUP1 SLOAD DUP3 DUP3 SSTORE SWAP1 PUSH1 0x0 MSTORE PUSH1 0x20 PUSH1 0x0 KECCAK256 SWAP1 DUP2 ADD SWAP3 DUP3 ISZERO PUSH2 0xAD JUMPI SWAP2 PUSH1 0x20 MUL DUP3 ADD JUMPDEST DUP3 DUP2 GT ISZERO PUSH2 0xAC JUMPI DUP3 MLOAD DUP3 SWAP1 PUSH1 0xFF AND SWAP1 SSTORE SWAP2 PUSH1 0x20 ADD SWAP2 SWAP1 PUSH1 0x1 ADD SWAP1 PUSH2 0x8C JUMP JUMPDEST JUMPDEST POP SWAP1 POP PUSH2 0xBA SWAP2 SWAP1 PUSH2 0xBE JUMP JUMPDEST POP SWAP1 JUMP JUMPDEST JUMPDEST DUP1 DUP3 GT ISZERO PUSH2 0xD7 JUMPI PUSH1 0x0 DUP2 PUSH1 0x0 SWAP1 SSTORE POP PUSH1 0x1 ADD PUSH2 0xBF JUMP JUMPDEST POP SWAP1 JUMP JUMPDEST PUSH2 0x414 DUP1 PUSH2 0xEA PUSH1 0x0 CODECOPY PUSH1 0x0 RETURN INVALID PUSH1 0x80 PUSH1 0x40 MSTORE CALLVALUE DUP1 ISZERO PUSH2 0x10 JUMPI PUSH1 0x0 DUP1 REVERT JUMPDEST POP PUSH1 0x4 CALLDATASIZE LT PUSH2 0x4C JUMPI PUSH1 0x0 CALLDATALOAD PUSH1 0xE0 SHR DUP1 PUSH4 0x3CAC14C8 EQ PUSH2 0x51 JUMPI DUP1 PUSH4 0x6E734738 EQ PUSH2 0xB0 JUMPI DUP1 PUSH4 0x737385AC EQ PUSH2 0xF2 JUMPI DUP1 PUSH4 0x9FC37ABF EQ PUSH2 0x110 JUMPI JUMPDEST PUSH1 0x0 DUP1 REVERT JUMPDEST PUSH2 0x59 PUSH2 0x193 JUMP JUMPDEST PUSH1 0x40 MLOAD DUP1 DUP1 PUSH1 0x20 ADD DUP3 DUP2 SUB DUP3 MSTORE DUP4 DUP2 DUP2 MLOAD DUP2 MSTORE PUSH1 0x20 ADD SWAP2 POP DUP1 MLOAD SWAP1 PUSH1 0x20 ADD SWAP1 PUSH1 0x20 MUL DUP1 DUP4 DUP4 PUSH1 0x0 JUMPDEST DUP4 DUP2 LT ISZERO PUSH2 0x9C JUMPI DUP1 DUP3 ADD MLOAD DUP2 DUP5 ADD MSTORE PUSH1 0x20 DUP2 ADD SWAP1 POP PUSH2 0x81 JUMP JUMPDEST POP POP POP POP SWAP1 POP ADD SWAP3 POP POP POP PUSH1 0x40 MLOAD DUP1 SWAP2 SUB SWAP1 RETURN JUMPDEST PUSH2 0xDC PUSH1 0x4 DUP1 CALLDATASIZE SUB PUSH1 0x20 DUP2 LT ISZERO PUSH2 0xC6 JUMPI PUSH1 0x0 DUP1 REVERT JUMPDEST DUP2 ADD SWAP1 DUP1 DUP1 CALLDATALOAD SWAP1 PUSH1 0x20 ADD SWAP1 SWAP3 SWAP2 SWAP1 POP POP POP PUSH2 0x1EB JUMP JUMPDEST PUSH1 0x40 MLOAD DUP1 DUP3 DUP2 MSTORE PUSH1 0x20 ADD SWAP2 POP POP PUSH1 0x40 MLOAD DUP1 SWAP2 SUB SWAP1 RETURN JUMPDEST PUSH2 0xFA PUSH2 0x20F JUMP JUMPDEST PUSH1 0x40 MLOAD DUP1 DUP3 DUP2 MSTORE PUSH1 0x20 ADD SWAP2 POP POP PUSH1 0x40 MLOAD DUP1 SWAP2 SUB SWAP1 RETURN JUMPDEST PUSH2 0x13C PUSH1 0x4 DUP1 CALLDATASIZE SUB PUSH1 0x20 DUP2 LT ISZERO PUSH2 0x126 JUMPI PUSH1 0x0 DUP1 REVERT JUMPDEST DUP2 ADD SWAP1 DUP1 DUP1 CALLDATALOAD SWAP1 PUSH1 0x20 ADD SWAP1 SWAP3 SWAP2 SWAP1 POP POP POP PUSH2 0x27E JUMP JUMPDEST PUSH1 0x40 MLOAD DUP1 DUP1 PUSH1 0x20 ADD DUP3 DUP2 SUB DUP3 MSTORE DUP4 DUP2 DUP2 MLOAD DUP2 MSTORE PUSH1 0x20 ADD SWAP2 POP DUP1 MLOAD SWAP1 PUSH1 0x20 ADD SWAP1 PUSH1 0x20 MUL DUP1 DUP4 DUP4 PUSH1 0x0 JUMPDEST DUP4 DUP2 LT ISZERO PUSH2 0x17F JUMPI DUP1 DUP3 ADD MLOAD DUP2 DUP5 ADD MSTORE PUSH1 0x20 DUP2 ADD SWAP1 POP PUSH2 0x164 JUMP JUMPDEST POP POP POP POP SWAP1 POP ADD SWAP3 POP POP POP PUSH1 0x40 MLOAD DUP1 SWAP2 SUB SWAP1 RETURN JUMPDEST PUSH1 0x60 PUSH1 0x0 DUP1 SLOAD DUP1 PUSH1 0x20 MUL PUSH1 0x20 ADD PUSH1 0x40 MLOAD SWAP1 DUP2 ADD PUSH1 0x40 MSTORE DUP1 SWAP3 SWAP2 SWAP1 DUP2 DUP2 MSTORE PUSH1 0x20 ADD DUP3 DUP1 SLOAD DUP1 ISZERO PUSH2 0x1E1 JUMPI PUSH1 0x20 MUL DUP3 ADD SWAP2 SWAP1 PUSH1 0x0 MSTORE PUSH1 0x20 PUSH1 0x0 KECCAK256 SWAP1 JUMPDEST DUP2 SLOAD DUP2 MSTORE PUSH1 0x20 ADD SWAP1 PUSH1 0x1 ADD SWAP1 DUP1 DUP4 GT PUSH2 0x1CD JUMPI JUMPDEST POP POP POP POP POP SWAP1 POP SWAP1 JUMP JUMPDEST PUSH1 0x0 DUP2 DUP2 SLOAD DUP2 LT PUSH2 0x1FB JUMPI PUSH1 0x0 DUP1 REVERT JUMPDEST SWAP1 PUSH1 0x0 MSTORE PUSH1 0x20 PUSH1 0x0 KECCAK256 ADD PUSH1 0x0 SWAP2 POP SWAP1 POP SLOAD DUP2 JUMP JUMPDEST PUSH1 0x0 DUP1 PUSH1 0x0 SWAP1 POP PUSH1 0x0 JUMPDEST PUSH1 0x0 DUP1 SLOAD SWAP1 POP DUP2 PUSH1 0xFF AND LT ISZERO PUSH2 0x276 JUMPI DUP2 PUSH1 0x0 DUP3 PUSH1 0xFF AND DUP2 SLOAD DUP2 LT PUSH2 0x23A JUMPI INVALID JUMPDEST SWAP1 PUSH1 0x0 MSTORE PUSH1 0x20 PUSH1 0x0 KECCAK256 ADD SLOAD GT ISZERO PUSH2 0x269 JUMPI PUSH1 0x0 DUP2 PUSH1 0xFF AND DUP2 SLOAD DUP2 LT PUSH2 0x25B JUMPI INVALID JUMPDEST SWAP1 PUSH1 0x0 MSTORE PUSH1 0x20 PUSH1 0x0 KECCAK256 ADD SLOAD SWAP2 POP JUMPDEST DUP1 DUP1 PUSH1 0x1 ADD SWAP2 POP POP PUSH2 0x219 JUMP JUMPDEST DUP2 SWAP3 POP POP POP SWAP1 JUMP JUMPDEST PUSH1 0x60 PUSH1 0x0 PUSH1 0x1 PUSH1 0x0 DUP1 SLOAD SWAP1 POP SUB DUP4 GT ISZERO PUSH2 0x2E3 JUMPI PUSH1 0x40 MLOAD PUSH32 0x8C379A000000000000000000000000000000000000000000000000000000000 DUP2 MSTORE PUSH1 0x4 ADD DUP1 DUP1 PUSH1 0x20 ADD DUP3 DUP2 SUB DUP3 MSTORE PUSH1 0x2A DUP2 MSTORE PUSH1 0x20 ADD DUP1 PUSH2 0x3B5 PUSH1 0x2A SWAP2 CODECOPY PUSH1 0x40 ADD SWAP2 POP POP PUSH1 0x40 MLOAD DUP1 SWAP2 SUB SWAP1 REVERT JUMPDEST DUP3 SWAP1 POP JUMPDEST PUSH1 0x1 PUSH1 0x0 DUP1 SLOAD SWAP1 POP SUB DUP2 LT ISZERO PUSH2 0x33A JUMPI PUSH1 0x0 PUSH1 0x1 DUP3 ADD DUP2 SLOAD DUP2 LT PUSH2 0x307 JUMPI INVALID JUMPDEST SWAP1 PUSH1 0x0 MSTORE PUSH1 0x20 PUSH1 0x0 KECCAK256 ADD SLOAD PUSH1 0x0 DUP3 DUP2 SLOAD DUP2 LT PUSH2 0x31F JUMPI INVALID JUMPDEST SWAP1 PUSH1 0x0 MSTORE PUSH1 0x20 PUSH1 0x0 KECCAK256 ADD DUP2 SWAP1 SSTORE POP DUP1 DUP1 PUSH1 0x1 ADD SWAP2 POP POP PUSH2 0x2E7 JUMP JUMPDEST PUSH1 0x0 DUP1 SLOAD DUP1 PUSH2 0x345 JUMPI INVALID JUMPDEST PUSH1 0x1 SWAP1 SUB DUP2 DUP2 SWAP1 PUSH1 0x0 MSTORE PUSH1 0x20 PUSH1 0x0 KECCAK256 ADD PUSH1 0x0 SWAP1 SSTORE SWAP1 SSTORE PUSH1 0x0 DUP1 SLOAD DUP1 PUSH1 0x20 MUL PUSH1 0x20 ADD PUSH1 0x40 MLOAD SWAP1 DUP2 ADD PUSH1 0x40 MSTORE DUP1 SWAP3 SWAP2 SWAP1 DUP2 DUP2 MSTORE PUSH1 0x20 ADD DUP3 DUP1 SLOAD DUP1 ISZERO PUSH2 0x3A7 JUMPI PUSH1 0x20 MUL DUP3 ADD SWAP2 SWAP1 PUSH1 0x0 MSTORE PUSH1 0x20 PUSH1 0x0 KECCAK256 SWAP1 JUMPDEST DUP2 SLOAD DUP2 MSTORE PUSH1 0x20 ADD SWAP1 PUSH1 0x1 ADD SWAP1 DUP1 DUP4 GT PUSH2 0x393 JUMPI JUMPDEST POP POP POP POP POP SWAP2 POP POP SWAP2 SWAP1 POP JUMP INVALID 0x49 PUSH15 0x636F72726563742076616C75652065 PUSH15 0x74657265642C20706C656173652074 PUSH19 0x7920616761696E2EA26469706673582212201E PUSH12 0x171DADE91066F98F796F63FF 0xE9 0xA6 CALLER 0xEA 0xA8 0xED SWAP15 SGT PUSH31 0xD541A4CB4117694A8964736F6C634300070600330000000000000000000000 "
				},
				"gasEstimates": {
					"creation": {
						"codeDepositCost": "208800",
						"executionCost": "infinite",
						"totalCost": "infinite"
					},
					"external": {
						"findMax()": "infinite",
						"numArray(uint256)": "1980",
						"removeElement(uint256)": "infinite",
						"returnArray()": "infinite"
					}
				},
				"methodIdentifiers": {
					"findMax()": "737385ac",
					"numArray(uint256)": "6e734738",
					"removeElement(uint256)": "9fc37abf",
					"returnArray()": "3cac14c8"
				}
			},
			"storageLayout": {
				"storage": [
					{
						"astId": 4,
						"contract": "contracts/Week4Exercises.sol:Week4Exercises",
						"label": "numArray",
						"offset": 0,
						"slot": "0",
						"type": "t_array(t_uint256)dyn_storage"
					}
				],
				"types": {
					"t_array(t_uint256)dyn_storage": {
						"base": "t_uint256",
						"encoding": "dynamic_array",
						"label": "uint256[]",
						"numberOfBytes": "32"
					},
					"t_uint256": {
						"encoding": "inplace",
						"label": "uint256",
						"numberOfBytes": "32"
					}
				}
			},
			"userdoc": {
				"kind": "user",
				"methods": {},
				"version": 1
			}
		}
	}
}