{
	"contracts/StructActivity.sol": {
		"structActivity": {
			"abi": [
				{
					"inputs": [],
					"stateMutability": "nonpayable",
					"type": "constructor"
				},
				{
					"inputs": [],
					"name": "counter",
					"outputs": [
						{
							"internalType": "uint256",
							"name": "",
							"type": "uint256"
						}
					],
					"stateMutability": "view",
					"type": "function"
				},
				{
					"inputs": [
						{
							"internalType": "uint256",
							"name": "_id",
							"type": "uint256"
						},
						{
							"internalType": "string",
							"name": "_name",
							"type": "string"
						},
						{
							"internalType": "string",
							"name": "_course",
							"type": "string"
						}
					],
					"name": "registerEducator",
					"outputs": [],
					"stateMutability": "nonpayable",
					"type": "function"
				},
				{
					"inputs": [
						{
							"internalType": "string",
							"name": "_name",
							"type": "string"
						}
					],
					"name": "retrieveEducatorData",
					"outputs": [
						{
							"internalType": "uint256",
							"name": "",
							"type": "uint256"
						},
						{
							"internalType": "string",
							"name": "",
							"type": "string"
						},
						{
							"internalType": "string",
							"name": "",
							"type": "string"
						}
					],
					"stateMutability": "view",
					"type": "function"
				}
			],
			"devdoc": {
				"kind": "dev",
				"methods": {},
				"version": 1
			},
			"evm": {
				"assembly": "    /* \"contracts/StructActivity.sol\":410:2792  contract structActivity {... */\n  mstore(0x40, 0x80)\n    /* \"contracts/StructActivity.sol\":748:790  constructor() {... */\n  callvalue\n  dup1\n  iszero\n  tag_1\n  jumpi\n  0x00\n  dup1\n  revert\ntag_1:\n  pop\n    /* \"contracts/StructActivity.sol\":782:783  0 */\n  0x00\n    /* \"contracts/StructActivity.sol\":772:779  counter */\n  dup1\n    /* \"contracts/StructActivity.sol\":772:783  counter = 0 */\n  dup2\n  swap1\n  sstore\n  pop\n    /* \"contracts/StructActivity.sol\":410:2792  contract structActivity {... */\n  dataSize(sub_0)\n  dup1\n  dataOffset(sub_0)\n  0x00\n  codecopy\n  0x00\n  return\nstop\n\nsub_0: assembly {\n        /* \"contracts/StructActivity.sol\":410:2792  contract structActivity {... */\n      mstore(0x40, 0x80)\n      callvalue\n      dup1\n      iszero\n      tag_1\n      jumpi\n      0x00\n      dup1\n      revert\n    tag_1:\n      pop\n      jumpi(tag_2, lt(calldatasize, 0x04))\n      shr(0xe0, calldataload(0x00))\n      dup1\n      0x0d1fe383\n      eq\n      tag_3\n      jumpi\n      dup1\n      0x2a1963d2\n      eq\n      tag_4\n      jumpi\n      dup1\n      0x61bc221a\n      eq\n      tag_5\n      jumpi\n    tag_2:\n      0x00\n      dup1\n      revert\n        /* \"contracts/StructActivity.sol\":1053:1558  function registerEducator(uint256 _id, string memory _name, string memory _course) public {... */\n    tag_3:\n      tag_6\n      0x04\n      dup1\n      calldatasize\n      sub\n      dup2\n      add\n      swap1\n      tag_7\n      swap2\n      swap1\n      tag_8\n      jump\t// in\n    tag_7:\n      tag_9\n      jump\t// in\n    tag_6:\n      stop\n        /* \"contracts/StructActivity.sol\":1628:2368  function retrieveEducatorData(string memory _name) public view returns (uint256, string memory, string memory) {... */\n    tag_4:\n      tag_10\n      0x04\n      dup1\n      calldatasize\n      sub\n      dup2\n      add\n      swap1\n      tag_11\n      swap2\n      swap1\n      tag_12\n      jump\t// in\n    tag_11:\n      tag_13\n      jump\t// in\n    tag_10:\n      mload(0x40)\n      tag_14\n      swap4\n      swap3\n      swap2\n      swap1\n      tag_15\n      jump\t// in\n    tag_14:\n      mload(0x40)\n      dup1\n      swap2\n      sub\n      swap1\n      return\n        /* \"contracts/StructActivity.sol\":465:487  uint256 public counter */\n    tag_5:\n      tag_16\n      tag_17\n      jump\t// in\n    tag_16:\n      mload(0x40)\n      tag_18\n      swap2\n      swap1\n      tag_19\n      jump\t// in\n    tag_18:\n      mload(0x40)\n      dup1\n      swap2\n      sub\n      swap1\n      return\n        /* \"contracts/StructActivity.sol\":1053:1558  function registerEducator(uint256 _id, string memory _name, string memory _course) public {... */\n    tag_9:\n        /* \"contracts/StructActivity.sol\":1293:1314  educatorExists(_name) */\n      tag_21\n        /* \"contracts/StructActivity.sol\":1308:1313  _name */\n      dup3\n        /* \"contracts/StructActivity.sol\":1293:1307  educatorExists */\n      tag_22\n        /* \"contracts/StructActivity.sol\":1293:1314  educatorExists(_name) */\n      jump\t// in\n    tag_21:\n        /* \"contracts/StructActivity.sol\":1292:1314  !educatorExists(_name) */\n      iszero\n        /* \"contracts/StructActivity.sol\":1283:1377  require (!educatorExists(_name), \"Educator name already registered, please use another name.\") */\n      tag_23\n      jumpi\n      mload(0x40)\n      0x08c379a000000000000000000000000000000000000000000000000000000000\n      dup2\n      mstore\n      0x04\n      add\n      tag_24\n      swap1\n      tag_25\n      jump\t// in\n    tag_24:\n      mload(0x40)\n      dup1\n      swap2\n      sub\n      swap1\n      revert\n    tag_23:\n        /* \"contracts/StructActivity.sol\":1421:1448  educator memory newEducator */\n      0x00\n        /* \"contracts/StructActivity.sol\":1451:1480  educator(_id, _name, _course) */\n      mload(0x40)\n      dup1\n      0x60\n      add\n      0x40\n      mstore\n      dup1\n        /* \"contracts/StructActivity.sol\":1460:1463  _id */\n      dup6\n        /* \"contracts/StructActivity.sol\":1451:1480  educator(_id, _name, _course) */\n      dup2\n      mstore\n      0x20\n      add\n        /* \"contracts/StructActivity.sol\":1465:1470  _name */\n      dup5\n        /* \"contracts/StructActivity.sol\":1451:1480  educator(_id, _name, _course) */\n      dup2\n      mstore\n      0x20\n      add\n        /* \"contracts/StructActivity.sol\":1472:1479  _course */\n      dup4\n        /* \"contracts/StructActivity.sol\":1451:1480  educator(_id, _name, _course) */\n      dup2\n      mstore\n      pop\n        /* \"contracts/StructActivity.sol\":1421:1480  educator memory newEducator = educator(_id, _name, _course) */\n      swap1\n      pop\n        /* \"contracts/StructActivity.sol\":1499:1514  educatorRecords */\n      0x01\n        /* \"contracts/StructActivity.sol\":1520:1531  newEducator */\n      dup2\n        /* \"contracts/StructActivity.sol\":1499:1532  educatorRecords.push(newEducator) */\n      swap1\n      dup1\n      0x01\n      dup2\n      sload\n      add\n      dup1\n      dup3\n      sstore\n      dup1\n      swap2\n      pop\n      pop\n      0x01\n      swap1\n      sub\n      swap1\n      0x00\n      mstore\n      keccak256(0x00, 0x20)\n      swap1\n      0x03\n      mul\n      add\n      0x00\n      swap1\n      swap2\n      swap1\n      swap2\n      swap1\n      swap2\n      pop\n      0x00\n      dup3\n      add\n      mload\n      dup2\n      0x00\n      add\n      sstore\n      0x20\n      dup3\n      add\n      mload\n      dup2\n      0x01\n      add\n      swap1\n      dup1\n      mload\n      swap1\n      0x20\n      add\n      swap1\n      tag_27\n      swap3\n      swap2\n      swap1\n      tag_28\n      jump\t// in\n    tag_27:\n      pop\n      0x40\n      dup3\n      add\n      mload\n      dup2\n      0x02\n      add\n      swap1\n      dup1\n      mload\n      swap1\n      0x20\n      add\n      swap1\n      tag_29\n      swap3\n      swap2\n      swap1\n      tag_28\n      jump\t// in\n    tag_29:\n      pop\n      pop\n      pop\n        /* \"contracts/StructActivity.sol\":1542:1549  counter */\n      0x00\n      dup1\n        /* \"contracts/StructActivity.sol\":1542:1551  counter++ */\n      dup2\n      sload\n      dup1\n      swap3\n      swap2\n      swap1\n      tag_30\n      swap1\n      tag_31\n      jump\t// in\n    tag_30:\n      swap2\n      swap1\n      pop\n      sstore\n      pop\n        /* \"contracts/StructActivity.sol\":1053:1558  function registerEducator(uint256 _id, string memory _name, string memory _course) public {... */\n      pop\n      pop\n      pop\n      pop\n      jump\t// out\n        /* \"contracts/StructActivity.sol\":1628:2368  function retrieveEducatorData(string memory _name) public view returns (uint256, string memory, string memory) {... */\n    tag_13:\n        /* \"contracts/StructActivity.sol\":1700:1707  uint256 */\n      0x00\n        /* \"contracts/StructActivity.sol\":1709:1722  string memory */\n      0x60\n        /* \"contracts/StructActivity.sol\":1724:1737  string memory */\n      dup1\n        /* \"contracts/StructActivity.sol\":1883:1904  educatorExists(_name) */\n      tag_33\n        /* \"contracts/StructActivity.sol\":1898:1903  _name */\n      dup5\n        /* \"contracts/StructActivity.sol\":1883:1897  educatorExists */\n      tag_22\n        /* \"contracts/StructActivity.sol\":1883:1904  educatorExists(_name) */\n      jump\t// in\n    tag_33:\n        /* \"contracts/StructActivity.sol\":1874:1956  require (educatorExists(_name), \"Educator name does not exist, please try again.\") */\n      tag_34\n      jumpi\n      mload(0x40)\n      0x08c379a000000000000000000000000000000000000000000000000000000000\n      dup2\n      mstore\n      0x04\n      add\n      tag_35\n      swap1\n      tag_36\n      jump\t// in\n    tag_35:\n      mload(0x40)\n      dup1\n      swap2\n      sub\n      swap1\n      revert\n    tag_34:\n        /* \"contracts/StructActivity.sol\":2079:2088  uint256 i */\n      0x00\n        /* \"contracts/StructActivity.sol\":2074:2362  for (uint256 i = 0; i < educatorRecords.length; i++) {... */\n    tag_37:\n        /* \"contracts/StructActivity.sol\":2098:2113  educatorRecords */\n      0x01\n        /* \"contracts/StructActivity.sol\":2098:2120  educatorRecords.length */\n      dup1\n      sload\n      swap1\n      pop\n        /* \"contracts/StructActivity.sol\":2094:2095  i */\n      dup2\n        /* \"contracts/StructActivity.sol\":2094:2120  i < educatorRecords.length */\n      lt\n        /* \"contracts/StructActivity.sol\":2074:2362  for (uint256 i = 0; i < educatorRecords.length; i++) {... */\n      iszero\n      tag_38\n      jumpi\n        /* \"contracts/StructActivity.sol\":2210:2225  educatorRecords */\n      0x01\n        /* \"contracts/StructActivity.sol\":2226:2227  i */\n      dup2\n        /* \"contracts/StructActivity.sol\":2210:2228  educatorRecords[i] */\n      dup2\n      sload\n      dup2\n      lt\n      tag_40\n      jumpi\n      mstore(0x00, 0x4e487b7100000000000000000000000000000000000000000000000000000000)\n      mstore(0x04, 0x32)\n      revert(0x00, 0x24)\n    tag_40:\n      swap1\n      0x00\n      mstore\n      keccak256(0x00, 0x20)\n      swap1\n      0x03\n      mul\n      add\n        /* \"contracts/StructActivity.sol\":2210:2233  educatorRecords[i].name */\n      0x01\n      add\n        /* \"contracts/StructActivity.sol\":2193:2234  abi.encodePacked(educatorRecords[i].name) */\n      add(0x20, mload(0x40))\n      tag_42\n      swap2\n      swap1\n      tag_43\n      jump\t// in\n    tag_42:\n      mload(0x40)\n      0x20\n      dup2\n      dup4\n      sub\n      sub\n      dup2\n      mstore\n      swap1\n      0x40\n      mstore\n        /* \"contracts/StructActivity.sol\":2183:2235  keccak256(abi.encodePacked(educatorRecords[i].name)) */\n      dup1\n      mload\n      swap1\n      0x20\n      add\n      keccak256\n        /* \"contracts/StructActivity.sol\":2172:2177  _name */\n      dup6\n        /* \"contracts/StructActivity.sol\":2155:2178  abi.encodePacked(_name) */\n      add(0x20, mload(0x40))\n      tag_44\n      swap2\n      swap1\n      tag_45\n      jump\t// in\n    tag_44:\n      mload(0x40)\n      0x20\n      dup2\n      dup4\n      sub\n      sub\n      dup2\n      mstore\n      swap1\n      0x40\n      mstore\n        /* \"contracts/StructActivity.sol\":2145:2179  keccak256(abi.encodePacked(_name)) */\n      dup1\n      mload\n      swap1\n      0x20\n      add\n      keccak256\n        /* \"contracts/StructActivity.sol\":2145:2235  keccak256(abi.encodePacked(_name)) == keccak256(abi.encodePacked(educatorRecords[i].name)) */\n      eq\n        /* \"contracts/StructActivity.sol\":2141:2352  if (keccak256(abi.encodePacked(_name)) == keccak256(abi.encodePacked(educatorRecords[i].name))) {... */\n      iszero\n      tag_46\n      jumpi\n        /* \"contracts/StructActivity.sol\":2263:2278  educatorRecords */\n      0x01\n        /* \"contracts/StructActivity.sol\":2279:2280  i */\n      dup2\n        /* \"contracts/StructActivity.sol\":2263:2281  educatorRecords[i] */\n      dup2\n      sload\n      dup2\n      lt\n      tag_47\n      jumpi\n      mstore(0x00, 0x4e487b7100000000000000000000000000000000000000000000000000000000)\n      mstore(0x04, 0x32)\n      revert(0x00, 0x24)\n    tag_47:\n      swap1\n      0x00\n      mstore\n      keccak256(0x00, 0x20)\n      swap1\n      0x03\n      mul\n      add\n        /* \"contracts/StructActivity.sol\":2263:2284  educatorRecords[i].id */\n      0x00\n      add\n      sload\n        /* \"contracts/StructActivity.sol\":2286:2301  educatorRecords */\n      0x01\n        /* \"contracts/StructActivity.sol\":2302:2303  i */\n      dup3\n        /* \"contracts/StructActivity.sol\":2286:2304  educatorRecords[i] */\n      dup2\n      sload\n      dup2\n      lt\n      tag_49\n      jumpi\n      mstore(0x00, 0x4e487b7100000000000000000000000000000000000000000000000000000000)\n      mstore(0x04, 0x32)\n      revert(0x00, 0x24)\n    tag_49:\n      swap1\n      0x00\n      mstore\n      keccak256(0x00, 0x20)\n      swap1\n      0x03\n      mul\n      add\n        /* \"contracts/StructActivity.sol\":2286:2309  educatorRecords[i].name */\n      0x01\n      add\n        /* \"contracts/StructActivity.sol\":2311:2326  educatorRecords */\n      0x01\n        /* \"contracts/StructActivity.sol\":2327:2328  i */\n      dup4\n        /* \"contracts/StructActivity.sol\":2311:2329  educatorRecords[i] */\n      dup2\n      sload\n      dup2\n      lt\n      tag_51\n      jumpi\n      mstore(0x00, 0x4e487b7100000000000000000000000000000000000000000000000000000000)\n      mstore(0x04, 0x32)\n      revert(0x00, 0x24)\n    tag_51:\n      swap1\n      0x00\n      mstore\n      keccak256(0x00, 0x20)\n      swap1\n      0x03\n      mul\n      add\n        /* \"contracts/StructActivity.sol\":2311:2336  educatorRecords[i].course */\n      0x02\n      add\n        /* \"contracts/StructActivity.sol\":2255:2337  return (educatorRecords[i].id, educatorRecords[i].name, educatorRecords[i].course) */\n      dup2\n      dup1\n      sload\n      tag_53\n      swap1\n      tag_54\n      jump\t// in\n    tag_53:\n      dup1\n      0x1f\n      add\n      0x20\n      dup1\n      swap2\n      div\n      mul\n      0x20\n      add\n      mload(0x40)\n      swap1\n      dup2\n      add\n      0x40\n      mstore\n      dup1\n      swap3\n      swap2\n      swap1\n      dup2\n      dup2\n      mstore\n      0x20\n      add\n      dup3\n      dup1\n      sload\n      tag_55\n      swap1\n      tag_54\n      jump\t// in\n    tag_55:\n      dup1\n      iszero\n      tag_56\n      jumpi\n      dup1\n      0x1f\n      lt\n      tag_57\n      jumpi\n      0x0100\n      dup1\n      dup4\n      sload\n      div\n      mul\n      dup4\n      mstore\n      swap2\n      0x20\n      add\n      swap2\n      jump(tag_56)\n    tag_57:\n      dup3\n      add\n      swap2\n      swap1\n      0x00\n      mstore\n      keccak256(0x00, 0x20)\n      swap1\n    tag_58:\n      dup2\n      sload\n      dup2\n      mstore\n      swap1\n      0x01\n      add\n      swap1\n      0x20\n      add\n      dup1\n      dup4\n      gt\n      tag_58\n      jumpi\n      dup3\n      swap1\n      sub\n      0x1f\n      and\n      dup3\n      add\n      swap2\n    tag_56:\n      pop\n      pop\n      pop\n      pop\n      pop\n      swap2\n      pop\n      dup1\n      dup1\n      sload\n      tag_59\n      swap1\n      tag_54\n      jump\t// in\n    tag_59:\n      dup1\n      0x1f\n      add\n      0x20\n      dup1\n      swap2\n      div\n      mul\n      0x20\n      add\n      mload(0x40)\n      swap1\n      dup2\n      add\n      0x40\n      mstore\n      dup1\n      swap3\n      swap2\n      swap1\n      dup2\n      dup2\n      mstore\n      0x20\n      add\n      dup3\n      dup1\n      sload\n      tag_60\n      swap1\n      tag_54\n      jump\t// in\n    tag_60:\n      dup1\n      iszero\n      tag_61\n      jumpi\n      dup1\n      0x1f\n      lt\n      tag_62\n      jumpi\n      0x0100\n      dup1\n      dup4\n      sload\n      div\n      mul\n      dup4\n      mstore\n      swap2\n      0x20\n      add\n      swap2\n      jump(tag_61)\n    tag_62:\n      dup3\n      add\n      swap2\n      swap1\n      0x00\n      mstore\n      keccak256(0x00, 0x20)\n      swap1\n    tag_63:\n      dup2\n      sload\n      dup2\n      mstore\n      swap1\n      0x01\n      add\n      swap1\n      0x20\n      add\n      dup1\n      dup4\n      gt\n      tag_63\n      jumpi\n      dup3\n      swap1\n      sub\n      0x1f\n      and\n      dup3\n      add\n      swap2\n    tag_61:\n      pop\n      pop\n      pop\n      pop\n      pop\n      swap1\n      pop\n      swap4\n      pop\n      swap4\n      pop\n      swap4\n      pop\n      pop\n      jump(tag_32)\n        /* \"contracts/StructActivity.sol\":2141:2352  if (keccak256(abi.encodePacked(_name)) == keccak256(abi.encodePacked(educatorRecords[i].name))) {... */\n    tag_46:\n        /* \"contracts/StructActivity.sol\":2122:2125  i++ */\n      dup1\n      dup1\n      tag_64\n      swap1\n      tag_31\n      jump\t// in\n    tag_64:\n      swap2\n      pop\n      pop\n        /* \"contracts/StructActivity.sol\":2074:2362  for (uint256 i = 0; i < educatorRecords.length; i++) {... */\n      jump(tag_37)\n    tag_38:\n      pop\n        /* \"contracts/StructActivity.sol\":1628:2368  function retrieveEducatorData(string memory _name) public view returns (uint256, string memory, string memory) {... */\n    tag_32:\n      swap2\n      swap4\n      swap1\n      swap3\n      pop\n      jump\t// out\n        /* \"contracts/StructActivity.sol\":465:487  uint256 public counter */\n    tag_17:\n      sload(0x00)\n      dup2\n      jump\t// out\n        /* \"contracts/StructActivity.sol\":2481:2790  function educatorExists(string memory _name) internal view returns (bool) {... */\n    tag_22:\n        /* \"contracts/StructActivity.sol\":2549:2553  bool */\n      0x00\n        /* \"contracts/StructActivity.sol\":2570:2579  uint256 i */\n      dup1\n        /* \"contracts/StructActivity.sol\":2582:2583  0 */\n      0x00\n        /* \"contracts/StructActivity.sol\":2570:2583  uint256 i = 0 */\n      swap1\n      pop\n        /* \"contracts/StructActivity.sol\":2565:2784  for (uint256 i = 0; i < educatorRecords.length; i++) {... */\n    tag_66:\n        /* \"contracts/StructActivity.sol\":2589:2604  educatorRecords */\n      0x01\n        /* \"contracts/StructActivity.sol\":2589:2611  educatorRecords.length */\n      dup1\n      sload\n      swap1\n      pop\n        /* \"contracts/StructActivity.sol\":2585:2586  i */\n      dup2\n        /* \"contracts/StructActivity.sol\":2585:2611  i < educatorRecords.length */\n      lt\n        /* \"contracts/StructActivity.sol\":2565:2784  for (uint256 i = 0; i < educatorRecords.length; i++) {... */\n      iszero\n      tag_67\n      jumpi\n        /* \"contracts/StructActivity.sol\":2702:2717  educatorRecords */\n      0x01\n        /* \"contracts/StructActivity.sol\":2718:2719  i */\n      dup2\n        /* \"contracts/StructActivity.sol\":2702:2720  educatorRecords[i] */\n      dup2\n      sload\n      dup2\n      lt\n      tag_69\n      jumpi\n      mstore(0x00, 0x4e487b7100000000000000000000000000000000000000000000000000000000)\n      mstore(0x04, 0x32)\n      revert(0x00, 0x24)\n    tag_69:\n      swap1\n      0x00\n      mstore\n      keccak256(0x00, 0x20)\n      swap1\n      0x03\n      mul\n      add\n        /* \"contracts/StructActivity.sol\":2702:2725  educatorRecords[i].name */\n      0x01\n      add\n        /* \"contracts/StructActivity.sol\":2685:2726  abi.encodePacked(educatorRecords[i].name) */\n      add(0x20, mload(0x40))\n      tag_71\n      swap2\n      swap1\n      tag_43\n      jump\t// in\n    tag_71:\n      mload(0x40)\n      0x20\n      dup2\n      dup4\n      sub\n      sub\n      dup2\n      mstore\n      swap1\n      0x40\n      mstore\n        /* \"contracts/StructActivity.sol\":2675:2727  keccak256(abi.encodePacked(educatorRecords[i].name)) */\n      dup1\n      mload\n      swap1\n      0x20\n      add\n      keccak256\n        /* \"contracts/StructActivity.sol\":2664:2669  _name */\n      dup4\n        /* \"contracts/StructActivity.sol\":2647:2670  abi.encodePacked(_name) */\n      add(0x20, mload(0x40))\n      tag_72\n      swap2\n      swap1\n      tag_45\n      jump\t// in\n    tag_72:\n      mload(0x40)\n      0x20\n      dup2\n      dup4\n      sub\n      sub\n      dup2\n      mstore\n      swap1\n      0x40\n      mstore\n        /* \"contracts/StructActivity.sol\":2637:2671  keccak256(abi.encodePacked(_name)) */\n      dup1\n      mload\n      swap1\n      0x20\n      add\n      keccak256\n        /* \"contracts/StructActivity.sol\":2637:2727  keccak256(abi.encodePacked(_name)) == keccak256(abi.encodePacked(educatorRecords[i].name)) */\n      eq\n        /* \"contracts/StructActivity.sol\":2633:2773  if (keccak256(abi.encodePacked(_name)) == keccak256(abi.encodePacked(educatorRecords[i].name))) {... */\n      iszero\n      tag_73\n      jumpi\n        /* \"contracts/StructActivity.sol\":2754:2758  true */\n      0x01\n        /* \"contracts/StructActivity.sol\":2747:2758  return true */\n      swap2\n      pop\n      pop\n      jump(tag_65)\n        /* \"contracts/StructActivity.sol\":2633:2773  if (keccak256(abi.encodePacked(_name)) == keccak256(abi.encodePacked(educatorRecords[i].name))) {... */\n    tag_73:\n        /* \"contracts/StructActivity.sol\":2613:2616  i++ */\n      dup1\n      dup1\n      tag_74\n      swap1\n      tag_31\n      jump\t// in\n    tag_74:\n      swap2\n      pop\n      pop\n        /* \"contracts/StructActivity.sol\":2565:2784  for (uint256 i = 0; i < educatorRecords.length; i++) {... */\n      jump(tag_66)\n    tag_67:\n      pop\n        /* \"contracts/StructActivity.sol\":2481:2790  function educatorExists(string memory _name) internal view returns (bool) {... */\n    tag_65:\n      swap2\n      swap1\n      pop\n      jump\t// out\n    tag_28:\n      dup3\n      dup1\n      sload\n      tag_75\n      swap1\n      tag_54\n      jump\t// in\n    tag_75:\n      swap1\n      0x00\n      mstore\n      keccak256(0x00, 0x20)\n      swap1\n      0x1f\n      add\n      0x20\n      swap1\n      div\n      dup2\n      add\n      swap3\n      dup3\n      tag_77\n      jumpi\n      0x00\n      dup6\n      sstore\n      jump(tag_76)\n    tag_77:\n      dup3\n      0x1f\n      lt\n      tag_78\n      jumpi\n      dup1\n      mload\n      not(0xff)\n      and\n      dup4\n      dup1\n      add\n      or\n      dup6\n      sstore\n      jump(tag_76)\n    tag_78:\n      dup3\n      dup1\n      add\n      0x01\n      add\n      dup6\n      sstore\n      dup3\n      iszero\n      tag_76\n      jumpi\n      swap2\n      dup3\n      add\n    tag_79:\n      dup3\n      dup2\n      gt\n      iszero\n      tag_80\n      jumpi\n      dup3\n      mload\n      dup3\n      sstore\n      swap2\n      0x20\n      add\n      swap2\n      swap1\n      0x01\n      add\n      swap1\n      jump(tag_79)\n    tag_80:\n    tag_76:\n      pop\n      swap1\n      pop\n      tag_81\n      swap2\n      swap1\n      tag_82\n      jump\t// in\n    tag_81:\n      pop\n      swap1\n      jump\t// out\n    tag_82:\n    tag_83:\n      dup1\n      dup3\n      gt\n      iszero\n      tag_84\n      jumpi\n      0x00\n      dup2\n      0x00\n      swap1\n      sstore\n      pop\n      0x01\n      add\n      jump(tag_83)\n    tag_84:\n      pop\n      swap1\n      jump\t// out\n        /* \"#utility.yul\":7:351   */\n    tag_86:\n      0x00\n        /* \"#utility.yul\":110:175   */\n      tag_88\n        /* \"#utility.yul\":125:174   */\n      tag_89\n        /* \"#utility.yul\":167:173   */\n      dup5\n        /* \"#utility.yul\":125:174   */\n      tag_90\n      jump\t// in\n    tag_89:\n        /* \"#utility.yul\":110:175   */\n      tag_91\n      jump\t// in\n    tag_88:\n        /* \"#utility.yul\":101:175   */\n      swap1\n      pop\n        /* \"#utility.yul\":198:204   */\n      dup3\n        /* \"#utility.yul\":191:196   */\n      dup2\n        /* \"#utility.yul\":184:205   */\n      mstore\n        /* \"#utility.yul\":236:240   */\n      0x20\n        /* \"#utility.yul\":229:234   */\n      dup2\n        /* \"#utility.yul\":225:241   */\n      add\n        /* \"#utility.yul\":274:277   */\n      dup5\n        /* \"#utility.yul\":265:271   */\n      dup5\n        /* \"#utility.yul\":260:263   */\n      dup5\n        /* \"#utility.yul\":256:272   */\n      add\n        /* \"#utility.yul\":253:278   */\n      gt\n        /* \"#utility.yul\":250:252   */\n      iszero\n      tag_92\n      jumpi\n        /* \"#utility.yul\":291:292   */\n      0x00\n        /* \"#utility.yul\":288:289   */\n      dup1\n        /* \"#utility.yul\":281:293   */\n      revert\n        /* \"#utility.yul\":250:252   */\n    tag_92:\n        /* \"#utility.yul\":304:345   */\n      tag_93\n        /* \"#utility.yul\":338:344   */\n      dup5\n        /* \"#utility.yul\":333:336   */\n      dup3\n        /* \"#utility.yul\":328:331   */\n      dup6\n        /* \"#utility.yul\":304:345   */\n      tag_94\n      jump\t// in\n    tag_93:\n        /* \"#utility.yul\":91:351   */\n      pop\n      swap4\n      swap3\n      pop\n      pop\n      pop\n      jump\t// out\n        /* \"#utility.yul\":371:644   */\n    tag_95:\n      0x00\n        /* \"#utility.yul\":476:479   */\n      dup3\n        /* \"#utility.yul\":469:473   */\n      0x1f\n        /* \"#utility.yul\":461:467   */\n      dup4\n        /* \"#utility.yul\":457:474   */\n      add\n        /* \"#utility.yul\":453:480   */\n      slt\n        /* \"#utility.yul\":443:445   */\n      tag_97\n      jumpi\n        /* \"#utility.yul\":494:495   */\n      0x00\n        /* \"#utility.yul\":491:492   */\n      dup1\n        /* \"#utility.yul\":484:496   */\n      revert\n        /* \"#utility.yul\":443:445   */\n    tag_97:\n        /* \"#utility.yul\":534:540   */\n      dup2\n        /* \"#utility.yul\":521:541   */\n      calldataload\n        /* \"#utility.yul\":559:638   */\n      tag_98\n        /* \"#utility.yul\":634:637   */\n      dup5\n        /* \"#utility.yul\":626:632   */\n      dup3\n        /* \"#utility.yul\":619:623   */\n      0x20\n        /* \"#utility.yul\":611:617   */\n      dup7\n        /* \"#utility.yul\":607:624   */\n      add\n        /* \"#utility.yul\":559:638   */\n      tag_86\n      jump\t// in\n    tag_98:\n        /* \"#utility.yul\":550:638   */\n      swap2\n      pop\n        /* \"#utility.yul\":433:644   */\n      pop\n      swap3\n      swap2\n      pop\n      pop\n      jump\t// out\n        /* \"#utility.yul\":650:789   */\n    tag_99:\n      0x00\n        /* \"#utility.yul\":734:740   */\n      dup2\n        /* \"#utility.yul\":721:741   */\n      calldataload\n        /* \"#utility.yul\":712:741   */\n      swap1\n      pop\n        /* \"#utility.yul\":750:783   */\n      tag_101\n        /* \"#utility.yul\":777:782   */\n      dup2\n        /* \"#utility.yul\":750:783   */\n      tag_102\n      jump\t// in\n    tag_101:\n        /* \"#utility.yul\":702:789   */\n      swap3\n      swap2\n      pop\n      pop\n      jump\t// out\n        /* \"#utility.yul\":795:1170   */\n    tag_12:\n      0x00\n        /* \"#utility.yul\":913:915   */\n      0x20\n        /* \"#utility.yul\":901:910   */\n      dup3\n        /* \"#utility.yul\":892:899   */\n      dup5\n        /* \"#utility.yul\":888:911   */\n      sub\n        /* \"#utility.yul\":884:916   */\n      slt\n        /* \"#utility.yul\":881:883   */\n      iszero\n      tag_104\n      jumpi\n        /* \"#utility.yul\":929:930   */\n      0x00\n        /* \"#utility.yul\":926:927   */\n      dup1\n        /* \"#utility.yul\":919:931   */\n      revert\n        /* \"#utility.yul\":881:883   */\n    tag_104:\n        /* \"#utility.yul\":1000:1001   */\n      0x00\n        /* \"#utility.yul\":989:998   */\n      dup3\n        /* \"#utility.yul\":985:1002   */\n      add\n        /* \"#utility.yul\":972:1003   */\n      calldataload\n        /* \"#utility.yul\":1030:1048   */\n      0xffffffffffffffff\n        /* \"#utility.yul\":1022:1028   */\n      dup2\n        /* \"#utility.yul\":1019:1049   */\n      gt\n        /* \"#utility.yul\":1016:1018   */\n      iszero\n      tag_105\n      jumpi\n        /* \"#utility.yul\":1062:1063   */\n      0x00\n        /* \"#utility.yul\":1059:1060   */\n      dup1\n        /* \"#utility.yul\":1052:1064   */\n      revert\n        /* \"#utility.yul\":1016:1018   */\n    tag_105:\n        /* \"#utility.yul\":1090:1153   */\n      tag_106\n        /* \"#utility.yul\":1145:1152   */\n      dup5\n        /* \"#utility.yul\":1136:1142   */\n      dup3\n        /* \"#utility.yul\":1125:1134   */\n      dup6\n        /* \"#utility.yul\":1121:1143   */\n      add\n        /* \"#utility.yul\":1090:1153   */\n      tag_95\n      jump\t// in\n    tag_106:\n        /* \"#utility.yul\":1080:1153   */\n      swap2\n      pop\n        /* \"#utility.yul\":943:1163   */\n      pop\n        /* \"#utility.yul\":871:1170   */\n      swap3\n      swap2\n      pop\n      pop\n      jump\t// out\n        /* \"#utility.yul\":1176:1954   */\n    tag_8:\n      0x00\n      dup1\n      0x00\n        /* \"#utility.yul\":1338:1340   */\n      0x60\n        /* \"#utility.yul\":1326:1335   */\n      dup5\n        /* \"#utility.yul\":1317:1324   */\n      dup7\n        /* \"#utility.yul\":1313:1336   */\n      sub\n        /* \"#utility.yul\":1309:1341   */\n      slt\n        /* \"#utility.yul\":1306:1308   */\n      iszero\n      tag_108\n      jumpi\n        /* \"#utility.yul\":1354:1355   */\n      0x00\n        /* \"#utility.yul\":1351:1352   */\n      dup1\n        /* \"#utility.yul\":1344:1356   */\n      revert\n        /* \"#utility.yul\":1306:1308   */\n    tag_108:\n        /* \"#utility.yul\":1397:1398   */\n      0x00\n        /* \"#utility.yul\":1422:1475   */\n      tag_109\n        /* \"#utility.yul\":1467:1474   */\n      dup7\n        /* \"#utility.yul\":1458:1464   */\n      dup3\n        /* \"#utility.yul\":1447:1456   */\n      dup8\n        /* \"#utility.yul\":1443:1465   */\n      add\n        /* \"#utility.yul\":1422:1475   */\n      tag_99\n      jump\t// in\n    tag_109:\n        /* \"#utility.yul\":1412:1475   */\n      swap4\n      pop\n        /* \"#utility.yul\":1368:1485   */\n      pop\n        /* \"#utility.yul\":1552:1554   */\n      0x20\n        /* \"#utility.yul\":1541:1550   */\n      dup5\n        /* \"#utility.yul\":1537:1555   */\n      add\n        /* \"#utility.yul\":1524:1556   */\n      calldataload\n        /* \"#utility.yul\":1583:1601   */\n      0xffffffffffffffff\n        /* \"#utility.yul\":1575:1581   */\n      dup2\n        /* \"#utility.yul\":1572:1602   */\n      gt\n        /* \"#utility.yul\":1569:1571   */\n      iszero\n      tag_110\n      jumpi\n        /* \"#utility.yul\":1615:1616   */\n      0x00\n        /* \"#utility.yul\":1612:1613   */\n      dup1\n        /* \"#utility.yul\":1605:1617   */\n      revert\n        /* \"#utility.yul\":1569:1571   */\n    tag_110:\n        /* \"#utility.yul\":1643:1706   */\n      tag_111\n        /* \"#utility.yul\":1698:1705   */\n      dup7\n        /* \"#utility.yul\":1689:1695   */\n      dup3\n        /* \"#utility.yul\":1678:1687   */\n      dup8\n        /* \"#utility.yul\":1674:1696   */\n      add\n        /* \"#utility.yul\":1643:1706   */\n      tag_95\n      jump\t// in\n    tag_111:\n        /* \"#utility.yul\":1633:1706   */\n      swap3\n      pop\n        /* \"#utility.yul\":1495:1716   */\n      pop\n        /* \"#utility.yul\":1783:1785   */\n      0x40\n        /* \"#utility.yul\":1772:1781   */\n      dup5\n        /* \"#utility.yul\":1768:1786   */\n      add\n        /* \"#utility.yul\":1755:1787   */\n      calldataload\n        /* \"#utility.yul\":1814:1832   */\n      0xffffffffffffffff\n        /* \"#utility.yul\":1806:1812   */\n      dup2\n        /* \"#utility.yul\":1803:1833   */\n      gt\n        /* \"#utility.yul\":1800:1802   */\n      iszero\n      tag_112\n      jumpi\n        /* \"#utility.yul\":1846:1847   */\n      0x00\n        /* \"#utility.yul\":1843:1844   */\n      dup1\n        /* \"#utility.yul\":1836:1848   */\n      revert\n        /* \"#utility.yul\":1800:1802   */\n    tag_112:\n        /* \"#utility.yul\":1874:1937   */\n      tag_113\n        /* \"#utility.yul\":1929:1936   */\n      dup7\n        /* \"#utility.yul\":1920:1926   */\n      dup3\n        /* \"#utility.yul\":1909:1918   */\n      dup8\n        /* \"#utility.yul\":1905:1927   */\n      add\n        /* \"#utility.yul\":1874:1937   */\n      tag_95\n      jump\t// in\n    tag_113:\n        /* \"#utility.yul\":1864:1937   */\n      swap2\n      pop\n        /* \"#utility.yul\":1726:1947   */\n      pop\n        /* \"#utility.yul\":1296:1954   */\n      swap3\n      pop\n      swap3\n      pop\n      swap3\n      jump\t// out\n        /* \"#utility.yul\":1960:2324   */\n    tag_114:\n      0x00\n        /* \"#utility.yul\":2076:2115   */\n      tag_116\n        /* \"#utility.yul\":2109:2114   */\n      dup3\n        /* \"#utility.yul\":2076:2115   */\n      tag_117\n      jump\t// in\n    tag_116:\n        /* \"#utility.yul\":2131:2202   */\n      tag_118\n        /* \"#utility.yul\":2195:2201   */\n      dup2\n        /* \"#utility.yul\":2190:2193   */\n      dup6\n        /* \"#utility.yul\":2131:2202   */\n      tag_119\n      jump\t// in\n    tag_118:\n        /* \"#utility.yul\":2124:2202   */\n      swap4\n      pop\n        /* \"#utility.yul\":2211:2263   */\n      tag_120\n        /* \"#utility.yul\":2256:2262   */\n      dup2\n        /* \"#utility.yul\":2251:2254   */\n      dup6\n        /* \"#utility.yul\":2244:2248   */\n      0x20\n        /* \"#utility.yul\":2237:2242   */\n      dup7\n        /* \"#utility.yul\":2233:2249   */\n      add\n        /* \"#utility.yul\":2211:2263   */\n      tag_121\n      jump\t// in\n    tag_120:\n        /* \"#utility.yul\":2288:2317   */\n      tag_122\n        /* \"#utility.yul\":2310:2316   */\n      dup2\n        /* \"#utility.yul\":2288:2317   */\n      tag_123\n      jump\t// in\n    tag_122:\n        /* \"#utility.yul\":2283:2286   */\n      dup5\n        /* \"#utility.yul\":2279:2318   */\n      add\n        /* \"#utility.yul\":2272:2318   */\n      swap2\n      pop\n        /* \"#utility.yul\":2052:2324   */\n      pop\n      swap3\n      swap2\n      pop\n      pop\n      jump\t// out\n        /* \"#utility.yul\":2330:2707   */\n    tag_124:\n      0x00\n        /* \"#utility.yul\":2464:2503   */\n      tag_126\n        /* \"#utility.yul\":2497:2502   */\n      dup3\n        /* \"#utility.yul\":2464:2503   */\n      tag_117\n      jump\t// in\n    tag_126:\n        /* \"#utility.yul\":2519:2608   */\n      tag_127\n        /* \"#utility.yul\":2601:2607   */\n      dup2\n        /* \"#utility.yul\":2596:2599   */\n      dup6\n        /* \"#utility.yul\":2519:2608   */\n      tag_128\n      jump\t// in\n    tag_127:\n        /* \"#utility.yul\":2512:2608   */\n      swap4\n      pop\n        /* \"#utility.yul\":2617:2669   */\n      tag_129\n        /* \"#utility.yul\":2662:2668   */\n      dup2\n        /* \"#utility.yul\":2657:2660   */\n      dup6\n        /* \"#utility.yul\":2650:2654   */\n      0x20\n        /* \"#utility.yul\":2643:2648   */\n      dup7\n        /* \"#utility.yul\":2639:2655   */\n      add\n        /* \"#utility.yul\":2617:2669   */\n      tag_121\n      jump\t// in\n    tag_129:\n        /* \"#utility.yul\":2694:2700   */\n      dup1\n        /* \"#utility.yul\":2689:2692   */\n      dup5\n        /* \"#utility.yul\":2685:2701   */\n      add\n        /* \"#utility.yul\":2678:2701   */\n      swap2\n      pop\n        /* \"#utility.yul\":2440:2707   */\n      pop\n      swap3\n      swap2\n      pop\n      pop\n      jump\t// out\n        /* \"#utility.yul\":2737:3582   */\n    tag_130:\n      0x00\n        /* \"#utility.yul\":2877:2882   */\n      dup2\n        /* \"#utility.yul\":2871:2883   */\n      sload\n        /* \"#utility.yul\":2906:2942   */\n      tag_132\n        /* \"#utility.yul\":2932:2941   */\n      dup2\n        /* \"#utility.yul\":2906:2942   */\n      tag_54\n      jump\t// in\n    tag_132:\n        /* \"#utility.yul\":2958:3047   */\n      tag_133\n        /* \"#utility.yul\":3040:3046   */\n      dup2\n        /* \"#utility.yul\":3035:3038   */\n      dup7\n        /* \"#utility.yul\":2958:3047   */\n      tag_128\n      jump\t// in\n    tag_133:\n        /* \"#utility.yul\":2951:3047   */\n      swap5\n      pop\n        /* \"#utility.yul\":3078:3079   */\n      0x01\n        /* \"#utility.yul\":3067:3076   */\n      dup3\n        /* \"#utility.yul\":3063:3080   */\n      and\n        /* \"#utility.yul\":3094:3095   */\n      0x00\n        /* \"#utility.yul\":3089:3226   */\n      dup2\n      eq\n      tag_135\n      jumpi\n        /* \"#utility.yul\":3240:3241   */\n      0x01\n        /* \"#utility.yul\":3235:3576   */\n      dup2\n      eq\n      tag_136\n      jumpi\n        /* \"#utility.yul\":3056:3576   */\n      jump(tag_134)\n        /* \"#utility.yul\":3089:3226   */\n    tag_135:\n        /* \"#utility.yul\":3173:3177   */\n      0xff\n        /* \"#utility.yul\":3169:3178   */\n      not\n        /* \"#utility.yul\":3158:3167   */\n      dup4\n        /* \"#utility.yul\":3154:3179   */\n      and\n        /* \"#utility.yul\":3149:3152   */\n      dup7\n        /* \"#utility.yul\":3142:3180   */\n      mstore\n        /* \"#utility.yul\":3209:3215   */\n      dup2\n        /* \"#utility.yul\":3204:3207   */\n      dup7\n        /* \"#utility.yul\":3200:3216   */\n      add\n        /* \"#utility.yul\":3193:3216   */\n      swap4\n      pop\n        /* \"#utility.yul\":3089:3226   */\n      jump(tag_134)\n        /* \"#utility.yul\":3235:3576   */\n    tag_136:\n        /* \"#utility.yul\":3302:3340   */\n      tag_137\n        /* \"#utility.yul\":3334:3339   */\n      dup6\n        /* \"#utility.yul\":3302:3340   */\n      tag_138\n      jump\t// in\n    tag_137:\n        /* \"#utility.yul\":3362:3363   */\n      0x00\n        /* \"#utility.yul\":3376:3530   */\n    tag_139:\n        /* \"#utility.yul\":3390:3396   */\n      dup4\n        /* \"#utility.yul\":3387:3388   */\n      dup2\n        /* \"#utility.yul\":3384:3397   */\n      lt\n        /* \"#utility.yul\":3376:3530   */\n      iszero\n      tag_141\n      jumpi\n        /* \"#utility.yul\":3464:3471   */\n      dup2\n        /* \"#utility.yul\":3458:3472   */\n      sload\n        /* \"#utility.yul\":3454:3455   */\n      dup2\n        /* \"#utility.yul\":3449:3452   */\n      dup10\n        /* \"#utility.yul\":3445:3456   */\n      add\n        /* \"#utility.yul\":3438:3473   */\n      mstore\n        /* \"#utility.yul\":3514:3515   */\n      0x01\n        /* \"#utility.yul\":3505:3512   */\n      dup3\n        /* \"#utility.yul\":3501:3516   */\n      add\n        /* \"#utility.yul\":3490:3516   */\n      swap2\n      pop\n        /* \"#utility.yul\":3412:3416   */\n      0x20\n        /* \"#utility.yul\":3409:3410   */\n      dup2\n        /* \"#utility.yul\":3405:3417   */\n      add\n        /* \"#utility.yul\":3400:3417   */\n      swap1\n      pop\n        /* \"#utility.yul\":3376:3530   */\n      jump(tag_139)\n    tag_141:\n        /* \"#utility.yul\":3559:3565   */\n      dup4\n        /* \"#utility.yul\":3554:3557   */\n      dup9\n        /* \"#utility.yul\":3550:3566   */\n      add\n        /* \"#utility.yul\":3543:3566   */\n      swap6\n      pop\n        /* \"#utility.yul\":3242:3576   */\n      pop\n      pop\n        /* \"#utility.yul\":3056:3576   */\n    tag_134:\n      pop\n        /* \"#utility.yul\":2844:3582   */\n      pop\n      pop\n      swap3\n      swap2\n      pop\n      pop\n      jump\t// out\n        /* \"#utility.yul\":3588:3967   */\n    tag_142:\n      0x00\n        /* \"#utility.yul\":3751:3818   */\n      tag_144\n        /* \"#utility.yul\":3815:3817   */\n      0x2f\n        /* \"#utility.yul\":3810:3813   */\n      dup4\n        /* \"#utility.yul\":3751:3818   */\n      tag_119\n      jump\t// in\n    tag_144:\n        /* \"#utility.yul\":3744:3818   */\n      swap2\n      pop\n        /* \"#utility.yul\":3848:3882   */\n      0x4564756361746f72206e616d6520646f6573206e6f742065786973742c20706c\n        /* \"#utility.yul\":3844:3845   */\n      0x00\n        /* \"#utility.yul\":3839:3842   */\n      dup4\n        /* \"#utility.yul\":3835:3846   */\n      add\n        /* \"#utility.yul\":3828:3883   */\n      mstore\n        /* \"#utility.yul\":3914:3931   */\n      0x656173652074727920616761696e2e0000000000000000000000000000000000\n        /* \"#utility.yul\":3909:3911   */\n      0x20\n        /* \"#utility.yul\":3904:3907   */\n      dup4\n        /* \"#utility.yul\":3900:3912   */\n      add\n        /* \"#utility.yul\":3893:3932   */\n      mstore\n        /* \"#utility.yul\":3958:3960   */\n      0x40\n        /* \"#utility.yul\":3953:3956   */\n      dup3\n        /* \"#utility.yul\":3949:3961   */\n      add\n        /* \"#utility.yul\":3942:3961   */\n      swap1\n      pop\n        /* \"#utility.yul\":3734:3967   */\n      swap2\n      swap1\n      pop\n      jump\t// out\n        /* \"#utility.yul\":3973:4363   */\n    tag_145:\n      0x00\n        /* \"#utility.yul\":4136:4203   */\n      tag_147\n        /* \"#utility.yul\":4200:4202   */\n      0x3a\n        /* \"#utility.yul\":4195:4198   */\n      dup4\n        /* \"#utility.yul\":4136:4203   */\n      tag_119\n      jump\t// in\n    tag_147:\n        /* \"#utility.yul\":4129:4203   */\n      swap2\n      pop\n        /* \"#utility.yul\":4233:4267   */\n      0x4564756361746f72206e616d6520616c72656164792072656769737465726564\n        /* \"#utility.yul\":4229:4230   */\n      0x00\n        /* \"#utility.yul\":4224:4227   */\n      dup4\n        /* \"#utility.yul\":4220:4231   */\n      add\n        /* \"#utility.yul\":4213:4268   */\n      mstore\n        /* \"#utility.yul\":4299:4327   */\n      0x2c20706c656173652075736520616e6f74686572206e616d652e000000000000\n        /* \"#utility.yul\":4294:4296   */\n      0x20\n        /* \"#utility.yul\":4289:4292   */\n      dup4\n        /* \"#utility.yul\":4285:4297   */\n      add\n        /* \"#utility.yul\":4278:4328   */\n      mstore\n        /* \"#utility.yul\":4354:4356   */\n      0x40\n        /* \"#utility.yul\":4349:4352   */\n      dup3\n        /* \"#utility.yul\":4345:4357   */\n      add\n        /* \"#utility.yul\":4338:4357   */\n      swap1\n      pop\n        /* \"#utility.yul\":4119:4363   */\n      swap2\n      swap1\n      pop\n      jump\t// out\n        /* \"#utility.yul\":4369:4487   */\n    tag_148:\n        /* \"#utility.yul\":4456:4480   */\n      tag_150\n        /* \"#utility.yul\":4474:4479   */\n      dup2\n        /* \"#utility.yul\":4456:4480   */\n      tag_151\n      jump\t// in\n    tag_150:\n        /* \"#utility.yul\":4451:4454   */\n      dup3\n        /* \"#utility.yul\":4444:4481   */\n      mstore\n        /* \"#utility.yul\":4434:4487   */\n      pop\n      pop\n      jump\t// out\n        /* \"#utility.yul\":4493:4768   */\n    tag_45:\n      0x00\n        /* \"#utility.yul\":4647:4742   */\n      tag_153\n        /* \"#utility.yul\":4738:4741   */\n      dup3\n        /* \"#utility.yul\":4729:4735   */\n      dup5\n        /* \"#utility.yul\":4647:4742   */\n      tag_124\n      jump\t// in\n    tag_153:\n        /* \"#utility.yul\":4640:4742   */\n      swap2\n      pop\n        /* \"#utility.yul\":4759:4762   */\n      dup2\n        /* \"#utility.yul\":4752:4762   */\n      swap1\n      pop\n        /* \"#utility.yul\":4629:4768   */\n      swap3\n      swap2\n      pop\n      pop\n      jump\t// out\n        /* \"#utility.yul\":4774:5043   */\n    tag_43:\n      0x00\n        /* \"#utility.yul\":4925:5017   */\n      tag_155\n        /* \"#utility.yul\":5013:5016   */\n      dup3\n        /* \"#utility.yul\":5004:5010   */\n      dup5\n        /* \"#utility.yul\":4925:5017   */\n      tag_130\n      jump\t// in\n    tag_155:\n        /* \"#utility.yul\":4918:5017   */\n      swap2\n      pop\n        /* \"#utility.yul\":5034:5037   */\n      dup2\n        /* \"#utility.yul\":5027:5037   */\n      swap1\n      pop\n        /* \"#utility.yul\":4907:5043   */\n      swap3\n      swap2\n      pop\n      pop\n      jump\t// out\n        /* \"#utility.yul\":5049:5468   */\n    tag_36:\n      0x00\n        /* \"#utility.yul\":5253:5255   */\n      0x20\n        /* \"#utility.yul\":5242:5251   */\n      dup3\n        /* \"#utility.yul\":5238:5256   */\n      add\n        /* \"#utility.yul\":5230:5256   */\n      swap1\n      pop\n        /* \"#utility.yul\":5302:5311   */\n      dup2\n        /* \"#utility.yul\":5296:5300   */\n      dup2\n        /* \"#utility.yul\":5292:5312   */\n      sub\n        /* \"#utility.yul\":5288:5289   */\n      0x00\n        /* \"#utility.yul\":5277:5286   */\n      dup4\n        /* \"#utility.yul\":5273:5290   */\n      add\n        /* \"#utility.yul\":5266:5313   */\n      mstore\n        /* \"#utility.yul\":5330:5461   */\n      tag_157\n        /* \"#utility.yul\":5456:5460   */\n      dup2\n        /* \"#utility.yul\":5330:5461   */\n      tag_142\n      jump\t// in\n    tag_157:\n        /* \"#utility.yul\":5322:5461   */\n      swap1\n      pop\n        /* \"#utility.yul\":5220:5468   */\n      swap2\n      swap1\n      pop\n      jump\t// out\n        /* \"#utility.yul\":5474:5893   */\n    tag_25:\n      0x00\n        /* \"#utility.yul\":5678:5680   */\n      0x20\n        /* \"#utility.yul\":5667:5676   */\n      dup3\n        /* \"#utility.yul\":5663:5681   */\n      add\n        /* \"#utility.yul\":5655:5681   */\n      swap1\n      pop\n        /* \"#utility.yul\":5727:5736   */\n      dup2\n        /* \"#utility.yul\":5721:5725   */\n      dup2\n        /* \"#utility.yul\":5717:5737   */\n      sub\n        /* \"#utility.yul\":5713:5714   */\n      0x00\n        /* \"#utility.yul\":5702:5711   */\n      dup4\n        /* \"#utility.yul\":5698:5715   */\n      add\n        /* \"#utility.yul\":5691:5738   */\n      mstore\n        /* \"#utility.yul\":5755:5886   */\n      tag_159\n        /* \"#utility.yul\":5881:5885   */\n      dup2\n        /* \"#utility.yul\":5755:5886   */\n      tag_145\n      jump\t// in\n    tag_159:\n        /* \"#utility.yul\":5747:5886   */\n      swap1\n      pop\n        /* \"#utility.yul\":5645:5893   */\n      swap2\n      swap1\n      pop\n      jump\t// out\n        /* \"#utility.yul\":5899:6121   */\n    tag_19:\n      0x00\n        /* \"#utility.yul\":6030:6032   */\n      0x20\n        /* \"#utility.yul\":6019:6028   */\n      dup3\n        /* \"#utility.yul\":6015:6033   */\n      add\n        /* \"#utility.yul\":6007:6033   */\n      swap1\n      pop\n        /* \"#utility.yul\":6043:6114   */\n      tag_161\n        /* \"#utility.yul\":6111:6112   */\n      0x00\n        /* \"#utility.yul\":6100:6109   */\n      dup4\n        /* \"#utility.yul\":6096:6113   */\n      add\n        /* \"#utility.yul\":6087:6093   */\n      dup5\n        /* \"#utility.yul\":6043:6114   */\n      tag_148\n      jump\t// in\n    tag_161:\n        /* \"#utility.yul\":5997:6121   */\n      swap3\n      swap2\n      pop\n      pop\n      jump\t// out\n        /* \"#utility.yul\":6127:6751   */\n    tag_15:\n      0x00\n        /* \"#utility.yul\":6354:6356   */\n      0x60\n        /* \"#utility.yul\":6343:6352   */\n      dup3\n        /* \"#utility.yul\":6339:6357   */\n      add\n        /* \"#utility.yul\":6331:6357   */\n      swap1\n      pop\n        /* \"#utility.yul\":6367:6438   */\n      tag_163\n        /* \"#utility.yul\":6435:6436   */\n      0x00\n        /* \"#utility.yul\":6424:6433   */\n      dup4\n        /* \"#utility.yul\":6420:6437   */\n      add\n        /* \"#utility.yul\":6411:6417   */\n      dup7\n        /* \"#utility.yul\":6367:6438   */\n      tag_148\n      jump\t// in\n    tag_163:\n        /* \"#utility.yul\":6485:6494   */\n      dup2\n        /* \"#utility.yul\":6479:6483   */\n      dup2\n        /* \"#utility.yul\":6475:6495   */\n      sub\n        /* \"#utility.yul\":6470:6472   */\n      0x20\n        /* \"#utility.yul\":6459:6468   */\n      dup4\n        /* \"#utility.yul\":6455:6473   */\n      add\n        /* \"#utility.yul\":6448:6496   */\n      mstore\n        /* \"#utility.yul\":6513:6591   */\n      tag_164\n        /* \"#utility.yul\":6586:6590   */\n      dup2\n        /* \"#utility.yul\":6577:6583   */\n      dup6\n        /* \"#utility.yul\":6513:6591   */\n      tag_114\n      jump\t// in\n    tag_164:\n        /* \"#utility.yul\":6505:6591   */\n      swap1\n      pop\n        /* \"#utility.yul\":6638:6647   */\n      dup2\n        /* \"#utility.yul\":6632:6636   */\n      dup2\n        /* \"#utility.yul\":6628:6648   */\n      sub\n        /* \"#utility.yul\":6623:6625   */\n      0x40\n        /* \"#utility.yul\":6612:6621   */\n      dup4\n        /* \"#utility.yul\":6608:6626   */\n      add\n        /* \"#utility.yul\":6601:6649   */\n      mstore\n        /* \"#utility.yul\":6666:6744   */\n      tag_165\n        /* \"#utility.yul\":6739:6743   */\n      dup2\n        /* \"#utility.yul\":6730:6736   */\n      dup5\n        /* \"#utility.yul\":6666:6744   */\n      tag_114\n      jump\t// in\n    tag_165:\n        /* \"#utility.yul\":6658:6744   */\n      swap1\n      pop\n        /* \"#utility.yul\":6321:6751   */\n      swap5\n      swap4\n      pop\n      pop\n      pop\n      pop\n      jump\t// out\n        /* \"#utility.yul\":6757:7040   */\n    tag_91:\n      0x00\n        /* \"#utility.yul\":6823:6825   */\n      0x40\n        /* \"#utility.yul\":6817:6826   */\n      mload\n        /* \"#utility.yul\":6807:6826   */\n      swap1\n      pop\n        /* \"#utility.yul\":6865:6869   */\n      dup2\n        /* \"#utility.yul\":6857:6863   */\n      dup2\n        /* \"#utility.yul\":6853:6870   */\n      add\n        /* \"#utility.yul\":6972:6978   */\n      dup2\n        /* \"#utility.yul\":6960:6970   */\n      dup2\n        /* \"#utility.yul\":6957:6979   */\n      lt\n        /* \"#utility.yul\":6936:6954   */\n      0xffffffffffffffff\n        /* \"#utility.yul\":6924:6934   */\n      dup3\n        /* \"#utility.yul\":6921:6955   */\n      gt\n        /* \"#utility.yul\":6918:6980   */\n      or\n        /* \"#utility.yul\":6915:6917   */\n      iszero\n      tag_167\n      jumpi\n        /* \"#utility.yul\":6983:7001   */\n      tag_168\n      tag_169\n      jump\t// in\n    tag_168:\n        /* \"#utility.yul\":6915:6917   */\n    tag_167:\n        /* \"#utility.yul\":7023:7033   */\n      dup1\n        /* \"#utility.yul\":7019:7021   */\n      0x40\n        /* \"#utility.yul\":7012:7034   */\n      mstore\n        /* \"#utility.yul\":6797:7040   */\n      pop\n      swap2\n      swap1\n      pop\n      jump\t// out\n        /* \"#utility.yul\":7046:7378   */\n    tag_90:\n      0x00\n        /* \"#utility.yul\":7198:7216   */\n      0xffffffffffffffff\n        /* \"#utility.yul\":7190:7196   */\n      dup3\n        /* \"#utility.yul\":7187:7217   */\n      gt\n        /* \"#utility.yul\":7184:7186   */\n      iszero\n      tag_171\n      jumpi\n        /* \"#utility.yul\":7220:7238   */\n      tag_172\n      tag_169\n      jump\t// in\n    tag_172:\n        /* \"#utility.yul\":7184:7186   */\n    tag_171:\n        /* \"#utility.yul\":7305:7309   */\n      0x1f\n        /* \"#utility.yul\":7301:7310   */\n      not\n        /* \"#utility.yul\":7294:7298   */\n      0x1f\n        /* \"#utility.yul\":7286:7292   */\n      dup4\n        /* \"#utility.yul\":7282:7299   */\n      add\n        /* \"#utility.yul\":7278:7311   */\n      and\n        /* \"#utility.yul\":7270:7311   */\n      swap1\n      pop\n        /* \"#utility.yul\":7366:7370   */\n      0x20\n        /* \"#utility.yul\":7360:7364   */\n      dup2\n        /* \"#utility.yul\":7356:7371   */\n      add\n        /* \"#utility.yul\":7348:7371   */\n      swap1\n      pop\n        /* \"#utility.yul\":7113:7378   */\n      swap2\n      swap1\n      pop\n      jump\t// out\n        /* \"#utility.yul\":7384:7525   */\n    tag_138:\n      0x00\n        /* \"#utility.yul\":7456:7459   */\n      dup2\n        /* \"#utility.yul\":7448:7459   */\n      swap1\n      pop\n        /* \"#utility.yul\":7479:7482   */\n      dup2\n        /* \"#utility.yul\":7476:7477   */\n      0x00\n        /* \"#utility.yul\":7469:7483   */\n      mstore\n        /* \"#utility.yul\":7513:7517   */\n      0x20\n        /* \"#utility.yul\":7510:7511   */\n      0x00\n        /* \"#utility.yul\":7500:7518   */\n      keccak256\n        /* \"#utility.yul\":7492:7518   */\n      swap1\n      pop\n        /* \"#utility.yul\":7438:7525   */\n      swap2\n      swap1\n      pop\n      jump\t// out\n        /* \"#utility.yul\":7531:7630   */\n    tag_117:\n      0x00\n        /* \"#utility.yul\":7617:7622   */\n      dup2\n        /* \"#utility.yul\":7611:7623   */\n      mload\n        /* \"#utility.yul\":7601:7623   */\n      swap1\n      pop\n        /* \"#utility.yul\":7590:7630   */\n      swap2\n      swap1\n      pop\n      jump\t// out\n        /* \"#utility.yul\":7636:7805   */\n    tag_119:\n      0x00\n        /* \"#utility.yul\":7754:7760   */\n      dup3\n        /* \"#utility.yul\":7749:7752   */\n      dup3\n        /* \"#utility.yul\":7742:7761   */\n      mstore\n        /* \"#utility.yul\":7794:7798   */\n      0x20\n        /* \"#utility.yul\":7789:7792   */\n      dup3\n        /* \"#utility.yul\":7785:7799   */\n      add\n        /* \"#utility.yul\":7770:7799   */\n      swap1\n      pop\n        /* \"#utility.yul\":7732:7805   */\n      swap3\n      swap2\n      pop\n      pop\n      jump\t// out\n        /* \"#utility.yul\":7811:7959   */\n    tag_128:\n      0x00\n        /* \"#utility.yul\":7950:7953   */\n      dup2\n        /* \"#utility.yul\":7935:7953   */\n      swap1\n      pop\n        /* \"#utility.yul\":7925:7959   */\n      swap3\n      swap2\n      pop\n      pop\n      jump\t// out\n        /* \"#utility.yul\":7965:8042   */\n    tag_151:\n      0x00\n        /* \"#utility.yul\":8031:8036   */\n      dup2\n        /* \"#utility.yul\":8020:8036   */\n      swap1\n      pop\n        /* \"#utility.yul\":8010:8042   */\n      swap2\n      swap1\n      pop\n      jump\t// out\n        /* \"#utility.yul\":8048:8202   */\n    tag_94:\n        /* \"#utility.yul\":8132:8138   */\n      dup3\n        /* \"#utility.yul\":8127:8130   */\n      dup2\n        /* \"#utility.yul\":8122:8125   */\n      dup4\n        /* \"#utility.yul\":8109:8139   */\n      calldatacopy\n        /* \"#utility.yul\":8194:8195   */\n      0x00\n        /* \"#utility.yul\":8185:8191   */\n      dup4\n        /* \"#utility.yul\":8180:8183   */\n      dup4\n        /* \"#utility.yul\":8176:8192   */\n      add\n        /* \"#utility.yul\":8169:8196   */\n      mstore\n        /* \"#utility.yul\":8099:8202   */\n      pop\n      pop\n      pop\n      jump\t// out\n        /* \"#utility.yul\":8208:8515   */\n    tag_121:\n        /* \"#utility.yul\":8276:8277   */\n      0x00\n        /* \"#utility.yul\":8286:8399   */\n    tag_180:\n        /* \"#utility.yul\":8300:8306   */\n      dup4\n        /* \"#utility.yul\":8297:8298   */\n      dup2\n        /* \"#utility.yul\":8294:8307   */\n      lt\n        /* \"#utility.yul\":8286:8399   */\n      iszero\n      tag_182\n      jumpi\n        /* \"#utility.yul\":8385:8386   */\n      dup1\n        /* \"#utility.yul\":8380:8383   */\n      dup3\n        /* \"#utility.yul\":8376:8387   */\n      add\n        /* \"#utility.yul\":8370:8388   */\n      mload\n        /* \"#utility.yul\":8366:8367   */\n      dup2\n        /* \"#utility.yul\":8361:8364   */\n      dup5\n        /* \"#utility.yul\":8357:8368   */\n      add\n        /* \"#utility.yul\":8350:8389   */\n      mstore\n        /* \"#utility.yul\":8322:8324   */\n      0x20\n        /* \"#utility.yul\":8319:8320   */\n      dup2\n        /* \"#utility.yul\":8315:8325   */\n      add\n        /* \"#utility.yul\":8310:8325   */\n      swap1\n      pop\n        /* \"#utility.yul\":8286:8399   */\n      jump(tag_180)\n    tag_182:\n        /* \"#utility.yul\":8417:8423   */\n      dup4\n        /* \"#utility.yul\":8414:8415   */\n      dup2\n        /* \"#utility.yul\":8411:8424   */\n      gt\n        /* \"#utility.yul\":8408:8410   */\n      iszero\n      tag_183\n      jumpi\n        /* \"#utility.yul\":8497:8498   */\n      0x00\n        /* \"#utility.yul\":8488:8494   */\n      dup5\n        /* \"#utility.yul\":8483:8486   */\n      dup5\n        /* \"#utility.yul\":8479:8495   */\n      add\n        /* \"#utility.yul\":8472:8499   */\n      mstore\n        /* \"#utility.yul\":8408:8410   */\n    tag_183:\n        /* \"#utility.yul\":8257:8515   */\n      pop\n      pop\n      pop\n      pop\n      jump\t// out\n        /* \"#utility.yul\":8521:8841   */\n    tag_54:\n      0x00\n        /* \"#utility.yul\":8602:8603   */\n      0x02\n        /* \"#utility.yul\":8596:8600   */\n      dup3\n        /* \"#utility.yul\":8592:8604   */\n      div\n        /* \"#utility.yul\":8582:8604   */\n      swap1\n      pop\n        /* \"#utility.yul\":8649:8650   */\n      0x01\n        /* \"#utility.yul\":8643:8647   */\n      dup3\n        /* \"#utility.yul\":8639:8651   */\n      and\n        /* \"#utility.yul\":8670:8688   */\n      dup1\n        /* \"#utility.yul\":8660:8662   */\n      tag_185\n      jumpi\n        /* \"#utility.yul\":8726:8730   */\n      0x7f\n        /* \"#utility.yul\":8718:8724   */\n      dup3\n        /* \"#utility.yul\":8714:8731   */\n      and\n        /* \"#utility.yul\":8704:8731   */\n      swap2\n      pop\n        /* \"#utility.yul\":8660:8662   */\n    tag_185:\n        /* \"#utility.yul\":8788:8790   */\n      0x20\n        /* \"#utility.yul\":8780:8786   */\n      dup3\n        /* \"#utility.yul\":8777:8791   */\n      lt\n        /* \"#utility.yul\":8757:8775   */\n      dup2\n        /* \"#utility.yul\":8754:8792   */\n      eq\n        /* \"#utility.yul\":8751:8753   */\n      iszero\n      tag_186\n      jumpi\n        /* \"#utility.yul\":8807:8825   */\n      tag_187\n      tag_188\n      jump\t// in\n    tag_187:\n        /* \"#utility.yul\":8751:8753   */\n    tag_186:\n        /* \"#utility.yul\":8572:8841   */\n      pop\n      swap2\n      swap1\n      pop\n      jump\t// out\n        /* \"#utility.yul\":8847:9080   */\n    tag_31:\n      0x00\n        /* \"#utility.yul\":8909:8933   */\n      tag_190\n        /* \"#utility.yul\":8927:8932   */\n      dup3\n        /* \"#utility.yul\":8909:8933   */\n      tag_151\n      jump\t// in\n    tag_190:\n        /* \"#utility.yul\":8900:8933   */\n      swap2\n      pop\n        /* \"#utility.yul\":8955:9021   */\n      0xffffffffffffffffffffffffffffffffffffffffffffffffffffffffffffffff\n        /* \"#utility.yul\":8948:8953   */\n      dup3\n        /* \"#utility.yul\":8945:9022   */\n      eq\n        /* \"#utility.yul\":8942:8944   */\n      iszero\n      tag_191\n      jumpi\n        /* \"#utility.yul\":9025:9043   */\n      tag_192\n      tag_193\n      jump\t// in\n    tag_192:\n        /* \"#utility.yul\":8942:8944   */\n    tag_191:\n        /* \"#utility.yul\":9072:9073   */\n      0x01\n        /* \"#utility.yul\":9065:9070   */\n      dup3\n        /* \"#utility.yul\":9061:9074   */\n      add\n        /* \"#utility.yul\":9054:9074   */\n      swap1\n      pop\n        /* \"#utility.yul\":8890:9080   */\n      swap2\n      swap1\n      pop\n      jump\t// out\n        /* \"#utility.yul\":9086:9266   */\n    tag_193:\n        /* \"#utility.yul\":9134:9211   */\n      0x4e487b7100000000000000000000000000000000000000000000000000000000\n        /* \"#utility.yul\":9131:9132   */\n      0x00\n        /* \"#utility.yul\":9124:9212   */\n      mstore\n        /* \"#utility.yul\":9231:9235   */\n      0x11\n        /* \"#utility.yul\":9228:9229   */\n      0x04\n        /* \"#utility.yul\":9221:9236   */\n      mstore\n        /* \"#utility.yul\":9255:9259   */\n      0x24\n        /* \"#utility.yul\":9252:9253   */\n      0x00\n        /* \"#utility.yul\":9245:9260   */\n      revert\n        /* \"#utility.yul\":9272:9452   */\n    tag_188:\n        /* \"#utility.yul\":9320:9397   */\n      0x4e487b7100000000000000000000000000000000000000000000000000000000\n        /* \"#utility.yul\":9317:9318   */\n      0x00\n        /* \"#utility.yul\":9310:9398   */\n      mstore\n        /* \"#utility.yul\":9417:9421   */\n      0x22\n        /* \"#utility.yul\":9414:9415   */\n      0x04\n        /* \"#utility.yul\":9407:9422   */\n      mstore\n        /* \"#utility.yul\":9441:9445   */\n      0x24\n        /* \"#utility.yul\":9438:9439   */\n      0x00\n        /* \"#utility.yul\":9431:9446   */\n      revert\n        /* \"#utility.yul\":9458:9638   */\n    tag_169:\n        /* \"#utility.yul\":9506:9583   */\n      0x4e487b7100000000000000000000000000000000000000000000000000000000\n        /* \"#utility.yul\":9503:9504   */\n      0x00\n        /* \"#utility.yul\":9496:9584   */\n      mstore\n        /* \"#utility.yul\":9603:9607   */\n      0x41\n        /* \"#utility.yul\":9600:9601   */\n      0x04\n        /* \"#utility.yul\":9593:9608   */\n      mstore\n        /* \"#utility.yul\":9627:9631   */\n      0x24\n        /* \"#utility.yul\":9624:9625   */\n      0x00\n        /* \"#utility.yul\":9617:9632   */\n      revert\n        /* \"#utility.yul\":9644:9746   */\n    tag_123:\n      0x00\n        /* \"#utility.yul\":9736:9738   */\n      0x1f\n        /* \"#utility.yul\":9732:9739   */\n      not\n        /* \"#utility.yul\":9727:9729   */\n      0x1f\n        /* \"#utility.yul\":9720:9725   */\n      dup4\n        /* \"#utility.yul\":9716:9730   */\n      add\n        /* \"#utility.yul\":9712:9740   */\n      and\n        /* \"#utility.yul\":9702:9740   */\n      swap1\n      pop\n        /* \"#utility.yul\":9692:9746   */\n      swap2\n      swap1\n      pop\n      jump\t// out\n        /* \"#utility.yul\":9752:9874   */\n    tag_102:\n        /* \"#utility.yul\":9825:9849   */\n      tag_199\n        /* \"#utility.yul\":9843:9848   */\n      dup2\n        /* \"#utility.yul\":9825:9849   */\n      tag_151\n      jump\t// in\n    tag_199:\n        /* \"#utility.yul\":9818:9823   */\n      dup2\n        /* \"#utility.yul\":9815:9850   */\n      eq\n        /* \"#utility.yul\":9805:9807   */\n      tag_200\n      jumpi\n        /* \"#utility.yul\":9864:9865   */\n      0x00\n        /* \"#utility.yul\":9861:9862   */\n      dup1\n        /* \"#utility.yul\":9854:9866   */\n      revert\n        /* \"#utility.yul\":9805:9807   */\n    tag_200:\n        /* \"#utility.yul\":9795:9874   */\n      pop\n      jump\t// out\n\n    auxdata: 0xa2646970667358221220ca19357c00c2f1586f9f556e5e7ba4d7462653b29bd1e09379b33e0405c0ddbf64736f6c63430008000033\n}\n",
				"bytecode": {
					"linkReferences": {},
					"object": "608060405234801561001057600080fd5b5060008081905550610c64806100276000396000f3fe608060405234801561001057600080fd5b50600436106100415760003560e01c80630d1fe383146100465780632a1963d21461006257806361bc221a14610094575b600080fd5b610060600480360381019061005b9190610704565b6100b2565b005b61007c600480360381019061007791906106c3565b6101a9565b60405161008b939291906109d0565b60405180910390f35b61009c6104c6565b6040516100a991906109b5565b60405180910390f35b6100bb826104cc565b156100fb576040517f08c379a00000000000000000000000000000000000000000000000000000000081526004016100f290610995565b60405180910390fd5b60006040518060600160405280858152602001848152602001838152509050600181908060018154018082558091505060019003906000526020600020906003020160009091909190915060008201518160000155602082015181600101908051906020019061016c9291906105a3565b5060408201518160020190805190602001906101899291906105a3565b50505060008081548092919061019e90610b30565b919050555050505050565b60006060806101b7846104cc565b6101f6576040517f08c379a00000000000000000000000000000000000000000000000000000000081526004016101ed90610975565b60405180910390fd5b60005b6001805490508110156104bd5760018181548110610240577f4e487b7100000000000000000000000000000000000000000000000000000000600052603260045260246000fd5b9060005260206000209060030201600101604051602001610261919061095e565b60405160208183030381529060405280519060200120856040516020016102889190610947565b6040516020818303038152906040528051906020012014156104aa57600181815481106102de577f4e487b7100000000000000000000000000000000000000000000000000000000600052603260045260246000fd5b9060005260206000209060030201600001546001828154811061032a577f4e487b7100000000000000000000000000000000000000000000000000000000600052603260045260246000fd5b906000526020600020906003020160010160018381548110610375577f4e487b7100000000000000000000000000000000000000000000000000000000600052603260045260246000fd5b906000526020600020906003020160020181805461039290610afe565b80601f01602080910402602001604051908101604052809291908181526020018280546103be90610afe565b801561040b5780601f106103e05761010080835404028352916020019161040b565b820191906000526020600020905b8154815290600101906020018083116103ee57829003601f168201915b5050505050915080805461041e90610afe565b80601f016020809104026020016040519081016040528092919081815260200182805461044a90610afe565b80156104975780601f1061046c57610100808354040283529160200191610497565b820191906000526020600020905b81548152906001019060200180831161047a57829003601f168201915b50505050509050935093509350506104bf565b80806104b590610b30565b9150506101f9565b505b9193909250565b60005481565b600080600090505b60018054905081101561059c576001818154811061051b577f4e487b7100000000000000000000000000000000000000000000000000000000600052603260045260246000fd5b906000526020600020906003020160010160405160200161053c919061095e565b60405160208183030381529060405280519060200120836040516020016105639190610947565b60405160208183030381529060405280519060200120141561058957600191505061059e565b808061059490610b30565b9150506104d4565b505b919050565b8280546105af90610afe565b90600052602060002090601f0160209004810192826105d15760008555610618565b82601f106105ea57805160ff1916838001178555610618565b82800160010185558215610618579182015b828111156106175782518255916020019190600101906105fc565b5b5090506106259190610629565b5090565b5b8082111561064257600081600090555060010161062a565b5090565b600061065961065484610a46565b610a15565b90508281526020810184848401111561067157600080fd5b61067c848285610abc565b509392505050565b600082601f83011261069557600080fd5b81356106a5848260208601610646565b91505092915050565b6000813590506106bd81610c17565b92915050565b6000602082840312156106d557600080fd5b600082013567ffffffffffffffff8111156106ef57600080fd5b6106fb84828501610684565b91505092915050565b60008060006060848603121561071957600080fd5b6000610727868287016106ae565b935050602084013567ffffffffffffffff81111561074457600080fd5b61075086828701610684565b925050604084013567ffffffffffffffff81111561076d57600080fd5b61077986828701610684565b9150509250925092565b600061078e82610a8b565b6107988185610a96565b93506107a8818560208601610acb565b6107b181610c06565b840191505092915050565b60006107c782610a8b565b6107d18185610aa7565b93506107e1818560208601610acb565b80840191505092915050565b600081546107fa81610afe565b6108048186610aa7565b9450600182166000811461081f576001811461083057610863565b60ff19831686528186019350610863565b61083985610a76565b60005b8381101561085b5781548189015260018201915060208101905061083c565b838801955050505b50505092915050565b6000610879602f83610a96565b91507f4564756361746f72206e616d6520646f6573206e6f742065786973742c20706c60008301527f656173652074727920616761696e2e00000000000000000000000000000000006020830152604082019050919050565b60006108df603a83610a96565b91507f4564756361746f72206e616d6520616c7265616479207265676973746572656460008301527f2c20706c656173652075736520616e6f74686572206e616d652e0000000000006020830152604082019050919050565b61094181610ab2565b82525050565b600061095382846107bc565b915081905092915050565b600061096a82846107ed565b915081905092915050565b6000602082019050818103600083015261098e8161086c565b9050919050565b600060208201905081810360008301526109ae816108d2565b9050919050565b60006020820190506109ca6000830184610938565b92915050565b60006060820190506109e56000830186610938565b81810360208301526109f78185610783565b90508181036040830152610a0b8184610783565b9050949350505050565b6000604051905081810181811067ffffffffffffffff82111715610a3c57610a3b610bd7565b5b8060405250919050565b600067ffffffffffffffff821115610a6157610a60610bd7565b5b601f19601f8301169050602081019050919050565b60008190508160005260206000209050919050565b600081519050919050565b600082825260208201905092915050565b600081905092915050565b6000819050919050565b82818337600083830152505050565b60005b83811015610ae9578082015181840152602081019050610ace565b83811115610af8576000848401525b50505050565b60006002820490506001821680610b1657607f821691505b60208210811415610b2a57610b29610ba8565b5b50919050565b6000610b3b82610ab2565b91507fffffffffffffffffffffffffffffffffffffffffffffffffffffffffffffffff821415610b6e57610b6d610b79565b5b600182019050919050565b7f4e487b7100000000000000000000000000000000000000000000000000000000600052601160045260246000fd5b7f4e487b7100000000000000000000000000000000000000000000000000000000600052602260045260246000fd5b7f4e487b7100000000000000000000000000000000000000000000000000000000600052604160045260246000fd5b6000601f19601f8301169050919050565b610c2081610ab2565b8114610c2b57600080fd5b5056fea2646970667358221220ca19357c00c2f1586f9f556e5e7ba4d7462653b29bd1e09379b33e0405c0ddbf64736f6c63430008000033",
					"opcodes": "PUSH1 0x80 PUSH1 0x40 MSTORE CALLVALUE DUP1 ISZERO PUSH2 0x10 JUMPI PUSH1 0x0 DUP1 REVERT JUMPDEST POP PUSH1 0x0 DUP1 DUP2 SWAP1 SSTORE POP PUSH2 0xC64 DUP1 PUSH2 0x27 PUSH1 0x0 CODECOPY PUSH1 0x0 RETURN INVALID PUSH1 0x80 PUSH1 0x40 MSTORE CALLVALUE DUP1 ISZERO PUSH2 0x10 JUMPI PUSH1 0x0 DUP1 REVERT JUMPDEST POP PUSH1 0x4 CALLDATASIZE LT PUSH2 0x41 JUMPI PUSH1 0x0 CALLDATALOAD PUSH1 0xE0 SHR DUP1 PUSH4 0xD1FE383 EQ PUSH2 0x46 JUMPI DUP1 PUSH4 0x2A1963D2 EQ PUSH2 0x62 JUMPI DUP1 PUSH4 0x61BC221A EQ PUSH2 0x94 JUMPI JUMPDEST PUSH1 0x0 DUP1 REVERT JUMPDEST PUSH2 0x60 PUSH1 0x4 DUP1 CALLDATASIZE SUB DUP2 ADD SWAP1 PUSH2 0x5B SWAP2 SWAP1 PUSH2 0x704 JUMP JUMPDEST PUSH2 0xB2 JUMP JUMPDEST STOP JUMPDEST PUSH2 0x7C PUSH1 0x4 DUP1 CALLDATASIZE SUB DUP2 ADD SWAP1 PUSH2 0x77 SWAP2 SWAP1 PUSH2 0x6C3 JUMP JUMPDEST PUSH2 0x1A9 JUMP JUMPDEST PUSH1 0x40 MLOAD PUSH2 0x8B SWAP4 SWAP3 SWAP2 SWAP1 PUSH2 0x9D0 JUMP JUMPDEST PUSH1 0x40 MLOAD DUP1 SWAP2 SUB SWAP1 RETURN JUMPDEST PUSH2 0x9C PUSH2 0x4C6 JUMP JUMPDEST PUSH1 0x40 MLOAD PUSH2 0xA9 SWAP2 SWAP1 PUSH2 0x9B5 JUMP JUMPDEST PUSH1 0x40 MLOAD DUP1 SWAP2 SUB SWAP1 RETURN JUMPDEST PUSH2 0xBB DUP3 PUSH2 0x4CC JUMP JUMPDEST ISZERO PUSH2 0xFB JUMPI PUSH1 0x40 MLOAD PUSH32 0x8C379A000000000000000000000000000000000000000000000000000000000 DUP2 MSTORE PUSH1 0x4 ADD PUSH2 0xF2 SWAP1 PUSH2 0x995 JUMP JUMPDEST PUSH1 0x40 MLOAD DUP1 SWAP2 SUB SWAP1 REVERT JUMPDEST PUSH1 0x0 PUSH1 0x40 MLOAD DUP1 PUSH1 0x60 ADD PUSH1 0x40 MSTORE DUP1 DUP6 DUP2 MSTORE PUSH1 0x20 ADD DUP5 DUP2 MSTORE PUSH1 0x20 ADD DUP4 DUP2 MSTORE POP SWAP1 POP PUSH1 0x1 DUP2 SWAP1 DUP1 PUSH1 0x1 DUP2 SLOAD ADD DUP1 DUP3 SSTORE DUP1 SWAP2 POP POP PUSH1 0x1 SWAP1 SUB SWAP1 PUSH1 0x0 MSTORE PUSH1 0x20 PUSH1 0x0 KECCAK256 SWAP1 PUSH1 0x3 MUL ADD PUSH1 0x0 SWAP1 SWAP2 SWAP1 SWAP2 SWAP1 SWAP2 POP PUSH1 0x0 DUP3 ADD MLOAD DUP2 PUSH1 0x0 ADD SSTORE PUSH1 0x20 DUP3 ADD MLOAD DUP2 PUSH1 0x1 ADD SWAP1 DUP1 MLOAD SWAP1 PUSH1 0x20 ADD SWAP1 PUSH2 0x16C SWAP3 SWAP2 SWAP1 PUSH2 0x5A3 JUMP JUMPDEST POP PUSH1 0x40 DUP3 ADD MLOAD DUP2 PUSH1 0x2 ADD SWAP1 DUP1 MLOAD SWAP1 PUSH1 0x20 ADD SWAP1 PUSH2 0x189 SWAP3 SWAP2 SWAP1 PUSH2 0x5A3 JUMP JUMPDEST POP POP POP PUSH1 0x0 DUP1 DUP2 SLOAD DUP1 SWAP3 SWAP2 SWAP1 PUSH2 0x19E SWAP1 PUSH2 0xB30 JUMP JUMPDEST SWAP2 SWAP1 POP SSTORE POP POP POP POP POP JUMP JUMPDEST PUSH1 0x0 PUSH1 0x60 DUP1 PUSH2 0x1B7 DUP5 PUSH2 0x4CC JUMP JUMPDEST PUSH2 0x1F6 JUMPI PUSH1 0x40 MLOAD PUSH32 0x8C379A000000000000000000000000000000000000000000000000000000000 DUP2 MSTORE PUSH1 0x4 ADD PUSH2 0x1ED SWAP1 PUSH2 0x975 JUMP JUMPDEST PUSH1 0x40 MLOAD DUP1 SWAP2 SUB SWAP1 REVERT JUMPDEST PUSH1 0x0 JUMPDEST PUSH1 0x1 DUP1 SLOAD SWAP1 POP DUP2 LT ISZERO PUSH2 0x4BD JUMPI PUSH1 0x1 DUP2 DUP2 SLOAD DUP2 LT PUSH2 0x240 JUMPI PUSH32 0x4E487B7100000000000000000000000000000000000000000000000000000000 PUSH1 0x0 MSTORE PUSH1 0x32 PUSH1 0x4 MSTORE PUSH1 0x24 PUSH1 0x0 REVERT JUMPDEST SWAP1 PUSH1 0x0 MSTORE PUSH1 0x20 PUSH1 0x0 KECCAK256 SWAP1 PUSH1 0x3 MUL ADD PUSH1 0x1 ADD PUSH1 0x40 MLOAD PUSH1 0x20 ADD PUSH2 0x261 SWAP2 SWAP1 PUSH2 0x95E JUMP JUMPDEST PUSH1 0x40 MLOAD PUSH1 0x20 DUP2 DUP4 SUB SUB DUP2 MSTORE SWAP1 PUSH1 0x40 MSTORE DUP1 MLOAD SWAP1 PUSH1 0x20 ADD KECCAK256 DUP6 PUSH1 0x40 MLOAD PUSH1 0x20 ADD PUSH2 0x288 SWAP2 SWAP1 PUSH2 0x947 JUMP JUMPDEST PUSH1 0x40 MLOAD PUSH1 0x20 DUP2 DUP4 SUB SUB DUP2 MSTORE SWAP1 PUSH1 0x40 MSTORE DUP1 MLOAD SWAP1 PUSH1 0x20 ADD KECCAK256 EQ ISZERO PUSH2 0x4AA JUMPI PUSH1 0x1 DUP2 DUP2 SLOAD DUP2 LT PUSH2 0x2DE JUMPI PUSH32 0x4E487B7100000000000000000000000000000000000000000000000000000000 PUSH1 0x0 MSTORE PUSH1 0x32 PUSH1 0x4 MSTORE PUSH1 0x24 PUSH1 0x0 REVERT JUMPDEST SWAP1 PUSH1 0x0 MSTORE PUSH1 0x20 PUSH1 0x0 KECCAK256 SWAP1 PUSH1 0x3 MUL ADD PUSH1 0x0 ADD SLOAD PUSH1 0x1 DUP3 DUP2 SLOAD DUP2 LT PUSH2 0x32A JUMPI PUSH32 0x4E487B7100000000000000000000000000000000000000000000000000000000 PUSH1 0x0 MSTORE PUSH1 0x32 PUSH1 0x4 MSTORE PUSH1 0x24 PUSH1 0x0 REVERT JUMPDEST SWAP1 PUSH1 0x0 MSTORE PUSH1 0x20 PUSH1 0x0 KECCAK256 SWAP1 PUSH1 0x3 MUL ADD PUSH1 0x1 ADD PUSH1 0x1 DUP4 DUP2 SLOAD DUP2 LT PUSH2 0x375 JUMPI PUSH32 0x4E487B7100000000000000000000000000000000000000000000000000000000 PUSH1 0x0 MSTORE PUSH1 0x32 PUSH1 0x4 MSTORE PUSH1 0x24 PUSH1 0x0 REVERT JUMPDEST SWAP1 PUSH1 0x0 MSTORE PUSH1 0x20 PUSH1 0x0 KECCAK256 SWAP1 PUSH1 0x3 MUL ADD PUSH1 0x2 ADD DUP2 DUP1 SLOAD PUSH2 0x392 SWAP1 PUSH2 0xAFE JUMP JUMPDEST DUP1 PUSH1 0x1F ADD PUSH1 0x20 DUP1 SWAP2 DIV MUL PUSH1 0x20 ADD PUSH1 0x40 MLOAD SWAP1 DUP2 ADD PUSH1 0x40 MSTORE DUP1 SWAP3 SWAP2 SWAP1 DUP2 DUP2 MSTORE PUSH1 0x20 ADD DUP3 DUP1 SLOAD PUSH2 0x3BE SWAP1 PUSH2 0xAFE JUMP JUMPDEST DUP1 ISZERO PUSH2 0x40B JUMPI DUP1 PUSH1 0x1F LT PUSH2 0x3E0 JUMPI PUSH2 0x100 DUP1 DUP4 SLOAD DIV MUL DUP4 MSTORE SWAP2 PUSH1 0x20 ADD SWAP2 PUSH2 0x40B JUMP JUMPDEST DUP3 ADD SWAP2 SWAP1 PUSH1 0x0 MSTORE PUSH1 0x20 PUSH1 0x0 KECCAK256 SWAP1 JUMPDEST DUP2 SLOAD DUP2 MSTORE SWAP1 PUSH1 0x1 ADD SWAP1 PUSH1 0x20 ADD DUP1 DUP4 GT PUSH2 0x3EE JUMPI DUP3 SWAP1 SUB PUSH1 0x1F AND DUP3 ADD SWAP2 JUMPDEST POP POP POP POP POP SWAP2 POP DUP1 DUP1 SLOAD PUSH2 0x41E SWAP1 PUSH2 0xAFE JUMP JUMPDEST DUP1 PUSH1 0x1F ADD PUSH1 0x20 DUP1 SWAP2 DIV MUL PUSH1 0x20 ADD PUSH1 0x40 MLOAD SWAP1 DUP2 ADD PUSH1 0x40 MSTORE DUP1 SWAP3 SWAP2 SWAP1 DUP2 DUP2 MSTORE PUSH1 0x20 ADD DUP3 DUP1 SLOAD PUSH2 0x44A SWAP1 PUSH2 0xAFE JUMP JUMPDEST DUP1 ISZERO PUSH2 0x497 JUMPI DUP1 PUSH1 0x1F LT PUSH2 0x46C JUMPI PUSH2 0x100 DUP1 DUP4 SLOAD DIV MUL DUP4 MSTORE SWAP2 PUSH1 0x20 ADD SWAP2 PUSH2 0x497 JUMP JUMPDEST DUP3 ADD SWAP2 SWAP1 PUSH1 0x0 MSTORE PUSH1 0x20 PUSH1 0x0 KECCAK256 SWAP1 JUMPDEST DUP2 SLOAD DUP2 MSTORE SWAP1 PUSH1 0x1 ADD SWAP1 PUSH1 0x20 ADD DUP1 DUP4 GT PUSH2 0x47A JUMPI DUP3 SWAP1 SUB PUSH1 0x1F AND DUP3 ADD SWAP2 JUMPDEST POP POP POP POP POP SWAP1 POP SWAP4 POP SWAP4 POP SWAP4 POP POP PUSH2 0x4BF JUMP JUMPDEST DUP1 DUP1 PUSH2 0x4B5 SWAP1 PUSH2 0xB30 JUMP JUMPDEST SWAP2 POP POP PUSH2 0x1F9 JUMP JUMPDEST POP JUMPDEST SWAP2 SWAP4 SWAP1 SWAP3 POP JUMP JUMPDEST PUSH1 0x0 SLOAD DUP2 JUMP JUMPDEST PUSH1 0x0 DUP1 PUSH1 0x0 SWAP1 POP JUMPDEST PUSH1 0x1 DUP1 SLOAD SWAP1 POP DUP2 LT ISZERO PUSH2 0x59C JUMPI PUSH1 0x1 DUP2 DUP2 SLOAD DUP2 LT PUSH2 0x51B JUMPI PUSH32 0x4E487B7100000000000000000000000000000000000000000000000000000000 PUSH1 0x0 MSTORE PUSH1 0x32 PUSH1 0x4 MSTORE PUSH1 0x24 PUSH1 0x0 REVERT JUMPDEST SWAP1 PUSH1 0x0 MSTORE PUSH1 0x20 PUSH1 0x0 KECCAK256 SWAP1 PUSH1 0x3 MUL ADD PUSH1 0x1 ADD PUSH1 0x40 MLOAD PUSH1 0x20 ADD PUSH2 0x53C SWAP2 SWAP1 PUSH2 0x95E JUMP JUMPDEST PUSH1 0x40 MLOAD PUSH1 0x20 DUP2 DUP4 SUB SUB DUP2 MSTORE SWAP1 PUSH1 0x40 MSTORE DUP1 MLOAD SWAP1 PUSH1 0x20 ADD KECCAK256 DUP4 PUSH1 0x40 MLOAD PUSH1 0x20 ADD PUSH2 0x563 SWAP2 SWAP1 PUSH2 0x947 JUMP JUMPDEST PUSH1 0x40 MLOAD PUSH1 0x20 DUP2 DUP4 SUB SUB DUP2 MSTORE SWAP1 PUSH1 0x40 MSTORE DUP1 MLOAD SWAP1 PUSH1 0x20 ADD KECCAK256 EQ ISZERO PUSH2 0x589 JUMPI PUSH1 0x1 SWAP2 POP POP PUSH2 0x59E JUMP JUMPDEST DUP1 DUP1 PUSH2 0x594 SWAP1 PUSH2 0xB30 JUMP JUMPDEST SWAP2 POP POP PUSH2 0x4D4 JUMP JUMPDEST POP JUMPDEST SWAP2 SWAP1 POP JUMP JUMPDEST DUP3 DUP1 SLOAD PUSH2 0x5AF SWAP1 PUSH2 0xAFE JUMP JUMPDEST SWAP1 PUSH1 0x0 MSTORE PUSH1 0x20 PUSH1 0x0 KECCAK256 SWAP1 PUSH1 0x1F ADD PUSH1 0x20 SWAP1 DIV DUP2 ADD SWAP3 DUP3 PUSH2 0x5D1 JUMPI PUSH1 0x0 DUP6 SSTORE PUSH2 0x618 JUMP JUMPDEST DUP3 PUSH1 0x1F LT PUSH2 0x5EA JUMPI DUP1 MLOAD PUSH1 0xFF NOT AND DUP4 DUP1 ADD OR DUP6 SSTORE PUSH2 0x618 JUMP JUMPDEST DUP3 DUP1 ADD PUSH1 0x1 ADD DUP6 SSTORE DUP3 ISZERO PUSH2 0x618 JUMPI SWAP2 DUP3 ADD JUMPDEST DUP3 DUP2 GT ISZERO PUSH2 0x617 JUMPI DUP3 MLOAD DUP3 SSTORE SWAP2 PUSH1 0x20 ADD SWAP2 SWAP1 PUSH1 0x1 ADD SWAP1 PUSH2 0x5FC JUMP JUMPDEST JUMPDEST POP SWAP1 POP PUSH2 0x625 SWAP2 SWAP1 PUSH2 0x629 JUMP JUMPDEST POP SWAP1 JUMP JUMPDEST JUMPDEST DUP1 DUP3 GT ISZERO PUSH2 0x642 JUMPI PUSH1 0x0 DUP2 PUSH1 0x0 SWAP1 SSTORE POP PUSH1 0x1 ADD PUSH2 0x62A JUMP JUMPDEST POP SWAP1 JUMP JUMPDEST PUSH1 0x0 PUSH2 0x659 PUSH2 0x654 DUP5 PUSH2 0xA46 JUMP JUMPDEST PUSH2 0xA15 JUMP JUMPDEST SWAP1 POP DUP3 DUP2 MSTORE PUSH1 0x20 DUP2 ADD DUP5 DUP5 DUP5 ADD GT ISZERO PUSH2 0x671 JUMPI PUSH1 0x0 DUP1 REVERT JUMPDEST PUSH2 0x67C DUP5 DUP3 DUP6 PUSH2 0xABC JUMP JUMPDEST POP SWAP4 SWAP3 POP POP POP JUMP JUMPDEST PUSH1 0x0 DUP3 PUSH1 0x1F DUP4 ADD SLT PUSH2 0x695 JUMPI PUSH1 0x0 DUP1 REVERT JUMPDEST DUP2 CALLDATALOAD PUSH2 0x6A5 DUP5 DUP3 PUSH1 0x20 DUP7 ADD PUSH2 0x646 JUMP JUMPDEST SWAP2 POP POP SWAP3 SWAP2 POP POP JUMP JUMPDEST PUSH1 0x0 DUP2 CALLDATALOAD SWAP1 POP PUSH2 0x6BD DUP2 PUSH2 0xC17 JUMP JUMPDEST SWAP3 SWAP2 POP POP JUMP JUMPDEST PUSH1 0x0 PUSH1 0x20 DUP3 DUP5 SUB SLT ISZERO PUSH2 0x6D5 JUMPI PUSH1 0x0 DUP1 REVERT JUMPDEST PUSH1 0x0 DUP3 ADD CALLDATALOAD PUSH8 0xFFFFFFFFFFFFFFFF DUP2 GT ISZERO PUSH2 0x6EF JUMPI PUSH1 0x0 DUP1 REVERT JUMPDEST PUSH2 0x6FB DUP5 DUP3 DUP6 ADD PUSH2 0x684 JUMP JUMPDEST SWAP2 POP POP SWAP3 SWAP2 POP POP JUMP JUMPDEST PUSH1 0x0 DUP1 PUSH1 0x0 PUSH1 0x60 DUP5 DUP7 SUB SLT ISZERO PUSH2 0x719 JUMPI PUSH1 0x0 DUP1 REVERT JUMPDEST PUSH1 0x0 PUSH2 0x727 DUP7 DUP3 DUP8 ADD PUSH2 0x6AE JUMP JUMPDEST SWAP4 POP POP PUSH1 0x20 DUP5 ADD CALLDATALOAD PUSH8 0xFFFFFFFFFFFFFFFF DUP2 GT ISZERO PUSH2 0x744 JUMPI PUSH1 0x0 DUP1 REVERT JUMPDEST PUSH2 0x750 DUP7 DUP3 DUP8 ADD PUSH2 0x684 JUMP JUMPDEST SWAP3 POP POP PUSH1 0x40 DUP5 ADD CALLDATALOAD PUSH8 0xFFFFFFFFFFFFFFFF DUP2 GT ISZERO PUSH2 0x76D JUMPI PUSH1 0x0 DUP1 REVERT JUMPDEST PUSH2 0x779 DUP7 DUP3 DUP8 ADD PUSH2 0x684 JUMP JUMPDEST SWAP2 POP POP SWAP3 POP SWAP3 POP SWAP3 JUMP JUMPDEST PUSH1 0x0 PUSH2 0x78E DUP3 PUSH2 0xA8B JUMP JUMPDEST PUSH2 0x798 DUP2 DUP6 PUSH2 0xA96 JUMP JUMPDEST SWAP4 POP PUSH2 0x7A8 DUP2 DUP6 PUSH1 0x20 DUP7 ADD PUSH2 0xACB JUMP JUMPDEST PUSH2 0x7B1 DUP2 PUSH2 0xC06 JUMP JUMPDEST DUP5 ADD SWAP2 POP POP SWAP3 SWAP2 POP POP JUMP JUMPDEST PUSH1 0x0 PUSH2 0x7C7 DUP3 PUSH2 0xA8B JUMP JUMPDEST PUSH2 0x7D1 DUP2 DUP6 PUSH2 0xAA7 JUMP JUMPDEST SWAP4 POP PUSH2 0x7E1 DUP2 DUP6 PUSH1 0x20 DUP7 ADD PUSH2 0xACB JUMP JUMPDEST DUP1 DUP5 ADD SWAP2 POP POP SWAP3 SWAP2 POP POP JUMP JUMPDEST PUSH1 0x0 DUP2 SLOAD PUSH2 0x7FA DUP2 PUSH2 0xAFE JUMP JUMPDEST PUSH2 0x804 DUP2 DUP7 PUSH2 0xAA7 JUMP JUMPDEST SWAP5 POP PUSH1 0x1 DUP3 AND PUSH1 0x0 DUP2 EQ PUSH2 0x81F JUMPI PUSH1 0x1 DUP2 EQ PUSH2 0x830 JUMPI PUSH2 0x863 JUMP JUMPDEST PUSH1 0xFF NOT DUP4 AND DUP7 MSTORE DUP2 DUP7 ADD SWAP4 POP PUSH2 0x863 JUMP JUMPDEST PUSH2 0x839 DUP6 PUSH2 0xA76 JUMP JUMPDEST PUSH1 0x0 JUMPDEST DUP4 DUP2 LT ISZERO PUSH2 0x85B JUMPI DUP2 SLOAD DUP2 DUP10 ADD MSTORE PUSH1 0x1 DUP3 ADD SWAP2 POP PUSH1 0x20 DUP2 ADD SWAP1 POP PUSH2 0x83C JUMP JUMPDEST DUP4 DUP9 ADD SWAP6 POP POP POP JUMPDEST POP POP POP SWAP3 SWAP2 POP POP JUMP JUMPDEST PUSH1 0x0 PUSH2 0x879 PUSH1 0x2F DUP4 PUSH2 0xA96 JUMP JUMPDEST SWAP2 POP PUSH32 0x4564756361746F72206E616D6520646F6573206E6F742065786973742C20706C PUSH1 0x0 DUP4 ADD MSTORE PUSH32 0x656173652074727920616761696E2E0000000000000000000000000000000000 PUSH1 0x20 DUP4 ADD MSTORE PUSH1 0x40 DUP3 ADD SWAP1 POP SWAP2 SWAP1 POP JUMP JUMPDEST PUSH1 0x0 PUSH2 0x8DF PUSH1 0x3A DUP4 PUSH2 0xA96 JUMP JUMPDEST SWAP2 POP PUSH32 0x4564756361746F72206E616D6520616C72656164792072656769737465726564 PUSH1 0x0 DUP4 ADD MSTORE PUSH32 0x2C20706C656173652075736520616E6F74686572206E616D652E000000000000 PUSH1 0x20 DUP4 ADD MSTORE PUSH1 0x40 DUP3 ADD SWAP1 POP SWAP2 SWAP1 POP JUMP JUMPDEST PUSH2 0x941 DUP2 PUSH2 0xAB2 JUMP JUMPDEST DUP3 MSTORE POP POP JUMP JUMPDEST PUSH1 0x0 PUSH2 0x953 DUP3 DUP5 PUSH2 0x7BC JUMP JUMPDEST SWAP2 POP DUP2 SWAP1 POP SWAP3 SWAP2 POP POP JUMP JUMPDEST PUSH1 0x0 PUSH2 0x96A DUP3 DUP5 PUSH2 0x7ED JUMP JUMPDEST SWAP2 POP DUP2 SWAP1 POP SWAP3 SWAP2 POP POP JUMP JUMPDEST PUSH1 0x0 PUSH1 0x20 DUP3 ADD SWAP1 POP DUP2 DUP2 SUB PUSH1 0x0 DUP4 ADD MSTORE PUSH2 0x98E DUP2 PUSH2 0x86C JUMP JUMPDEST SWAP1 POP SWAP2 SWAP1 POP JUMP JUMPDEST PUSH1 0x0 PUSH1 0x20 DUP3 ADD SWAP1 POP DUP2 DUP2 SUB PUSH1 0x0 DUP4 ADD MSTORE PUSH2 0x9AE DUP2 PUSH2 0x8D2 JUMP JUMPDEST SWAP1 POP SWAP2 SWAP1 POP JUMP JUMPDEST PUSH1 0x0 PUSH1 0x20 DUP3 ADD SWAP1 POP PUSH2 0x9CA PUSH1 0x0 DUP4 ADD DUP5 PUSH2 0x938 JUMP JUMPDEST SWAP3 SWAP2 POP POP JUMP JUMPDEST PUSH1 0x0 PUSH1 0x60 DUP3 ADD SWAP1 POP PUSH2 0x9E5 PUSH1 0x0 DUP4 ADD DUP7 PUSH2 0x938 JUMP JUMPDEST DUP2 DUP2 SUB PUSH1 0x20 DUP4 ADD MSTORE PUSH2 0x9F7 DUP2 DUP6 PUSH2 0x783 JUMP JUMPDEST SWAP1 POP DUP2 DUP2 SUB PUSH1 0x40 DUP4 ADD MSTORE PUSH2 0xA0B DUP2 DUP5 PUSH2 0x783 JUMP JUMPDEST SWAP1 POP SWAP5 SWAP4 POP POP POP POP JUMP JUMPDEST PUSH1 0x0 PUSH1 0x40 MLOAD SWAP1 POP DUP2 DUP2 ADD DUP2 DUP2 LT PUSH8 0xFFFFFFFFFFFFFFFF DUP3 GT OR ISZERO PUSH2 0xA3C JUMPI PUSH2 0xA3B PUSH2 0xBD7 JUMP JUMPDEST JUMPDEST DUP1 PUSH1 0x40 MSTORE POP SWAP2 SWAP1 POP JUMP JUMPDEST PUSH1 0x0 PUSH8 0xFFFFFFFFFFFFFFFF DUP3 GT ISZERO PUSH2 0xA61 JUMPI PUSH2 0xA60 PUSH2 0xBD7 JUMP JUMPDEST JUMPDEST PUSH1 0x1F NOT PUSH1 0x1F DUP4 ADD AND SWAP1 POP PUSH1 0x20 DUP2 ADD SWAP1 POP SWAP2 SWAP1 POP JUMP JUMPDEST PUSH1 0x0 DUP2 SWAP1 POP DUP2 PUSH1 0x0 MSTORE PUSH1 0x20 PUSH1 0x0 KECCAK256 SWAP1 POP SWAP2 SWAP1 POP JUMP JUMPDEST PUSH1 0x0 DUP2 MLOAD SWAP1 POP SWAP2 SWAP1 POP JUMP JUMPDEST PUSH1 0x0 DUP3 DUP3 MSTORE PUSH1 0x20 DUP3 ADD SWAP1 POP SWAP3 SWAP2 POP POP JUMP JUMPDEST PUSH1 0x0 DUP2 SWAP1 POP SWAP3 SWAP2 POP POP JUMP JUMPDEST PUSH1 0x0 DUP2 SWAP1 POP SWAP2 SWAP1 POP JUMP JUMPDEST DUP3 DUP2 DUP4 CALLDATACOPY PUSH1 0x0 DUP4 DUP4 ADD MSTORE POP POP POP JUMP JUMPDEST PUSH1 0x0 JUMPDEST DUP4 DUP2 LT ISZERO PUSH2 0xAE9 JUMPI DUP1 DUP3 ADD MLOAD DUP2 DUP5 ADD MSTORE PUSH1 0x20 DUP2 ADD SWAP1 POP PUSH2 0xACE JUMP JUMPDEST DUP4 DUP2 GT ISZERO PUSH2 0xAF8 JUMPI PUSH1 0x0 DUP5 DUP5 ADD MSTORE JUMPDEST POP POP POP POP JUMP JUMPDEST PUSH1 0x0 PUSH1 0x2 DUP3 DIV SWAP1 POP PUSH1 0x1 DUP3 AND DUP1 PUSH2 0xB16 JUMPI PUSH1 0x7F DUP3 AND SWAP2 POP JUMPDEST PUSH1 0x20 DUP3 LT DUP2 EQ ISZERO PUSH2 0xB2A JUMPI PUSH2 0xB29 PUSH2 0xBA8 JUMP JUMPDEST JUMPDEST POP SWAP2 SWAP1 POP JUMP JUMPDEST PUSH1 0x0 PUSH2 0xB3B DUP3 PUSH2 0xAB2 JUMP JUMPDEST SWAP2 POP PUSH32 0xFFFFFFFFFFFFFFFFFFFFFFFFFFFFFFFFFFFFFFFFFFFFFFFFFFFFFFFFFFFFFFFF DUP3 EQ ISZERO PUSH2 0xB6E JUMPI PUSH2 0xB6D PUSH2 0xB79 JUMP JUMPDEST JUMPDEST PUSH1 0x1 DUP3 ADD SWAP1 POP SWAP2 SWAP1 POP JUMP JUMPDEST PUSH32 0x4E487B7100000000000000000000000000000000000000000000000000000000 PUSH1 0x0 MSTORE PUSH1 0x11 PUSH1 0x4 MSTORE PUSH1 0x24 PUSH1 0x0 REVERT JUMPDEST PUSH32 0x4E487B7100000000000000000000000000000000000000000000000000000000 PUSH1 0x0 MSTORE PUSH1 0x22 PUSH1 0x4 MSTORE PUSH1 0x24 PUSH1 0x0 REVERT JUMPDEST PUSH32 0x4E487B7100000000000000000000000000000000000000000000000000000000 PUSH1 0x0 MSTORE PUSH1 0x41 PUSH1 0x4 MSTORE PUSH1 0x24 PUSH1 0x0 REVERT JUMPDEST PUSH1 0x0 PUSH1 0x1F NOT PUSH1 0x1F DUP4 ADD AND SWAP1 POP SWAP2 SWAP1 POP JUMP JUMPDEST PUSH2 0xC20 DUP2 PUSH2 0xAB2 JUMP JUMPDEST DUP2 EQ PUSH2 0xC2B JUMPI PUSH1 0x0 DUP1 REVERT JUMPDEST POP JUMP INVALID LOG2 PUSH5 0x6970667358 0x22 SLT KECCAK256 0xCA NOT CALLDATALOAD PUSH29 0xC2F1586F9F556E5E7BA4D7462653B29BD1E09379B33E0405C0DDBF64 PUSH20 0x6F6C634300080000330000000000000000000000 "
				},
				"gasEstimates": {
					"creation": {
						"codeDepositCost": "634400",
						"executionCost": "5684",
						"totalCost": "640084"
					},
					"external": {
						"counter()": "1151",
						"registerEducator(uint256,string,string)": "infinite",
						"retrieveEducatorData(string)": "infinite"
					},
					"internal": {
						"educatorExists(string memory)": "infinite"
					}
				},
				"methodIdentifiers": {
					"counter()": "61bc221a",
					"registerEducator(uint256,string,string)": "0d1fe383",
					"retrieveEducatorData(string)": "2a1963d2"
				}
			},
			"storageLayout": {
				"storage": [
					{
						"astId": 3,
						"contract": "contracts/StructActivity.sol:structActivity",
						"label": "counter",
						"offset": 0,
						"slot": "0",
						"type": "t_uint256"
					},
					{
						"astId": 14,
						"contract": "contracts/StructActivity.sol:structActivity",
						"label": "educatorRecords",
						"offset": 0,
						"slot": "1",
						"type": "t_array(t_struct(educator)10_storage)dyn_storage"
					}
				],
				"types": {
					"t_array(t_struct(educator)10_storage)dyn_storage": {
						"base": "t_struct(educator)10_storage",
						"encoding": "dynamic_array",
						"label": "struct structActivity.educator[]",
						"numberOfBytes": "32"
					},
					"t_string_storage": {
						"encoding": "bytes",
						"label": "string",
						"numberOfBytes": "32"
					},
					"t_struct(educator)10_storage": {
						"encoding": "inplace",
						"label": "struct structActivity.educator",
						"members": [
							{
								"astId": 5,
								"contract": "contracts/StructActivity.sol:structActivity",
								"label": "id",
								"offset": 0,
								"slot": "0",
								"type": "t_uint256"
							},
							{
								"astId": 7,
								"contract": "contracts/StructActivity.sol:structActivity",
								"label": "name",
								"offset": 0,
								"slot": "1",
								"type": "t_string_storage"
							},
							{
								"astId": 9,
								"contract": "contracts/StructActivity.sol:structActivity",
								"label": "course",
								"offset": 0,
								"slot": "2",
								"type": "t_string_storage"
							}
						],
						"numberOfBytes": "96"
					},
					"t_uint256": {
						"encoding": "inplace",
						"label": "uint256",
						"numberOfBytes": "32"
					}
				}
			},
			"userdoc": {
				"kind": "user",
				"methods": {},
				"version": 1
			}
		}
	}
}