{
	"contracts/MappingActivity.sol": {
		"mappingActivity": {
			"abi": [
				{
					"inputs": [
						{
							"internalType": "address",
							"name": "",
							"type": "address"
						}
					],
					"name": "balanceOf",
					"outputs": [
						{
							"internalType": "uint256",
							"name": "",
							"type": "uint256"
						}
					],
					"stateMutability": "view",
					"type": "function"
				},
				{
					"inputs": [],
					"name": "checkAccountMappingAmount",
					"outputs": [
						{
							"internalType": "uint256",
							"name": "",
							"type": "uint256"
						}
					],
					"stateMutability": "view",
					"type": "function"
				},
				{
					"inputs": [],
					"name": "claimTokens",
					"outputs": [],
					"stateMutability": "nonpayable",
					"type": "function"
				},
				{
					"inputs": [],
					"name": "counter",
					"outputs": [
						{
							"internalType": "uint256",
							"name": "",
							"type": "uint256"
						}
					],
					"stateMutability": "view",
					"type": "function"
				}
			],
			"devdoc": {
				"kind": "dev",
				"methods": {},
				"version": 1
			},
			"evm": {
				"assembly": "    /* \"contracts/MappingActivity.sol\":361:1283  contract mappingActivity {... */\n  mstore(0x40, 0x80)\n  callvalue\n  dup1\n  iszero\n  tag_1\n  jumpi\n  0x00\n  dup1\n  revert\ntag_1:\n  pop\n  dataSize(sub_0)\n  dup1\n  dataOffset(sub_0)\n  0x00\n  codecopy\n  0x00\n  return\nstop\n\nsub_0: assembly {\n        /* \"contracts/MappingActivity.sol\":361:1283  contract mappingActivity {... */\n      mstore(0x40, 0x80)\n      callvalue\n      dup1\n      iszero\n      tag_1\n      jumpi\n      0x00\n      dup1\n      revert\n    tag_1:\n      pop\n      jumpi(tag_2, lt(calldatasize, 0x04))\n      shr(0xe0, calldataload(0x00))\n      dup1\n      0x48c54b9d\n      eq\n      tag_3\n      jumpi\n      dup1\n      0x59ddd15c\n      eq\n      tag_4\n      jumpi\n      dup1\n      0x61bc221a\n      eq\n      tag_5\n      jumpi\n      dup1\n      0x70a08231\n      eq\n      tag_6\n      jumpi\n    tag_2:\n      0x00\n      dup1\n      revert\n        /* \"contracts/MappingActivity.sol\":530:1079  function claimTokens() public {... */\n    tag_3:\n      tag_7\n      tag_8\n      jump\t// in\n    tag_7:\n      stop\n        /* \"contracts/MappingActivity.sol\":1170:1281  function checkAccountMappingAmount() public view returns(uint256) {... */\n    tag_4:\n      tag_9\n      tag_10\n      jump\t// in\n    tag_9:\n      mload(0x40)\n      tag_11\n      swap2\n      swap1\n      tag_12\n      jump\t// in\n    tag_11:\n      mload(0x40)\n      dup1\n      swap2\n      sub\n      swap1\n      return\n        /* \"contracts/MappingActivity.sol\":418:440  uint256 public counter */\n    tag_5:\n      tag_13\n      tag_14\n      jump\t// in\n    tag_13:\n      mload(0x40)\n      tag_15\n      swap2\n      swap1\n      tag_12\n      jump\t// in\n    tag_15:\n      mload(0x40)\n      dup1\n      swap2\n      sub\n      swap1\n      return\n        /* \"contracts/MappingActivity.sol\":446:491  mapping (address => uint256) public balanceOf */\n    tag_6:\n      tag_16\n      0x04\n      dup1\n      calldatasize\n      sub\n      dup2\n      add\n      swap1\n      tag_17\n      swap2\n      swap1\n      tag_18\n      jump\t// in\n    tag_17:\n      tag_19\n      jump\t// in\n    tag_16:\n      mload(0x40)\n      tag_20\n      swap2\n      swap1\n      tag_12\n      jump\t// in\n    tag_20:\n      mload(0x40)\n      dup1\n      swap2\n      sub\n      swap1\n      return\n        /* \"contracts/MappingActivity.sol\":530:1079  function claimTokens() public {... */\n    tag_8:\n        /* \"contracts/MappingActivity.sol\":639:660  uint256 allowedAmount */\n      0x00\n        /* \"contracts/MappingActivity.sol\":663:673  2 * 10**18 */\n      0x1bc16d674ec80000\n        /* \"contracts/MappingActivity.sol\":639:673  uint256 allowedAmount = 2 * 10**18 */\n      swap1\n      pop\n        /* \"contracts/MappingActivity.sol\":804:805  0 */\n      0x00\n        /* \"contracts/MappingActivity.sol\":793:800  counter */\n      dup1\n      sload\n        /* \"contracts/MappingActivity.sol\":793:805  counter == 0 */\n      eq\n        /* \"contracts/MappingActivity.sol\":785:857  require(counter == 0, \"The user can only claim the tokens one (1) time\") */\n      tag_22\n      jumpi\n      mload(0x40)\n      0x08c379a000000000000000000000000000000000000000000000000000000000\n      dup2\n      mstore\n      0x04\n      add\n      tag_23\n      swap1\n      tag_24\n      jump\t// in\n    tag_23:\n      mload(0x40)\n      dup1\n      swap2\n      sub\n      swap1\n      revert\n    tag_22:\n        /* \"contracts/MappingActivity.sol\":1010:1023  allowedAmount */\n      dup1\n        /* \"contracts/MappingActivity.sol\":985:994  balanceOf */\n      0x01\n        /* \"contracts/MappingActivity.sol\":985:1006  balanceOf[msg.sender] */\n      0x00\n        /* \"contracts/MappingActivity.sol\":995:1005  msg.sender */\n      caller\n        /* \"contracts/MappingActivity.sol\":985:1006  balanceOf[msg.sender] */\n      0xffffffffffffffffffffffffffffffffffffffff\n      and\n      0xffffffffffffffffffffffffffffffffffffffff\n      and\n      dup2\n      mstore\n      0x20\n      add\n      swap1\n      dup2\n      mstore\n      0x20\n      add\n      0x00\n      keccak256\n      0x00\n        /* \"contracts/MappingActivity.sol\":985:1023  balanceOf[msg.sender] += allowedAmount */\n      dup3\n      dup3\n      sload\n      tag_25\n      swap2\n      swap1\n      tag_26\n      jump\t// in\n    tag_25:\n      swap3\n      pop\n      pop\n      dup2\n      swap1\n      sstore\n      pop\n        /* \"contracts/MappingActivity.sol\":1033:1040  counter */\n      0x00\n      dup1\n        /* \"contracts/MappingActivity.sol\":1033:1042  counter++ */\n      dup2\n      sload\n      dup1\n      swap3\n      swap2\n      swap1\n      tag_27\n      swap1\n      tag_28\n      jump\t// in\n    tag_27:\n      swap2\n      swap1\n      pop\n      sstore\n      pop\n        /* \"contracts/MappingActivity.sol\":530:1079  function claimTokens() public {... */\n      pop\n      jump\t// out\n        /* \"contracts/MappingActivity.sol\":1170:1281  function checkAccountMappingAmount() public view returns(uint256) {... */\n    tag_10:\n        /* \"contracts/MappingActivity.sol\":1227:1234  uint256 */\n      0x00\n        /* \"contracts/MappingActivity.sol\":1253:1262  balanceOf */\n      0x01\n        /* \"contracts/MappingActivity.sol\":1253:1274  balanceOf[msg.sender] */\n      0x00\n        /* \"contracts/MappingActivity.sol\":1263:1273  msg.sender */\n      caller\n        /* \"contracts/MappingActivity.sol\":1253:1274  balanceOf[msg.sender] */\n      0xffffffffffffffffffffffffffffffffffffffff\n      and\n      0xffffffffffffffffffffffffffffffffffffffff\n      and\n      dup2\n      mstore\n      0x20\n      add\n      swap1\n      dup2\n      mstore\n      0x20\n      add\n      0x00\n      keccak256\n      sload\n        /* \"contracts/MappingActivity.sol\":1246:1274  return balanceOf[msg.sender] */\n      swap1\n      pop\n        /* \"contracts/MappingActivity.sol\":1170:1281  function checkAccountMappingAmount() public view returns(uint256) {... */\n      swap1\n      jump\t// out\n        /* \"contracts/MappingActivity.sol\":418:440  uint256 public counter */\n    tag_14:\n      sload(0x00)\n      dup2\n      jump\t// out\n        /* \"contracts/MappingActivity.sol\":446:491  mapping (address => uint256) public balanceOf */\n    tag_19:\n      mstore(0x20, 0x01)\n      dup1\n      0x00\n      mstore\n      keccak256(0x00, 0x40)\n      0x00\n      swap2\n      pop\n      swap1\n      pop\n      sload\n      dup2\n      jump\t// out\n        /* \"#utility.yul\":7:146   */\n    tag_31:\n      0x00\n        /* \"#utility.yul\":91:97   */\n      dup2\n        /* \"#utility.yul\":78:98   */\n      calldataload\n        /* \"#utility.yul\":69:98   */\n      swap1\n      pop\n        /* \"#utility.yul\":107:140   */\n      tag_33\n        /* \"#utility.yul\":134:139   */\n      dup2\n        /* \"#utility.yul\":107:140   */\n      tag_34\n      jump\t// in\n    tag_33:\n        /* \"#utility.yul\":59:146   */\n      swap3\n      swap2\n      pop\n      pop\n      jump\t// out\n        /* \"#utility.yul\":152:414   */\n    tag_18:\n      0x00\n        /* \"#utility.yul\":260:262   */\n      0x20\n        /* \"#utility.yul\":248:257   */\n      dup3\n        /* \"#utility.yul\":239:246   */\n      dup5\n        /* \"#utility.yul\":235:258   */\n      sub\n        /* \"#utility.yul\":231:263   */\n      slt\n        /* \"#utility.yul\":228:230   */\n      iszero\n      tag_36\n      jumpi\n        /* \"#utility.yul\":276:277   */\n      0x00\n        /* \"#utility.yul\":273:274   */\n      dup1\n        /* \"#utility.yul\":266:278   */\n      revert\n        /* \"#utility.yul\":228:230   */\n    tag_36:\n        /* \"#utility.yul\":319:320   */\n      0x00\n        /* \"#utility.yul\":344:397   */\n      tag_37\n        /* \"#utility.yul\":389:396   */\n      dup5\n        /* \"#utility.yul\":380:386   */\n      dup3\n        /* \"#utility.yul\":369:378   */\n      dup6\n        /* \"#utility.yul\":365:387   */\n      add\n        /* \"#utility.yul\":344:397   */\n      tag_31\n      jump\t// in\n    tag_37:\n        /* \"#utility.yul\":334:397   */\n      swap2\n      pop\n        /* \"#utility.yul\":290:407   */\n      pop\n        /* \"#utility.yul\":218:414   */\n      swap3\n      swap2\n      pop\n      pop\n      jump\t// out\n        /* \"#utility.yul\":420:799   */\n    tag_38:\n      0x00\n        /* \"#utility.yul\":583:650   */\n      tag_40\n        /* \"#utility.yul\":647:649   */\n      0x2f\n        /* \"#utility.yul\":642:645   */\n      dup4\n        /* \"#utility.yul\":583:650   */\n      tag_41\n      jump\t// in\n    tag_40:\n        /* \"#utility.yul\":576:650   */\n      swap2\n      pop\n        /* \"#utility.yul\":680:714   */\n      0x54686520757365722063616e206f6e6c7920636c61696d2074686520746f6b65\n        /* \"#utility.yul\":676:677   */\n      0x00\n        /* \"#utility.yul\":671:674   */\n      dup4\n        /* \"#utility.yul\":667:678   */\n      add\n        /* \"#utility.yul\":660:715   */\n      mstore\n        /* \"#utility.yul\":746:763   */\n      0x6e73206f6e65202831292074696d650000000000000000000000000000000000\n        /* \"#utility.yul\":741:743   */\n      0x20\n        /* \"#utility.yul\":736:739   */\n      dup4\n        /* \"#utility.yul\":732:744   */\n      add\n        /* \"#utility.yul\":725:764   */\n      mstore\n        /* \"#utility.yul\":790:792   */\n      0x40\n        /* \"#utility.yul\":785:788   */\n      dup3\n        /* \"#utility.yul\":781:793   */\n      add\n        /* \"#utility.yul\":774:793   */\n      swap1\n      pop\n        /* \"#utility.yul\":566:799   */\n      swap2\n      swap1\n      pop\n      jump\t// out\n        /* \"#utility.yul\":805:923   */\n    tag_42:\n        /* \"#utility.yul\":892:916   */\n      tag_44\n        /* \"#utility.yul\":910:915   */\n      dup2\n        /* \"#utility.yul\":892:916   */\n      tag_45\n      jump\t// in\n    tag_44:\n        /* \"#utility.yul\":887:890   */\n      dup3\n        /* \"#utility.yul\":880:917   */\n      mstore\n        /* \"#utility.yul\":870:923   */\n      pop\n      pop\n      jump\t// out\n        /* \"#utility.yul\":929:1348   */\n    tag_24:\n      0x00\n        /* \"#utility.yul\":1133:1135   */\n      0x20\n        /* \"#utility.yul\":1122:1131   */\n      dup3\n        /* \"#utility.yul\":1118:1136   */\n      add\n        /* \"#utility.yul\":1110:1136   */\n      swap1\n      pop\n        /* \"#utility.yul\":1182:1191   */\n      dup2\n        /* \"#utility.yul\":1176:1180   */\n      dup2\n        /* \"#utility.yul\":1172:1192   */\n      sub\n        /* \"#utility.yul\":1168:1169   */\n      0x00\n        /* \"#utility.yul\":1157:1166   */\n      dup4\n        /* \"#utility.yul\":1153:1170   */\n      add\n        /* \"#utility.yul\":1146:1193   */\n      mstore\n        /* \"#utility.yul\":1210:1341   */\n      tag_47\n        /* \"#utility.yul\":1336:1340   */\n      dup2\n        /* \"#utility.yul\":1210:1341   */\n      tag_38\n      jump\t// in\n    tag_47:\n        /* \"#utility.yul\":1202:1341   */\n      swap1\n      pop\n        /* \"#utility.yul\":1100:1348   */\n      swap2\n      swap1\n      pop\n      jump\t// out\n        /* \"#utility.yul\":1354:1576   */\n    tag_12:\n      0x00\n        /* \"#utility.yul\":1485:1487   */\n      0x20\n        /* \"#utility.yul\":1474:1483   */\n      dup3\n        /* \"#utility.yul\":1470:1488   */\n      add\n        /* \"#utility.yul\":1462:1488   */\n      swap1\n      pop\n        /* \"#utility.yul\":1498:1569   */\n      tag_49\n        /* \"#utility.yul\":1566:1567   */\n      0x00\n        /* \"#utility.yul\":1555:1564   */\n      dup4\n        /* \"#utility.yul\":1551:1568   */\n      add\n        /* \"#utility.yul\":1542:1548   */\n      dup5\n        /* \"#utility.yul\":1498:1569   */\n      tag_42\n      jump\t// in\n    tag_49:\n        /* \"#utility.yul\":1452:1576   */\n      swap3\n      swap2\n      pop\n      pop\n      jump\t// out\n        /* \"#utility.yul\":1582:1751   */\n    tag_41:\n      0x00\n        /* \"#utility.yul\":1700:1706   */\n      dup3\n        /* \"#utility.yul\":1695:1698   */\n      dup3\n        /* \"#utility.yul\":1688:1707   */\n      mstore\n        /* \"#utility.yul\":1740:1744   */\n      0x20\n        /* \"#utility.yul\":1735:1738   */\n      dup3\n        /* \"#utility.yul\":1731:1745   */\n      add\n        /* \"#utility.yul\":1716:1745   */\n      swap1\n      pop\n        /* \"#utility.yul\":1678:1751   */\n      swap3\n      swap2\n      pop\n      pop\n      jump\t// out\n        /* \"#utility.yul\":1757:2062   */\n    tag_26:\n      0x00\n        /* \"#utility.yul\":1816:1836   */\n      tag_52\n        /* \"#utility.yul\":1834:1835   */\n      dup3\n        /* \"#utility.yul\":1816:1836   */\n      tag_45\n      jump\t// in\n    tag_52:\n        /* \"#utility.yul\":1811:1836   */\n      swap2\n      pop\n        /* \"#utility.yul\":1850:1870   */\n      tag_53\n        /* \"#utility.yul\":1868:1869   */\n      dup4\n        /* \"#utility.yul\":1850:1870   */\n      tag_45\n      jump\t// in\n    tag_53:\n        /* \"#utility.yul\":1845:1870   */\n      swap3\n      pop\n        /* \"#utility.yul\":2004:2005   */\n      dup3\n        /* \"#utility.yul\":1936:2002   */\n      0xffffffffffffffffffffffffffffffffffffffffffffffffffffffffffffffff\n        /* \"#utility.yul\":1932:2006   */\n      sub\n        /* \"#utility.yul\":1929:1930   */\n      dup3\n        /* \"#utility.yul\":1926:2007   */\n      gt\n        /* \"#utility.yul\":1923:1925   */\n      iszero\n      tag_54\n      jumpi\n        /* \"#utility.yul\":2010:2028   */\n      tag_55\n      tag_56\n      jump\t// in\n    tag_55:\n        /* \"#utility.yul\":1923:1925   */\n    tag_54:\n        /* \"#utility.yul\":2054:2055   */\n      dup3\n        /* \"#utility.yul\":2051:2052   */\n      dup3\n        /* \"#utility.yul\":2047:2056   */\n      add\n        /* \"#utility.yul\":2040:2056   */\n      swap1\n      pop\n        /* \"#utility.yul\":1801:2062   */\n      swap3\n      swap2\n      pop\n      pop\n      jump\t// out\n        /* \"#utility.yul\":2068:2164   */\n    tag_57:\n      0x00\n        /* \"#utility.yul\":2134:2158   */\n      tag_59\n        /* \"#utility.yul\":2152:2157   */\n      dup3\n        /* \"#utility.yul\":2134:2158   */\n      tag_60\n      jump\t// in\n    tag_59:\n        /* \"#utility.yul\":2123:2158   */\n      swap1\n      pop\n        /* \"#utility.yul\":2113:2164   */\n      swap2\n      swap1\n      pop\n      jump\t// out\n        /* \"#utility.yul\":2170:2296   */\n    tag_60:\n      0x00\n        /* \"#utility.yul\":2247:2289   */\n      0xffffffffffffffffffffffffffffffffffffffff\n        /* \"#utility.yul\":2240:2245   */\n      dup3\n        /* \"#utility.yul\":2236:2290   */\n      and\n        /* \"#utility.yul\":2225:2290   */\n      swap1\n      pop\n        /* \"#utility.yul\":2215:2296   */\n      swap2\n      swap1\n      pop\n      jump\t// out\n        /* \"#utility.yul\":2302:2379   */\n    tag_45:\n      0x00\n        /* \"#utility.yul\":2368:2373   */\n      dup2\n        /* \"#utility.yul\":2357:2373   */\n      swap1\n      pop\n        /* \"#utility.yul\":2347:2379   */\n      swap2\n      swap1\n      pop\n      jump\t// out\n        /* \"#utility.yul\":2385:2618   */\n    tag_28:\n      0x00\n        /* \"#utility.yul\":2447:2471   */\n      tag_64\n        /* \"#utility.yul\":2465:2470   */\n      dup3\n        /* \"#utility.yul\":2447:2471   */\n      tag_45\n      jump\t// in\n    tag_64:\n        /* \"#utility.yul\":2438:2471   */\n      swap2\n      pop\n        /* \"#utility.yul\":2493:2559   */\n      0xffffffffffffffffffffffffffffffffffffffffffffffffffffffffffffffff\n        /* \"#utility.yul\":2486:2491   */\n      dup3\n        /* \"#utility.yul\":2483:2560   */\n      eq\n        /* \"#utility.yul\":2480:2482   */\n      iszero\n      tag_65\n      jumpi\n        /* \"#utility.yul\":2563:2581   */\n      tag_66\n      tag_56\n      jump\t// in\n    tag_66:\n        /* \"#utility.yul\":2480:2482   */\n    tag_65:\n        /* \"#utility.yul\":2610:2611   */\n      0x01\n        /* \"#utility.yul\":2603:2608   */\n      dup3\n        /* \"#utility.yul\":2599:2612   */\n      add\n        /* \"#utility.yul\":2592:2612   */\n      swap1\n      pop\n        /* \"#utility.yul\":2428:2618   */\n      swap2\n      swap1\n      pop\n      jump\t// out\n        /* \"#utility.yul\":2624:2804   */\n    tag_56:\n        /* \"#utility.yul\":2672:2749   */\n      0x4e487b7100000000000000000000000000000000000000000000000000000000\n        /* \"#utility.yul\":2669:2670   */\n      0x00\n        /* \"#utility.yul\":2662:2750   */\n      mstore\n        /* \"#utility.yul\":2769:2773   */\n      0x11\n        /* \"#utility.yul\":2766:2767   */\n      0x04\n        /* \"#utility.yul\":2759:2774   */\n      mstore\n        /* \"#utility.yul\":2793:2797   */\n      0x24\n        /* \"#utility.yul\":2790:2791   */\n      0x00\n        /* \"#utility.yul\":2783:2798   */\n      revert\n        /* \"#utility.yul\":2810:2932   */\n    tag_34:\n        /* \"#utility.yul\":2883:2907   */\n      tag_69\n        /* \"#utility.yul\":2901:2906   */\n      dup2\n        /* \"#utility.yul\":2883:2907   */\n      tag_57\n      jump\t// in\n    tag_69:\n        /* \"#utility.yul\":2876:2881   */\n      dup2\n        /* \"#utility.yul\":2873:2908   */\n      eq\n        /* \"#utility.yul\":2863:2865   */\n      tag_70\n      jumpi\n        /* \"#utility.yul\":2922:2923   */\n      0x00\n        /* \"#utility.yul\":2919:2920   */\n      dup1\n        /* \"#utility.yul\":2912:2924   */\n      revert\n        /* \"#utility.yul\":2863:2865   */\n    tag_70:\n        /* \"#utility.yul\":2853:2932   */\n      pop\n      jump\t// out\n\n    auxdata: 0xa2646970667358221220a0d23d00e21c1835405fd302291ef67d12cd8a88de30d8886a3e0ca92f1b368664736f6c63430008000033\n}\n",
				"bytecode": {
					"linkReferences": {},
					"object": "608060405234801561001057600080fd5b50610443806100206000396000f3fe608060405234801561001057600080fd5b506004361061004c5760003560e01c806348c54b9d1461005157806359ddd15c1461005b57806361bc221a1461007957806370a0823114610097575b600080fd5b6100596100c7565b005b610063610188565b60405161007091906102c0565b60405180910390f35b6100816101cf565b60405161008e91906102c0565b60405180910390f35b6100b160048036038101906100ac9190610202565b6101d5565b6040516100be91906102c0565b60405180910390f35b6000671bc16d674ec8000090506000805414610118576040517f08c379a000000000000000000000000000000000000000000000000000000000815260040161010f906102a0565b60405180910390fd5b80600160003373ffffffffffffffffffffffffffffffffffffffff1673ffffffffffffffffffffffffffffffffffffffff168152602001908152602001600020600082825461016791906102ec565b925050819055506000808154809291906101809061037e565b919050555050565b6000600160003373ffffffffffffffffffffffffffffffffffffffff1673ffffffffffffffffffffffffffffffffffffffff16815260200190815260200160002054905090565b60005481565b60016020528060005260406000206000915090505481565b6000813590506101fc816103f6565b92915050565b60006020828403121561021457600080fd5b6000610222848285016101ed565b91505092915050565b6000610238602f836102db565b91507f54686520757365722063616e206f6e6c7920636c61696d2074686520746f6b6560008301527f6e73206f6e65202831292074696d6500000000000000000000000000000000006020830152604082019050919050565b61029a81610374565b82525050565b600060208201905081810360008301526102b98161022b565b9050919050565b60006020820190506102d56000830184610291565b92915050565b600082825260208201905092915050565b60006102f782610374565b915061030283610374565b9250827fffffffffffffffffffffffffffffffffffffffffffffffffffffffffffffffff03821115610337576103366103c7565b5b828201905092915050565b600061034d82610354565b9050919050565b600073ffffffffffffffffffffffffffffffffffffffff82169050919050565b6000819050919050565b600061038982610374565b91507fffffffffffffffffffffffffffffffffffffffffffffffffffffffffffffffff8214156103bc576103bb6103c7565b5b600182019050919050565b7f4e487b7100000000000000000000000000000000000000000000000000000000600052601160045260246000fd5b6103ff81610342565b811461040a57600080fd5b5056fea2646970667358221220a0d23d00e21c1835405fd302291ef67d12cd8a88de30d8886a3e0ca92f1b368664736f6c63430008000033",
					"opcodes": "PUSH1 0x80 PUSH1 0x40 MSTORE CALLVALUE DUP1 ISZERO PUSH2 0x10 JUMPI PUSH1 0x0 DUP1 REVERT JUMPDEST POP PUSH2 0x443 DUP1 PUSH2 0x20 PUSH1 0x0 CODECOPY PUSH1 0x0 RETURN INVALID PUSH1 0x80 PUSH1 0x40 MSTORE CALLVALUE DUP1 ISZERO PUSH2 0x10 JUMPI PUSH1 0x0 DUP1 REVERT JUMPDEST POP PUSH1 0x4 CALLDATASIZE LT PUSH2 0x4C JUMPI PUSH1 0x0 CALLDATALOAD PUSH1 0xE0 SHR DUP1 PUSH4 0x48C54B9D EQ PUSH2 0x51 JUMPI DUP1 PUSH4 0x59DDD15C EQ PUSH2 0x5B JUMPI DUP1 PUSH4 0x61BC221A EQ PUSH2 0x79 JUMPI DUP1 PUSH4 0x70A08231 EQ PUSH2 0x97 JUMPI JUMPDEST PUSH1 0x0 DUP1 REVERT JUMPDEST PUSH2 0x59 PUSH2 0xC7 JUMP JUMPDEST STOP JUMPDEST PUSH2 0x63 PUSH2 0x188 JUMP JUMPDEST PUSH1 0x40 MLOAD PUSH2 0x70 SWAP2 SWAP1 PUSH2 0x2C0 JUMP JUMPDEST PUSH1 0x40 MLOAD DUP1 SWAP2 SUB SWAP1 RETURN JUMPDEST PUSH2 0x81 PUSH2 0x1CF JUMP JUMPDEST PUSH1 0x40 MLOAD PUSH2 0x8E SWAP2 SWAP1 PUSH2 0x2C0 JUMP JUMPDEST PUSH1 0x40 MLOAD DUP1 SWAP2 SUB SWAP1 RETURN JUMPDEST PUSH2 0xB1 PUSH1 0x4 DUP1 CALLDATASIZE SUB DUP2 ADD SWAP1 PUSH2 0xAC SWAP2 SWAP1 PUSH2 0x202 JUMP JUMPDEST PUSH2 0x1D5 JUMP JUMPDEST PUSH1 0x40 MLOAD PUSH2 0xBE SWAP2 SWAP1 PUSH2 0x2C0 JUMP JUMPDEST PUSH1 0x40 MLOAD DUP1 SWAP2 SUB SWAP1 RETURN JUMPDEST PUSH1 0x0 PUSH8 0x1BC16D674EC80000 SWAP1 POP PUSH1 0x0 DUP1 SLOAD EQ PUSH2 0x118 JUMPI PUSH1 0x40 MLOAD PUSH32 0x8C379A000000000000000000000000000000000000000000000000000000000 DUP2 MSTORE PUSH1 0x4 ADD PUSH2 0x10F SWAP1 PUSH2 0x2A0 JUMP JUMPDEST PUSH1 0x40 MLOAD DUP1 SWAP2 SUB SWAP1 REVERT JUMPDEST DUP1 PUSH1 0x1 PUSH1 0x0 CALLER PUSH20 0xFFFFFFFFFFFFFFFFFFFFFFFFFFFFFFFFFFFFFFFF AND PUSH20 0xFFFFFFFFFFFFFFFFFFFFFFFFFFFFFFFFFFFFFFFF AND DUP2 MSTORE PUSH1 0x20 ADD SWAP1 DUP2 MSTORE PUSH1 0x20 ADD PUSH1 0x0 KECCAK256 PUSH1 0x0 DUP3 DUP3 SLOAD PUSH2 0x167 SWAP2 SWAP1 PUSH2 0x2EC JUMP JUMPDEST SWAP3 POP POP DUP2 SWAP1 SSTORE POP PUSH1 0x0 DUP1 DUP2 SLOAD DUP1 SWAP3 SWAP2 SWAP1 PUSH2 0x180 SWAP1 PUSH2 0x37E JUMP JUMPDEST SWAP2 SWAP1 POP SSTORE POP POP JUMP JUMPDEST PUSH1 0x0 PUSH1 0x1 PUSH1 0x0 CALLER PUSH20 0xFFFFFFFFFFFFFFFFFFFFFFFFFFFFFFFFFFFFFFFF AND PUSH20 0xFFFFFFFFFFFFFFFFFFFFFFFFFFFFFFFFFFFFFFFF AND DUP2 MSTORE PUSH1 0x20 ADD SWAP1 DUP2 MSTORE PUSH1 0x20 ADD PUSH1 0x0 KECCAK256 SLOAD SWAP1 POP SWAP1 JUMP JUMPDEST PUSH1 0x0 SLOAD DUP2 JUMP JUMPDEST PUSH1 0x1 PUSH1 0x20 MSTORE DUP1 PUSH1 0x0 MSTORE PUSH1 0x40 PUSH1 0x0 KECCAK256 PUSH1 0x0 SWAP2 POP SWAP1 POP SLOAD DUP2 JUMP JUMPDEST PUSH1 0x0 DUP2 CALLDATALOAD SWAP1 POP PUSH2 0x1FC DUP2 PUSH2 0x3F6 JUMP JUMPDEST SWAP3 SWAP2 POP POP JUMP JUMPDEST PUSH1 0x0 PUSH1 0x20 DUP3 DUP5 SUB SLT ISZERO PUSH2 0x214 JUMPI PUSH1 0x0 DUP1 REVERT JUMPDEST PUSH1 0x0 PUSH2 0x222 DUP5 DUP3 DUP6 ADD PUSH2 0x1ED JUMP JUMPDEST SWAP2 POP POP SWAP3 SWAP2 POP POP JUMP JUMPDEST PUSH1 0x0 PUSH2 0x238 PUSH1 0x2F DUP4 PUSH2 0x2DB JUMP JUMPDEST SWAP2 POP PUSH32 0x54686520757365722063616E206F6E6C7920636C61696D2074686520746F6B65 PUSH1 0x0 DUP4 ADD MSTORE PUSH32 0x6E73206F6E65202831292074696D650000000000000000000000000000000000 PUSH1 0x20 DUP4 ADD MSTORE PUSH1 0x40 DUP3 ADD SWAP1 POP SWAP2 SWAP1 POP JUMP JUMPDEST PUSH2 0x29A DUP2 PUSH2 0x374 JUMP JUMPDEST DUP3 MSTORE POP POP JUMP JUMPDEST PUSH1 0x0 PUSH1 0x20 DUP3 ADD SWAP1 POP DUP2 DUP2 SUB PUSH1 0x0 DUP4 ADD MSTORE PUSH2 0x2B9 DUP2 PUSH2 0x22B JUMP JUMPDEST SWAP1 POP SWAP2 SWAP1 POP JUMP JUMPDEST PUSH1 0x0 PUSH1 0x20 DUP3 ADD SWAP1 POP PUSH2 0x2D5 PUSH1 0x0 DUP4 ADD DUP5 PUSH2 0x291 JUMP JUMPDEST SWAP3 SWAP2 POP POP JUMP JUMPDEST PUSH1 0x0 DUP3 DUP3 MSTORE PUSH1 0x20 DUP3 ADD SWAP1 POP SWAP3 SWAP2 POP POP JUMP JUMPDEST PUSH1 0x0 PUSH2 0x2F7 DUP3 PUSH2 0x374 JUMP JUMPDEST SWAP2 POP PUSH2 0x302 DUP4 PUSH2 0x374 JUMP JUMPDEST SWAP3 POP DUP3 PUSH32 0xFFFFFFFFFFFFFFFFFFFFFFFFFFFFFFFFFFFFFFFFFFFFFFFFFFFFFFFFFFFFFFFF SUB DUP3 GT ISZERO PUSH2 0x337 JUMPI PUSH2 0x336 PUSH2 0x3C7 JUMP JUMPDEST JUMPDEST DUP3 DUP3 ADD SWAP1 POP SWAP3 SWAP2 POP POP JUMP JUMPDEST PUSH1 0x0 PUSH2 0x34D DUP3 PUSH2 0x354 JUMP JUMPDEST SWAP1 POP SWAP2 SWAP1 POP JUMP JUMPDEST PUSH1 0x0 PUSH20 0xFFFFFFFFFFFFFFFFFFFFFFFFFFFFFFFFFFFFFFFF DUP3 AND SWAP1 POP SWAP2 SWAP1 POP JUMP JUMPDEST PUSH1 0x0 DUP2 SWAP1 POP SWAP2 SWAP1 POP JUMP JUMPDEST PUSH1 0x0 PUSH2 0x389 DUP3 PUSH2 0x374 JUMP JUMPDEST SWAP2 POP PUSH32 0xFFFFFFFFFFFFFFFFFFFFFFFFFFFFFFFFFFFFFFFFFFFFFFFFFFFFFFFFFFFFFFFF DUP3 EQ ISZERO PUSH2 0x3BC JUMPI PUSH2 0x3BB PUSH2 0x3C7 JUMP JUMPDEST JUMPDEST PUSH1 0x1 DUP3 ADD SWAP1 POP SWAP2 SWAP1 POP JUMP JUMPDEST PUSH32 0x4E487B7100000000000000000000000000000000000000000000000000000000 PUSH1 0x0 MSTORE PUSH1 0x11 PUSH1 0x4 MSTORE PUSH1 0x24 PUSH1 0x0 REVERT JUMPDEST PUSH2 0x3FF DUP2 PUSH2 0x342 JUMP JUMPDEST DUP2 EQ PUSH2 0x40A JUMPI PUSH1 0x0 DUP1 REVERT JUMPDEST POP JUMP INVALID LOG2 PUSH5 0x6970667358 0x22 SLT KECCAK256 LOG0 0xD2 RETURNDATASIZE STOP 0xE2 SHR XOR CALLDATALOAD BLOCKHASH 0x5F 0xD3 MUL 0x29 0x1E 0xF6 PUSH30 0x12CD8A88DE30D8886A3E0CA92F1B368664736F6C63430008000033000000 "
				},
				"gasEstimates": {
					"creation": {
						"codeDepositCost": "218200",
						"executionCost": "263",
						"totalCost": "218463"
					},
					"external": {
						"balanceOf(address)": "1558",
						"checkAccountMappingAmount()": "1226",
						"claimTokens()": "infinite",
						"counter()": "1151"
					}
				},
				"methodIdentifiers": {
					"balanceOf(address)": "70a08231",
					"checkAccountMappingAmount()": "59ddd15c",
					"claimTokens()": "48c54b9d",
					"counter()": "61bc221a"
				}
			},
			"storageLayout": {
				"storage": [
					{
						"astId": 3,
						"contract": "contracts/MappingActivity.sol:mappingActivity",
						"label": "counter",
						"offset": 0,
						"slot": "0",
						"type": "t_uint256"
					},
					{
						"astId": 7,
						"contract": "contracts/MappingActivity.sol:mappingActivity",
						"label": "balanceOf",
						"offset": 0,
						"slot": "1",
						"type": "t_mapping(t_address,t_uint256)"
					}
				],
				"types": {
					"t_address": {
						"encoding": "inplace",
						"label": "address",
						"numberOfBytes": "20"
					},
					"t_mapping(t_address,t_uint256)": {
						"encoding": "mapping",
						"key": "t_address",
						"label": "mapping(address => uint256)",
						"numberOfBytes": "32",
						"value": "t_uint256"
					},
					"t_uint256": {
						"encoding": "inplace",
						"label": "uint256",
						"numberOfBytes": "32"
					}
				}
			},
			"userdoc": {
				"kind": "user",
				"methods": {},
				"version": 1
			}
		}
	}
}